{"contracts/XOSK.sol":{"xBurnInvitationPoolWithStats":{"abi":[{"inputs":[{"internalType":"address","name":"_operationWallet","type":"address"},{"internalType":"address","name":"_marketingWallet","type":"address"},{"internalType":"address","name":"_burnWallet","type":"address"},{"internalType":"uint256","name":"_initialSupply","type":"uint256"}],"stateMutability":"nonpayable","type":"constructor"},{"anonymous":false,"inputs":[{"indexed":true,"internalType":"address","name":"owner","type":"address"},{"indexed":true,"internalType":"address","name":"spender","type":"address"},{"indexed":false,"internalType":"uint256","name":"value","type":"uint256"}],"name":"Approval","type":"event"},{"anonymous":false,"inputs":[{"indexed":false,"internalType":"uint256","name":"date","type":"uint256"},{"indexed":false,"internalType":"uint256","name":"invitations","type":"uint256"},{"indexed":false,"internalType":"uint256","name":"rewards","type":"uint256"},{"indexed":false,"internalType":"uint256","name":"activeInviters","type":"uint256"}],"name":"DailyStatsUpdated","type":"event"},{"anonymous":false,"inputs":[{"indexed":false,"internalType":"uint256","name":"totalInvitations","type":"uint256"},{"indexed":false,"internalType":"uint256","name":"totalRewards","type":"uint256"}],"name":"GlobalStatsUpdated","type":"event"},{"anonymous":false,"inputs":[{"indexed":true,"internalType":"string","name":"code","type":"string"},{"indexed":true,"internalType":"address","name":"owner","type":"address"}],"name":"InvitationCodeCreated","type":"event"},{"anonymous":false,"inputs":[{"indexed":true,"internalType":"string","name":"code","type":"string"},{"indexed":true,"internalType":"address","name":"user","type":"address"},{"indexed":true,"internalType":"address","name":"inviter","type":"address"}],"name":"InvitationCodeUsed","type":"event"},{"anonymous":false,"inputs":[{"indexed":true,"internalType":"address","name":"previousOwner","type":"address"},{"indexed":true,"internalType":"address","name":"newOwner","type":"address"}],"name":"OwnershipTransferred","type":"event"},{"anonymous":false,"inputs":[{"indexed":false,"internalType":"address","name":"account","type":"address"}],"name":"Paused","type":"event"},{"anonymous":false,"inputs":[{"indexed":true,"internalType":"address","name":"user","type":"address"},{"indexed":true,"internalType":"address","name":"inviter","type":"address"},{"indexed":false,"internalType":"uint256","name":"amount","type":"uint256"},{"indexed":false,"internalType":"uint256","name":"level","type":"uint256"}],"name":"RewardDistributed","type":"event"},{"anonymous":false,"inputs":[{"indexed":true,"internalType":"address","name":"from","type":"address"},{"indexed":false,"internalType":"uint256","name":"totalTax","type":"uint256"},{"indexed":false,"internalType":"uint256","name":"directReward","type":"uint256"},{"indexed":false,"internalType":"uint256","name":"secondReward","type":"uint256"},{"indexed":false,"internalType":"uint256","name":"operationFee","type":"uint256"},{"indexed":false,"internalType":"uint256","name":"marketingFee","type":"uint256"},{"indexed":false,"internalType":"uint256","name":"burnAmount","type":"uint256"}],"name":"TaxCollected","type":"event"},{"anonymous":false,"inputs":[{"indexed":true,"internalType":"address","name":"from","type":"address"},{"indexed":true,"internalType":"address","name":"to","type":"address"},{"indexed":false,"internalType":"uint256","name":"value","type":"uint256"}],"name":"Transfer","type":"event"},{"anonymous":false,"inputs":[{"indexed":false,"internalType":"address","name":"account","type":"address"}],"name":"Unpaused","type":"event"},{"inputs":[],"name":"BURN_RATE","outputs":[{"internalType":"uint256","name":"","type":"uint256"}],"stateMutability":"view","type":"function"},{"inputs":[],"name":"DEAD_ADDRESS","outputs":[{"internalType":"address","name":"","type":"address"}],"stateMutability":"view","type":"function"},{"inputs":[],"name":"DIRECT_INVITER_RATE","outputs":[{"internalType":"uint256","name":"","type":"uint256"}],"stateMutability":"view","type":"function"},{"inputs":[],"name":"MARKETING_RATE","outputs":[{"internalType":"uint256","name":"","type":"uint256"}],"stateMutability":"view","type":"function"},{"inputs":[],"name":"OPERATION_RATE","outputs":[{"internalType":"uint256","name":"","type":"uint256"}],"stateMutability":"view","type":"function"},{"inputs":[],"name":"SECOND_INVITER_RATE","outputs":[{"internalType":"uint256","name":"","type":"uint256"}],"stateMutability":"view","type":"function"},{"inputs":[],"name":"TOTAL_TAX_RATE","outputs":[{"internalType":"uint256","name":"","type":"uint256"}],"stateMutability":"view","type":"function"},{"inputs":[{"internalType":"address","name":"owner","type":"address"},{"internalType":"address","name":"spender","type":"address"}],"name":"allowance","outputs":[{"internalType":"uint256","name":"","type":"uint256"}],"stateMutability":"view","type":"function"},{"inputs":[{"internalType":"address","name":"spender","type":"address"},{"internalType":"uint256","name":"amount","type":"uint256"}],"name":"approve","outputs":[{"internalType":"bool","name":"","type":"bool"}],"stateMutability":"nonpayable","type":"function"},{"inputs":[{"internalType":"address","name":"account","type":"address"}],"name":"balanceOf","outputs":[{"internalType":"uint256","name":"","type":"uint256"}],"stateMutability":"view","type":"function"},{"inputs":[],"name":"burnWallet","outputs":[{"internalType":"address","name":"","type":"address"}],"stateMutability":"view","type":"function"},{"inputs":[{"internalType":"string","name":"code","type":"string"}],"name":"createInvitationCode","outputs":[],"stateMutability":"nonpayable","type":"function"},{"inputs":[{"internalType":"uint256","name":"","type":"uint256"}],"name":"dailyStats","outputs":[{"internalType":"uint256","name":"date","type":"uint256"},{"internalType":"uint256","name":"invitationsToday","type":"uint256"},{"internalType":"uint256","name":"rewardsToday","type":"uint256"},{"internalType":"uint256","name":"activeInvitersToday","type":"uint256"}],"stateMutability":"view","type":"function"},{"inputs":[],"name":"decimals","outputs":[{"internalType":"uint8","name":"","type":"uint8"}],"stateMutability":"view","type":"function"},{"inputs":[{"internalType":"address","name":"spender","type":"address"},{"internalType":"uint256","name":"subtractedValue","type":"uint256"}],"name":"decreaseAllowance","outputs":[{"internalType":"bool","name":"","type":"bool"}],"stateMutability":"nonpayable","type":"function"},{"inputs":[{"internalType":"address","name":"token","type":"address"},{"internalType":"uint256","name":"amount","type":"uint256"}],"name":"emergencyWithdraw","outputs":[],"stateMutability":"nonpayable","type":"function"},{"inputs":[],"name":"getContractStats","outputs":[{"internalType":"uint256","name":"","type":"uint256"},{"internalType":"uint256","name":"","type":"uint256"},{"internalType":"uint256","name":"","type":"uint256"},{"internalType":"uint256","name":"","type":"uint256"},{"internalType":"uint256","name":"","type":"uint256"},{"internalType":"uint256","name":"","type":"uint256"},{"internalType":"uint256","name":"","type":"uint256"},{"internalType":"uint256","name":"","type":"uint256"}],"stateMutability":"view","type":"function"},{"inputs":[{"internalType":"uint256","name":"date","type":"uint256"}],"name":"getDailyStats","outputs":[{"components":[{"internalType":"uint256","name":"date","type":"uint256"},{"internalType":"uint256","name":"invitationsToday","type":"uint256"},{"internalType":"uint256","name":"rewardsToday","type":"uint256"},{"internalType":"uint256","name":"activeInvitersToday","type":"uint256"}],"internalType":"struct xBurnInvitationPoolWithStats.DailyStats","name":"","type":"tuple"}],"stateMutability":"view","type":"function"},{"inputs":[],"name":"getGlobalStats","outputs":[{"components":[{"internalType":"uint256","name":"totalInvitations","type":"uint256"},{"internalType":"uint256","name":"totalActiveInviters","type":"uint256"},{"internalType":"uint256","name":"totalRewardsDistributed","type":"uint256"},{"internalType":"uint256","name":"totalDirectRewards","type":"uint256"},{"internalType":"uint256","name":"totalSecondLevelRewards","type":"uint256"},{"internalType":"uint256","name":"totalBurnedFromInvitations","type":"uint256"},{"internalType":"uint256","name":"lastUpdateTime","type":"uint256"}],"internalType":"struct xBurnInvitationPoolWithStats.InvitationStats","name":"","type":"tuple"}],"stateMutability":"view","type":"function"},{"inputs":[{"internalType":"string","name":"code","type":"string"}],"name":"getInvitationCodeOwner","outputs":[{"internalType":"address","name":"","type":"address"}],"stateMutability":"view","type":"function"},{"inputs":[{"internalType":"uint256","name":"numDays","type":"uint256"}],"name":"getRecentDailyStats","outputs":[{"components":[{"internalType":"uint256","name":"date","type":"uint256"},{"internalType":"uint256","name":"invitationsToday","type":"uint256"},{"internalType":"uint256","name":"rewardsToday","type":"uint256"},{"internalType":"uint256","name":"activeInvitersToday","type":"uint256"}],"internalType":"struct xBurnInvitationPoolWithStats.DailyStats[]","name":"","type":"tuple[]"}],"stateMutability":"view","type":"function"},{"inputs":[],"name":"getTodayDate","outputs":[{"internalType":"uint256","name":"","type":"uint256"}],"stateMutability":"view","type":"function"},{"inputs":[{"internalType":"address","name":"user","type":"address"}],"name":"getUserInvitees","outputs":[{"internalType":"address[]","name":"","type":"address[]"}],"stateMutability":"view","type":"function"},{"inputs":[{"internalType":"address","name":"user","type":"address"}],"name":"getUserInviteesCount","outputs":[{"internalType":"uint256","name":"","type":"uint256"}],"stateMutability":"view","type":"function"},{"inputs":[],"name":"globalStats","outputs":[{"internalType":"uint256","name":"totalInvitations","type":"uint256"},{"internalType":"uint256","name":"totalActiveInviters","type":"uint256"},{"internalType":"uint256","name":"totalRewardsDistributed","type":"uint256"},{"internalType":"uint256","name":"totalDirectRewards","type":"uint256"},{"internalType":"uint256","name":"totalSecondLevelRewards","type":"uint256"},{"internalType":"uint256","name":"totalBurnedFromInvitations","type":"uint256"},{"internalType":"uint256","name":"lastUpdateTime","type":"uint256"}],"stateMutability":"view","type":"function"},{"inputs":[{"internalType":"address","name":"spender","type":"address"},{"internalType":"uint256","name":"addedValue","type":"uint256"}],"name":"increaseAllowance","outputs":[{"internalType":"bool","name":"","type":"bool"}],"stateMutability":"nonpayable","type":"function"},{"inputs":[{"internalType":"string","name":"","type":"string"}],"name":"invitationCodeOwners","outputs":[{"internalType":"address","name":"","type":"address"}],"stateMutability":"view","type":"function"},{"inputs":[{"internalType":"string","name":"code","type":"string"}],"name":"isInvitationCodeExists","outputs":[{"internalType":"bool","name":"","type":"bool"}],"stateMutability":"view","type":"function"},{"inputs":[],"name":"marketingWallet","outputs":[{"internalType":"address","name":"","type":"address"}],"stateMutability":"view","type":"function"},{"inputs":[],"name":"name","outputs":[{"internalType":"string","name":"","type":"string"}],"stateMutability":"view","type":"function"},{"inputs":[],"name":"operationWallet","outputs":[{"internalType":"address","name":"","type":"address"}],"stateMutability":"view","type":"function"},{"inputs":[],"name":"owner","outputs":[{"internalType":"address","name":"","type":"address"}],"stateMutability":"view","type":"function"},{"inputs":[],"name":"pause","outputs":[],"stateMutability":"nonpayable","type":"function"},{"inputs":[],"name":"paused","outputs":[{"internalType":"bool","name":"","type":"bool"}],"stateMutability":"view","type":"function"},{"inputs":[],"name":"renounceOwnership","outputs":[],"stateMutability":"nonpayable","type":"function"},{"inputs":[{"internalType":"address","name":"_wallet","type":"address"}],"name":"setBurnWallet","outputs":[],"stateMutability":"nonpayable","type":"function"},{"inputs":[{"internalType":"address","name":"_wallet","type":"address"}],"name":"setMarketingWallet","outputs":[],"stateMutability":"nonpayable","type":"function"},{"inputs":[{"internalType":"address","name":"_wallet","type":"address"}],"name":"setOperationWallet","outputs":[],"stateMutability":"nonpayable","type":"function"},{"inputs":[{"internalType":"address","name":"_address","type":"address"},{"internalType":"bool","name":"_exempt","type":"bool"}],"name":"setTaxExempt","outputs":[],"stateMutability":"nonpayable","type":"function"},{"inputs":[],"name":"symbol","outputs":[{"internalType":"string","name":"","type":"string"}],"stateMutability":"view","type":"function"},{"inputs":[{"internalType":"address","name":"","type":"address"}],"name":"taxExempt","outputs":[{"internalType":"bool","name":"","type":"bool"}],"stateMutability":"view","type":"function"},{"inputs":[],"name":"totalSupply","outputs":[{"internalType":"uint256","name":"","type":"uint256"}],"stateMutability":"view","type":"function"},{"inputs":[{"internalType":"address","name":"to","type":"address"},{"internalType":"uint256","name":"amount","type":"uint256"}],"name":"transfer","outputs":[{"internalType":"bool","name":"","type":"bool"}],"stateMutability":"nonpayable","type":"function"},{"inputs":[{"internalType":"address","name":"from","type":"address"},{"internalType":"address","name":"to","type":"address"},{"internalType":"uint256","name":"amount","type":"uint256"}],"name":"transferFrom","outputs":[{"internalType":"bool","name":"","type":"bool"}],"stateMutability":"nonpayable","type":"function"},{"inputs":[{"internalType":"address","name":"newOwner","type":"address"}],"name":"transferOwnership","outputs":[],"stateMutability":"nonpayable","type":"function"},{"inputs":[],"name":"unpause","outputs":[],"stateMutability":"nonpayable","type":"function"},{"inputs":[{"internalType":"string","name":"code","type":"string"}],"name":"useInvitationCode","outputs":[],"stateMutability":"nonpayable","type":"function"},{"inputs":[{"internalType":"address","name":"","type":"address"}],"name":"userInfo","outputs":[{"internalType":"string","name":"invitationCode","type":"string"},{"internalType":"string","name":"usedInvitationCode","type":"string"},{"internalType":"address","name":"directInviter","type":"address"},{"internalType":"address","name":"secondInviter","type":"address"},{"internalType":"uint256","name":"totalReceived","type":"uint256"},{"internalType":"uint256","name":"invitationsSent","type":"uint256"},{"internalType":"uint256","name":"lastInvitationTime","type":"uint256"}],"stateMutability":"view","type":"function"},{"inputs":[{"internalType":"address","name":"","type":"address"},{"internalType":"uint256","name":"","type":"uint256"}],"name":"userInvitees","outputs":[{"internalType":"address","name":"","type":"address"}],"stateMutability":"view","type":"function"},{"stateMutability":"payable","type":"receive"}],"evm":{"bytecode":{"linkReferences":{},"object":"60806040523480156200001157600080fd5b50604051620031e2380380620031e283398101604081905262000034916200042f565b6040518060400160405280600b81526020016a3c213ab937102a37b5b2b760a91b815250604051806040016040528060058152602001643c213ab93760d91b815250816003908162000087919062000525565b50600462000096828262000525565b505050620000b3620000ad620002f460201b60201c565b620002f8565b60016006556007805460ff191690556001600160a01b0384166200011e5760405162461bcd60e51b815260206004820152601860248201527f496e76616c6964206f7065726174696f6e2077616c6c6574000000000000000060448201526064015b60405180910390fd5b6001600160a01b038316620001765760405162461bcd60e51b815260206004820152601860248201527f496e76616c6964206d61726b6574696e672077616c6c65740000000000000000604482015260640162000115565b6001600160a01b038216620001ce5760405162461bcd60e51b815260206004820152601360248201527f496e76616c6964206275726e2077616c6c657400000000000000000000000000604482015260640162000115565b600780546001600160a01b0380871661010002610100600160a81b031990921691909117909155600880548583166001600160a01b03199182161790915560098054928516929091169190911790556200022933826200034a565b6001600d6000620002426005546001600160a01b031690565b6001600160a01b03908116825260208083019390935260409182016000908120805495151560ff19968716179055308152600d909352818320805485166001908117909155978116835281832080548516891790559586168252808220805484168817905593909416845291832080548316851790555061dead9091527fdc7fafdc41998a74ecacb8f8bd877011aba1f1d03a3a0d37a2e7879a393b1d6a805490911690911790554260145562000619565b3390565b600580546001600160a01b038381166001600160a01b0319831681179093556040519116919082907f8be0079c531659141344cd1fd0a4f28419497f9722a3daafe3b4186f6b6457e090600090a35050565b6001600160a01b038216620003a25760405162461bcd60e51b815260206004820152601f60248201527f45524332303a206d696e7420746f20746865207a65726f206164647265737300604482015260640162000115565b8060026000828254620003b69190620005f1565b90915550506001600160a01b038216600081815260208181526040808320805486019055518481527fddf252ad1be2c89b69c2b068fc378daa952ba7f163c4a11628f55a4df523b3ef910160405180910390a35050565b505050565b80516001600160a01b03811681146200042a57600080fd5b919050565b600080600080608085870312156200044657600080fd5b620004518562000412565b9350620004616020860162000412565b9250620004716040860162000412565b6060959095015193969295505050565b634e487b7160e01b600052604160045260246000fd5b600181811c90821680620004ac57607f821691505b602082108103620004cd57634e487b7160e01b600052602260045260246000fd5b50919050565b601f8211156200040d57600081815260208120601f850160051c81016020861015620004fc5750805b601f850160051c820191505b818110156200051d5782815560010162000508565b505050505050565b81516001600160401b0381111562000541576200054162000481565b620005598162000552845462000497565b84620004d3565b602080601f831160018114620005915760008415620005785750858301515b600019600386901b1c1916600185901b1785556200051d565b600085815260208120601f198616915b82811015620005c257888601518255948401946001909101908401620005a1565b5085821015620005e15787850151600019600388901b60f8161c191681555b5050505050600190811b01905550565b808201808211156200061357634e487b7160e01b600052601160045260246000fd5b92915050565b612bb980620006296000396000f3fe6080604052600436106102b25760003560e01c80636f7072ac11610175578063a9059cbb116100dc578063dfe6b5d611610095578063e4dc4efc1161006f578063e4dc4efc1461093c578063f2fde38b146109a0578063f846a8851461031c578063ff638874146109c057600080fd5b8063dfe6b5d61461089a578063e042ad58146108ea578063e2f800d71461090f57600080fd5b8063a9059cbb146107c8578063b1a1053e146107e8578063bd3ec0b714610808578063d1ecfc681461081d578063d59703961461084d578063dd62ed3e1461087a57600080fd5b80638456cb591161012e5780638456cb59146107405780638da5cb5b1461075557806395ccea671461077357806395d89b41146107935780639ed1879f1461031c578063a457c2d7146107a857600080fd5b80636f7072ac1461065257806370a0823114610672578063715018a6146106a857806373f25964146106bd578063744586a5146106f357806375f0a8741461072057600080fd5b806328e7cef5116102195780633f4ba83a116101d25780633f4ba83a146105645780633fc3fda1146105795780634e6fd6c4146105995780635c975abb146105af5780635d098b38146105c75780636b4169c3146105e757600080fd5b806328e7cef5146104915780632c489aec146104a6578063313ce5671461050857806335b0308614610524578063391ac47314610491578063395093511461054457600080fd5b806318160ddd1161026b57806318160ddd146103c75780631959a002146103dc5780631c4ba3ed1461040f5780631dc610401461043157806321e4b5901461045157806323b872dd1461047157600080fd5b806305453fb4146102be57806305501dea1461031c578063062287491461033f57806306fdde031461035f578063091f594814610381578063095ea7b31461039757600080fd5b366102b957005b600080fd5b3480156102ca57600080fd5b506102ff6102d9366004612539565b8051602081830181018051600c825292820191909301209152546001600160a01b031681565b6040516001600160a01b0390911681526020015b60405180910390f35b34801561032857600080fd5b50610331606481565b604051908152602001610313565b34801561034b57600080fd5b506009546102ff906001600160a01b031681565b34801561036b57600080fd5b506103746109e0565b6040516103139190612630565b34801561038d57600080fd5b5061033161019081565b3480156103a357600080fd5b506103b76103b2366004612666565b610a72565b6040519015158152602001610313565b3480156103d357600080fd5b50600254610331565b3480156103e857600080fd5b506103fc6103f7366004612690565b610a8c565b60405161031397969594939291906126ab565b34801561041b57600080fd5b5061042f61042a366004612690565b610be4565b005b34801561043d57600080fd5b5061042f61044c366004612715565b610c3d565b34801561045d57600080fd5b5061042f61046c366004612690565b610c70565b34801561047d57600080fd5b506103b761048c36600461274c565b610cc6565b34801561049d57600080fd5b50610331603281565b3480156104b257600080fd5b506104e86104c1366004612788565b60156020526000908152604090208054600182015460028301546003909301549192909184565b604080519485526020850193909352918301526060820152608001610313565b34801561051457600080fd5b5060405160128152602001610313565b34801561053057600080fd5b506103b761053f3660046127a1565b610cea565b34801561055057600080fd5b506103b761055f366004612666565b610d2b565b34801561057057600080fd5b5061042f610d4d565b34801561058557600080fd5b506102ff610594366004612666565b610d5f565b3480156105a557600080fd5b506102ff61dead81565b3480156105bb57600080fd5b5060075460ff166103b7565b3480156105d357600080fd5b5061042f6105e2366004612690565b610d97565b3480156105f357600080fd5b506105fc610de7565b6040516103139190600060e082019050825182526020830151602083015260408301516040830152606083015160608301526080830151608083015260a083015160a083015260c083015160c083015292915050565b34801561065e57600080fd5b506102ff61066d3660046127a1565b610e6c565b34801561067e57600080fd5b5061033161068d366004612690565b6001600160a01b031660009081526020819052604090205490565b3480156106b457600080fd5b5061042f610ea1565b3480156106c957600080fd5b506103316106d8366004612690565b6001600160a01b03166000908152600b602052604090205490565b3480156106ff57600080fd5b5061071361070e366004612690565b610eb3565b6040516103139190612813565b34801561072c57600080fd5b506008546102ff906001600160a01b031681565b34801561074c57600080fd5b5061042f610f29565b34801561076157600080fd5b506005546001600160a01b03166102ff565b34801561077f57600080fd5b5061042f61078e366004612666565b610f39565b34801561079f57600080fd5b5061037461105f565b3480156107b457600080fd5b506103b76107c3366004612666565b61106e565b3480156107d457600080fd5b506103b76107e3366004612666565b6110e9565b3480156107f457600080fd5b5061042f6108033660046127a1565b6110f7565b34801561081457600080fd5b506103316113cf565b34801561082957600080fd5b506103b7610838366004612690565b600d6020526000908152604090205460ff1681565b34801561085957600080fd5b5061086d610868366004612788565b6113fd565b6040516103139190612860565b34801561088657600080fd5b506103316108953660046128c3565b611589565b3480156108a657600080fd5b506108af6115b4565b604080519889526020890197909752958701949094526060860192909252608085015260a084015260c083015260e082015261010001610313565b3480156108f657600080fd5b506007546102ff9061010090046001600160a01b031681565b34801561091b57600080fd5b5061092f61092a366004612788565b61164b565b60405161031391906128f6565b34801561094857600080fd5b50600e54600f5460105460115460125460135460145461096b9695949392919087565b604080519788526020880196909652948601939093526060850191909152608084015260a083015260c082015260e001610313565b3480156109ac57600080fd5b5061042f6109bb366004612690565b6116bb565b3480156109cc57600080fd5b5061042f6109db3660046127a1565b611734565b6060600380546109ef90612921565b80601f0160208091040260200160405190810160405280929190818152602001828054610a1b90612921565b8015610a685780601f10610a3d57610100808354040283529160200191610a68565b820191906000526020600020905b815481529060010190602001808311610a4b57829003601f168201915b5050505050905090565b600033610a80818585611937565b60019150505b92915050565b600a60205260009081526040902080548190610aa790612921565b80601f0160208091040260200160405190810160405280929190818152602001828054610ad390612921565b8015610b205780601f10610af557610100808354040283529160200191610b20565b820191906000526020600020905b815481529060010190602001808311610b0357829003601f168201915b505050505090806001018054610b3590612921565b80601f0160208091040260200160405190810160405280929190818152602001828054610b6190612921565b8015610bae5780601f10610b8357610100808354040283529160200191610bae565b820191906000526020600020905b815481529060010190602001808311610b9157829003601f168201915b505050600284015460038501546004860154600587015460069097015495966001600160a01b0393841696929093169450925087565b610bec611a5b565b6001600160a01b038116610c1b5760405162461bcd60e51b8152600401610c129061295b565b60405180910390fd5b600980546001600160a01b0319166001600160a01b0392909216919091179055565b610c45611a5b565b6001600160a01b03919091166000908152600d60205260409020805460ff1916911515919091179055565b610c78611a5b565b6001600160a01b038116610c9e5760405162461bcd60e51b8152600401610c129061295b565b600780546001600160a01b0390921661010002610100600160a81b0319909216919091179055565b600033610cd4858285611ab5565b610cdf858585611b2f565b506001949350505050565b6000806001600160a01b0316600c8484604051610d08929190612984565b908152604051908190036020019020546001600160a01b03161415905092915050565b600033610a80818585610d3e8383611589565b610d4891906129aa565b611937565b610d55611a5b565b610d5d611c20565b565b600b6020528160005260406000208181548110610d7b57600080fd5b6000918252602090912001546001600160a01b03169150829050565b610d9f611a5b565b6001600160a01b038116610dc55760405162461bcd60e51b8152600401610c129061295b565b600880546001600160a01b0319166001600160a01b0392909216919091179055565b610e276040518060e00160405280600081526020016000815260200160008152602001600081526020016000815260200160008152602001600081525090565b506040805160e081018252600e548152600f546020820152601054918101919091526011546060820152601254608082015260135460a082015260145460c082015290565b6000600c8383604051610e80929190612984565b908152604051908190036020019020546001600160a01b0316905092915050565b610ea9611a5b565b610d5d6000611c72565b6001600160a01b0381166000908152600b6020908152604091829020805483518184028101840190945280845260609392830182828015610f1d57602002820191906000526020600020905b81546001600160a01b03168152600190910190602001808311610eff575b50505050509050919050565b610f31611a5b565b610d5d611cc4565b610f41611a5b565b6001600160a01b038216610f875760405162461bcd60e51b815260206004820152600d60248201526c24b73b30b634b2103a37b5b2b760991b6044820152606401610c12565b60008111610fc85760405162461bcd60e51b815260206004820152600e60248201526d125b9d985b1a5908185b5bdd5b9d60921b6044820152606401610c12565b816001600160a01b031663a9059cbb610fe96005546001600160a01b031690565b6040516001600160e01b031960e084901b1681526001600160a01b039091166004820152602481018490526044016020604051808303816000875af1158015611036573d6000803e3d6000fd5b505050506040513d601f19601f8201168201806040525081019061105a91906129bd565b505050565b6060600480546109ef90612921565b6000338161107c8286611589565b9050838110156110dc5760405162461bcd60e51b815260206004820152602560248201527f45524332303a2064656372656173656420616c6c6f77616e63652062656c6f77604482015264207a65726f60d81b6064820152608401610c12565b610cdf8286868403611937565b600033610a80818585611b2f565b6110ff611d01565b611107611d5a565b600681108015906111195750600c8111155b6111655760405162461bcd60e51b815260206004820152601e60248201527f436f6465206c656e677468206d75737420626520362d313220636861727300006044820152606401610c12565b60006001600160a01b0316600c8383604051611182929190612984565b908152604051908190036020019020546001600160a01b0316036111de5760405162461bcd60e51b815260206004820152601360248201527210dbd91948191bd95cc81b9bdd08195e1a5cdd606a1b6044820152606401610c12565b336001600160a01b0316600c83836040516111fa929190612984565b908152604051908190036020019020546001600160a01b0316036112565760405162461bcd60e51b815260206004820152601360248201527243616e6e6f7420757365206f776e20636f646560681b6044820152606401610c12565b336000908152600a60205260409020600101805461127390612921565b1590506112c25760405162461bcd60e51b815260206004820152601c60248201527f416c7265616479207573656420696e7669746174696f6e20636f6465000000006044820152606401610c12565b6000600c83836040516112d6929190612984565b9081526040805160209281900383019020546001600160a01b039081166000818152600a9094528284206002015433855292909320929350169060010161131e848683612a28565b50336000818152600a602052604090206002810180546001600160a01b038087166001600160a01b031992831617909255600390920180549185169190921617905561136b908390611da0565b816001600160a01b0316336001600160a01b0316858560405161138f929190612984565b604051908190038120907fb85de01f5199433d02da991c5cd5c6932e2c8db5f9bb4e3b9caea6c2c0c4491a90600090a450506113cb6001600655565b5050565b60006113de6201518042612ae8565b6113ea90612710612b0a565b6113f89063012c99856129aa565b905090565b6060600082118015611411575061016d8211155b61144c5760405162461bcd60e51b815260206004820152600c60248201526b496e76616c6964206461797360a01b6044820152606401610c12565b60008267ffffffffffffffff81111561146757611467612523565b6040519080825280602002602001820160405280156114c357816020015b6114b06040518060800160405280600081526020016000815260200160008152602001600081525090565b8152602001906001900390816114855790505b50905060006114d06113cf565b905060005b848110156115805760006114e98284612b21565b90506015600082815260200190815260200160002060405180608001604052908160008201548152602001600182015481526020016002820154815260200160038201548152505084838151811061154357611543612b34565b60200260200101819052508084838151811061156157611561612b34565b602090810291909101015152508061157881612b4a565b9150506114d5565b50909392505050565b6001600160a01b03918216600090815260016020908152604080832093909416825291909152205490565b600080600080600080600080600e60000154600e600201546000611602600760019054906101000a90046001600160a01b03166001600160a01b031660009081526020819052604090205490565b6008546001600160a01b0390811660009081526020819052604080822054600954909316825280822054308352912054959e949d50929b50909950975095504794509092509050565b6116766040518060800160405280600081526020016000815260200160008152602001600081525090565b50600090815260156020908152604091829020825160808101845281548152600182015492810192909252600281015492820192909252600390910154606082015290565b6116c3611a5b565b6001600160a01b0381166117285760405162461bcd60e51b815260206004820152602660248201527f4f776e61626c653a206e6577206f776e657220697320746865207a65726f206160448201526564647265737360d01b6064820152608401610c12565b61173181611c72565b50565b61173c611d01565b611744611d5a565b600681108015906117565750600c8111155b6117a25760405162461bcd60e51b815260206004820152601e60248201527f436f6465206c656e677468206d75737420626520362d313220636861727300006044820152606401610c12565b60006001600160a01b0316600c83836040516117bf929190612984565b908152604051908190036020019020546001600160a01b03161461181b5760405162461bcd60e51b8152602060048201526013602482015272436f646520616c72656164792065786973747360681b6044820152606401610c12565b336000908152600a60205260409020805461183590612921565b1590506118905760405162461bcd60e51b815260206004820152602360248201527f5573657220616c72656164792068617320616e20696e7669746174696f6e20636044820152626f646560e81b6064820152608401610c12565b336000908152600a602052604090206118aa828483612a28565b5033600c83836040516118be929190612984565b90815260405190819003602001812080546001600160a01b03939093166001600160a01b03199093169290921790915533906118fd9084908490612984565b604051908190038120907fa05bbb1c92ec612f10b3899e3c47419782f5d6164b2406ddf87938e9841691b290600090a36113cb6001600655565b6001600160a01b0383166119995760405162461bcd60e51b8152602060048201526024808201527f45524332303a20617070726f76652066726f6d20746865207a65726f206164646044820152637265737360e01b6064820152608401610c12565b6001600160a01b0382166119fa5760405162461bcd60e51b815260206004820152602260248201527f45524332303a20617070726f766520746f20746865207a65726f206164647265604482015261737360f01b6064820152608401610c12565b6001600160a01b0383811660008181526001602090815260408083209487168084529482529182902085905590518481527f8c5be1e5ebec7d5bd14f71427d1e84f3dd0314c0f7b2291e5b200ac8c7c3b925910160405180910390a3505050565b6005546001600160a01b03163314610d5d5760405162461bcd60e51b815260206004820181905260248201527f4f776e61626c653a2063616c6c6572206973206e6f7420746865206f776e65726044820152606401610c12565b6000611ac18484611589565b90506000198114611b295781811015611b1c5760405162461bcd60e51b815260206004820152601d60248201527f45524332303a20696e73756666696369656e7420616c6c6f77616e63650000006044820152606401610c12565b611b298484848403611937565b50505050565b60075460ff1615611b775760405162461bcd60e51b815260206004820152601260248201527110dbdb9d1c9858dd081a5cc81c185d5cd95960721b6044820152606401610c12565b6001600160a01b0383166000908152600d602052604090205460ff1680611bb657506001600160a01b0382166000908152600d602052604090205460ff165b15611bc65761105a838383611ead565b6000612710611bd761019084612b0a565b611be19190612ae8565b90506000611bef8284612b21565b9050611bfc858583611ead565b8115611c1957611c0d853084611ead565b611c1985858585612051565b5050505050565b611c286121c1565b6007805460ff191690557f5db9ee0a495bf2e6ff9c91a7834c1ba4fdd244a5e8aa4e537bd38aeae4b073aa335b6040516001600160a01b03909116815260200160405180910390a1565b600580546001600160a01b038381166001600160a01b0319831681179093556040519116919082907f8be0079c531659141344cd1fd0a4f28419497f9722a3daafe3b4186f6b6457e090600090a35050565b611ccc611d5a565b6007805460ff191660011790557f62e78cea01bee320cd4e420270b5ea74000d11b0c9f74754ebdbfc544b05a258611c553390565b600260065403611d535760405162461bcd60e51b815260206004820152601f60248201527f5265656e7472616e637947756172643a207265656e7472616e742063616c6c006044820152606401610c12565b6002600655565b60075460ff1615610d5d5760405162461bcd60e51b815260206004820152601060248201526f14185d5cd8589b194e881c185d5cd95960821b6044820152606401610c12565b600e8054906000611db083612b4a565b9091555050426014556001600160a01b0382166000908152600a60205260408120600501805491611de083612b4a565b90915550506001600160a01b038281166000908152600a6020908152604080832042600690910155600b8252822080546001810182559083529082200180546001600160a01b03191692841692909217909155611e3b6113cf565b6000818152601560205260408120828155600101805492935090611e5e83612b4a565b9091555050600e546010546040517f17d726ad382ea92487e2c4d01469c94fa17bef35e71d3f4b5414159695c038d292611ea092908252602082015260400190565b60405180910390a1505050565b6001600160a01b038316611f115760405162461bcd60e51b815260206004820152602560248201527f45524332303a207472616e736665722066726f6d20746865207a65726f206164604482015264647265737360d81b6064820152608401610c12565b6001600160a01b038216611f735760405162461bcd60e51b815260206004820152602360248201527f45524332303a207472616e7366657220746f20746865207a65726f206164647260448201526265737360e81b6064820152608401610c12565b6001600160a01b03831660009081526020819052604090205481811015611feb5760405162461bcd60e51b815260206004820152602660248201527f45524332303a207472616e7366657220616d6f756e7420657863656564732062604482015265616c616e636560d01b6064820152608401610c12565b6001600160a01b03848116600081815260208181526040808320878703905593871680835291849020805487019055925185815290927fddf252ad1be2c89b69c2b068fc378daa952ba7f163c4a11628f55a4df523b3ef910160405180910390a3611b29565b6000612710612061606485612b0a565b61206b9190612ae8565b9050600061271061207d603286612b0a565b6120879190612ae8565b90506000612710612099606487612b0a565b6120a39190612ae8565b905060006127106120b5603288612b0a565b6120bf9190612ae8565b905060006127106120d1606489612b0a565b6120db9190612ae8565b90506120e889868661220a565b6120f3838383612488565b6120fd84866129aa565b6010805460009061210f9084906129aa565b90915550504260145560006121226113cf565b905061212e85876129aa565b6000828152601560205260408120600201805490919061214f9084906129aa565b90915550506040805188815260208101889052908101869052606081018590526080810184905260a081018390526001600160a01b038b16907fd9b1dbb2fa6752182296114740731c6bd6c3fc3ae2e1638c88849e95dc19e7be9060c00160405180910390a250505050505050505050565b60075460ff16610d5d5760405162461bcd60e51b815260206004820152601460248201527314185d5cd8589b194e881b9bdd081c185d5cd95960621b6044820152606401610c12565b6001600160a01b038084166000908152600a602052604090206002810154600390910154908216911681158015906122425750600084115b156122e457612252308386611ead565b6001600160a01b0382166000908152600a60205260408120600401805486929061227d9084906129aa565b9091555050601180548591906000906122979084906129aa565b909155506122a890508460016124e7565b60408051858152600160208201526001600160a01b038085169290881691600080516020612b64833981519152910160405180910390a3612356565b8315612356576009546123029030906001600160a01b031686611ead565b83600e600501600082825461231791906129aa565b909155505060095460408051868152600160208201526001600160a01b0392831692881691600080516020612b64833981519152910160405180910390a35b6001600160a01b0381161580159061236e5750600083115b156124105761237e308285611ead565b6001600160a01b0381166000908152600a6020526040812060040180548592906123a99084906129aa565b9091555050601280548491906000906123c39084906129aa565b909155506123d490508360026124e7565b60408051848152600260208201526001600160a01b038084169290881691600080516020612b64833981519152910160405180910390a3611c19565b8215611c195760095461242e9030906001600160a01b031685611ead565b82600e600501600082825461244391906129aa565b909155505060095460408051858152600260208201526001600160a01b0392831692881691600080516020612b64833981519152910160405180910390a35050505050565b82156124ab576007546124ab90309061010090046001600160a01b031685611ead565b81156124c9576008546124c99030906001600160a01b031684611ead565b801561105a5760095461105a9030906001600160a01b031683611ead565b60006124f16113cf565b90508260156000838152602001908152602001600020600201600082825461251991906129aa565b9091555050505050565b634e487b7160e01b600052604160045260246000fd5b60006020828403121561254b57600080fd5b813567ffffffffffffffff8082111561256357600080fd5b818401915084601f83011261257757600080fd5b81358181111561258957612589612523565b604051601f8201601f19908116603f011681019083821181831017156125b1576125b1612523565b816040528281528760208487010111156125ca57600080fd5b826020860160208301376000928101602001929092525095945050505050565b6000815180845260005b81811015612610576020818501810151868301820152016125f4565b506000602082860101526020601f19601f83011685010191505092915050565b60208152600061264360208301846125ea565b9392505050565b80356001600160a01b038116811461266157600080fd5b919050565b6000806040838503121561267957600080fd5b6126828361264a565b946020939093013593505050565b6000602082840312156126a257600080fd5b6126438261264a565b60e0815260006126be60e083018a6125ea565b82810360208401526126d0818a6125ea565b6001600160a01b03988916604085015296909716606083015250608081019390935260a083019190915260c0909101529392505050565b801515811461173157600080fd5b6000806040838503121561272857600080fd5b6127318361264a565b9150602083013561274181612707565b809150509250929050565b60008060006060848603121561276157600080fd5b61276a8461264a565b92506127786020850161264a565b9150604084013590509250925092565b60006020828403121561279a57600080fd5b5035919050565b600080602083850312156127b457600080fd5b823567ffffffffffffffff808211156127cc57600080fd5b818501915085601f8301126127e057600080fd5b8135818111156127ef57600080fd5b86602082850101111561280157600080fd5b60209290920196919550909350505050565b6020808252825182820181905260009190848201906040850190845b818110156128545783516001600160a01b03168352928401929184019160010161282f565b50909695505050505050565b6020808252825182820181905260009190848201906040850190845b81811015612854576128b0838551805182526020810151602083015260408101516040830152606081015160608301525050565b928401926080929092019160010161287c565b600080604083850312156128d657600080fd5b6128df8361264a565b91506128ed6020840161264a565b90509250929050565b8151815260208083015190820152604080830151908201526060808301519082015260808101610a86565b600181811c9082168061293557607f821691505b60208210810361295557634e487b7160e01b600052602260045260246000fd5b50919050565b6020808252600f908201526e496e76616c6964206164647265737360881b604082015260600190565b8183823760009101908152919050565b634e487b7160e01b600052601160045260246000fd5b80820180821115610a8657610a86612994565b6000602082840312156129cf57600080fd5b815161264381612707565b601f82111561105a57600081815260208120601f850160051c81016020861015612a015750805b601f850160051c820191505b81811015612a2057828155600101612a0d565b505050505050565b67ffffffffffffffff831115612a4057612a40612523565b612a5483612a4e8354612921565b836129da565b6000601f841160018114612a885760008515612a705750838201355b600019600387901b1c1916600186901b178355611c19565b600083815260209020601f19861690835b82811015612ab95786850135825560209485019460019092019101612a99565b5086821015612ad65760001960f88860031b161c19848701351681555b505060018560011b0183555050505050565b600082612b0557634e487b7160e01b600052601260045260246000fd5b500490565b8082028115828204841417610a8657610a86612994565b81810381811115610a8657610a86612994565b634e487b7160e01b600052603260045260246000fd5b600060018201612b5c57612b5c612994565b506001019056fed53ea54cd361f7c49d3ca11bfcb71b4783448ade1b32513783ee19776f2adf31a26469706673582212209aed0b19470735828a2ff1af21aebfc0780ae5c6661b45ca1203c59491240bdb64736f6c63430008140033","opcodes":"PUSH1 0x80 PUSH1 0x40 MSTORE CALLVALUE DUP1 ISZERO PUSH3 0x11 JUMPI PUSH1 0x0 DUP1 REVERT JUMPDEST POP PUSH1 0x40 MLOAD PUSH3 0x31E2 CODESIZE SUB DUP1 PUSH3 0x31E2 DUP4 CODECOPY DUP2 ADD PUSH1 0x40 DUP2 SWAP1 MSTORE PUSH3 0x34 SWAP2 PUSH3 0x42F JUMP JUMPDEST PUSH1 0x40 MLOAD DUP1 PUSH1 0x40 ADD PUSH1 0x40 MSTORE DUP1 PUSH1 0xB DUP2 MSTORE PUSH1 0x20 ADD PUSH11 0x3C213AB937102A37B5B2B7 PUSH1 0xA9 SHL DUP2 MSTORE POP PUSH1 0x40 MLOAD DUP1 PUSH1 0x40 ADD PUSH1 0x40 MSTORE DUP1 PUSH1 0x5 DUP2 MSTORE PUSH1 0x20 ADD PUSH5 0x3C213AB937 PUSH1 0xD9 SHL DUP2 MSTORE POP DUP2 PUSH1 0x3 SWAP1 DUP2 PUSH3 0x87 SWAP2 SWAP1 PUSH3 0x525 JUMP JUMPDEST POP PUSH1 0x4 PUSH3 0x96 DUP3 DUP3 PUSH3 0x525 JUMP JUMPDEST POP POP POP PUSH3 0xB3 PUSH3 0xAD PUSH3 0x2F4 PUSH1 0x20 SHL PUSH1 0x20 SHR JUMP JUMPDEST PUSH3 0x2F8 JUMP JUMPDEST PUSH1 0x1 PUSH1 0x6 SSTORE PUSH1 0x7 DUP1 SLOAD PUSH1 0xFF NOT AND SWAP1 SSTORE PUSH1 0x1 PUSH1 0x1 PUSH1 0xA0 SHL SUB DUP5 AND PUSH3 0x11E JUMPI PUSH1 0x40 MLOAD PUSH3 0x461BCD PUSH1 0xE5 SHL DUP2 MSTORE PUSH1 0x20 PUSH1 0x4 DUP3 ADD MSTORE PUSH1 0x18 PUSH1 0x24 DUP3 ADD MSTORE PUSH32 0x496E76616C6964206F7065726174696F6E2077616C6C65740000000000000000 PUSH1 0x44 DUP3 ADD MSTORE PUSH1 0x64 ADD JUMPDEST PUSH1 0x40 MLOAD DUP1 SWAP2 SUB SWAP1 REVERT JUMPDEST PUSH1 0x1 PUSH1 0x1 PUSH1 0xA0 SHL SUB DUP4 AND PUSH3 0x176 JUMPI PUSH1 0x40 MLOAD PUSH3 0x461BCD PUSH1 0xE5 SHL DUP2 MSTORE PUSH1 0x20 PUSH1 0x4 DUP3 ADD MSTORE PUSH1 0x18 PUSH1 0x24 DUP3 ADD MSTORE PUSH32 0x496E76616C6964206D61726B6574696E672077616C6C65740000000000000000 PUSH1 0x44 DUP3 ADD MSTORE PUSH1 0x64 ADD PUSH3 0x115 JUMP JUMPDEST PUSH1 0x1 PUSH1 0x1 PUSH1 0xA0 SHL SUB DUP3 AND PUSH3 0x1CE JUMPI PUSH1 0x40 MLOAD PUSH3 0x461BCD PUSH1 0xE5 SHL DUP2 MSTORE PUSH1 0x20 PUSH1 0x4 DUP3 ADD MSTORE PUSH1 0x13 PUSH1 0x24 DUP3 ADD MSTORE PUSH32 0x496E76616C6964206275726E2077616C6C657400000000000000000000000000 PUSH1 0x44 DUP3 ADD MSTORE PUSH1 0x64 ADD PUSH3 0x115 JUMP JUMPDEST PUSH1 0x7 DUP1 SLOAD PUSH1 0x1 PUSH1 0x1 PUSH1 0xA0 SHL SUB DUP1 DUP8 AND PUSH2 0x100 MUL PUSH2 0x100 PUSH1 0x1 PUSH1 0xA8 SHL SUB NOT SWAP1 SWAP3 AND SWAP2 SWAP1 SWAP2 OR SWAP1 SWAP2 SSTORE PUSH1 0x8 DUP1 SLOAD DUP6 DUP4 AND PUSH1 0x1 PUSH1 0x1 PUSH1 0xA0 SHL SUB NOT SWAP2 DUP3 AND OR SWAP1 SWAP2 SSTORE PUSH1 0x9 DUP1 SLOAD SWAP3 DUP6 AND SWAP3 SWAP1 SWAP2 AND SWAP2 SWAP1 SWAP2 OR SWAP1 SSTORE PUSH3 0x229 CALLER DUP3 PUSH3 0x34A JUMP JUMPDEST PUSH1 0x1 PUSH1 0xD PUSH1 0x0 PUSH3 0x242 PUSH1 0x5 SLOAD PUSH1 0x1 PUSH1 0x1 PUSH1 0xA0 SHL SUB AND SWAP1 JUMP JUMPDEST PUSH1 0x1 PUSH1 0x1 PUSH1 0xA0 SHL SUB SWAP1 DUP2 AND DUP3 MSTORE PUSH1 0x20 DUP1 DUP4 ADD SWAP4 SWAP1 SWAP4 MSTORE PUSH1 0x40 SWAP2 DUP3 ADD PUSH1 0x0 SWAP1 DUP2 KECCAK256 DUP1 SLOAD SWAP6 ISZERO ISZERO PUSH1 0xFF NOT SWAP7 DUP8 AND OR SWAP1 SSTORE ADDRESS DUP2 MSTORE PUSH1 0xD SWAP1 SWAP4 MSTORE DUP2 DUP4 KECCAK256 DUP1 SLOAD DUP6 AND PUSH1 0x1 SWAP1 DUP2 OR SWAP1 SWAP2 SSTORE SWAP8 DUP2 AND DUP4 MSTORE DUP2 DUP4 KECCAK256 DUP1 SLOAD DUP6 AND DUP10 OR SWAP1 SSTORE SWAP6 DUP7 AND DUP3 MSTORE DUP1 DUP3 KECCAK256 DUP1 SLOAD DUP5 AND DUP9 OR SWAP1 SSTORE SWAP4 SWAP1 SWAP5 AND DUP5 MSTORE SWAP2 DUP4 KECCAK256 DUP1 SLOAD DUP4 AND DUP6 OR SWAP1 SSTORE POP PUSH2 0xDEAD SWAP1 SWAP2 MSTORE PUSH32 0xDC7FAFDC41998A74ECACB8F8BD877011ABA1F1D03A3A0D37A2E7879A393B1D6A DUP1 SLOAD SWAP1 SWAP2 AND SWAP1 SWAP2 OR SWAP1 SSTORE TIMESTAMP PUSH1 0x14 SSTORE PUSH3 0x619 JUMP JUMPDEST CALLER SWAP1 JUMP JUMPDEST PUSH1 0x5 DUP1 SLOAD PUSH1 0x1 PUSH1 0x1 PUSH1 0xA0 SHL SUB DUP4 DUP2 AND PUSH1 0x1 PUSH1 0x1 PUSH1 0xA0 SHL SUB NOT DUP4 AND DUP2 OR SWAP1 SWAP4 SSTORE PUSH1 0x40 MLOAD SWAP2 AND SWAP2 SWAP1 DUP3 SWAP1 PUSH32 0x8BE0079C531659141344CD1FD0A4F28419497F9722A3DAAFE3B4186F6B6457E0 SWAP1 PUSH1 0x0 SWAP1 LOG3 POP POP JUMP JUMPDEST PUSH1 0x1 PUSH1 0x1 PUSH1 0xA0 SHL SUB DUP3 AND PUSH3 0x3A2 JUMPI PUSH1 0x40 MLOAD PUSH3 0x461BCD PUSH1 0xE5 SHL DUP2 MSTORE PUSH1 0x20 PUSH1 0x4 DUP3 ADD MSTORE PUSH1 0x1F PUSH1 0x24 DUP3 ADD MSTORE PUSH32 0x45524332303A206D696E7420746F20746865207A65726F206164647265737300 PUSH1 0x44 DUP3 ADD MSTORE PUSH1 0x64 ADD PUSH3 0x115 JUMP JUMPDEST DUP1 PUSH1 0x2 PUSH1 0x0 DUP3 DUP3 SLOAD PUSH3 0x3B6 SWAP2 SWAP1 PUSH3 0x5F1 JUMP JUMPDEST SWAP1 SWAP2 SSTORE POP POP PUSH1 0x1 PUSH1 0x1 PUSH1 0xA0 SHL SUB DUP3 AND PUSH1 0x0 DUP2 DUP2 MSTORE PUSH1 0x20 DUP2 DUP2 MSTORE PUSH1 0x40 DUP1 DUP4 KECCAK256 DUP1 SLOAD DUP7 ADD SWAP1 SSTORE MLOAD DUP5 DUP2 MSTORE PUSH32 0xDDF252AD1BE2C89B69C2B068FC378DAA952BA7F163C4A11628F55A4DF523B3EF SWAP2 ADD PUSH1 0x40 MLOAD DUP1 SWAP2 SUB SWAP1 LOG3 POP POP JUMP JUMPDEST POP POP POP JUMP JUMPDEST DUP1 MLOAD PUSH1 0x1 PUSH1 0x1 PUSH1 0xA0 SHL SUB DUP2 AND DUP2 EQ PUSH3 0x42A JUMPI PUSH1 0x0 DUP1 REVERT JUMPDEST SWAP2 SWAP1 POP JUMP JUMPDEST PUSH1 0x0 DUP1 PUSH1 0x0 DUP1 PUSH1 0x80 DUP6 DUP8 SUB SLT ISZERO PUSH3 0x446 JUMPI PUSH1 0x0 DUP1 REVERT JUMPDEST PUSH3 0x451 DUP6 PUSH3 0x412 JUMP JUMPDEST SWAP4 POP PUSH3 0x461 PUSH1 0x20 DUP7 ADD PUSH3 0x412 JUMP JUMPDEST SWAP3 POP PUSH3 0x471 PUSH1 0x40 DUP7 ADD PUSH3 0x412 JUMP JUMPDEST PUSH1 0x60 SWAP6 SWAP1 SWAP6 ADD MLOAD SWAP4 SWAP7 SWAP3 SWAP6 POP POP POP JUMP JUMPDEST PUSH4 0x4E487B71 PUSH1 0xE0 SHL PUSH1 0x0 MSTORE PUSH1 0x41 PUSH1 0x4 MSTORE PUSH1 0x24 PUSH1 0x0 REVERT JUMPDEST PUSH1 0x1 DUP2 DUP2 SHR SWAP1 DUP3 AND DUP1 PUSH3 0x4AC JUMPI PUSH1 0x7F DUP3 AND SWAP2 POP JUMPDEST PUSH1 0x20 DUP3 LT DUP2 SUB PUSH3 0x4CD JUMPI PUSH4 0x4E487B71 PUSH1 0xE0 SHL PUSH1 0x0 MSTORE PUSH1 0x22 PUSH1 0x4 MSTORE PUSH1 0x24 PUSH1 0x0 REVERT JUMPDEST POP SWAP2 SWAP1 POP JUMP JUMPDEST PUSH1 0x1F DUP3 GT ISZERO PUSH3 0x40D JUMPI PUSH1 0x0 DUP2 DUP2 MSTORE PUSH1 0x20 DUP2 KECCAK256 PUSH1 0x1F DUP6 ADD PUSH1 0x5 SHR DUP2 ADD PUSH1 0x20 DUP7 LT ISZERO PUSH3 0x4FC JUMPI POP DUP1 JUMPDEST PUSH1 0x1F DUP6 ADD PUSH1 0x5 SHR DUP3 ADD SWAP2 POP JUMPDEST DUP2 DUP2 LT ISZERO PUSH3 0x51D JUMPI DUP3 DUP2 SSTORE PUSH1 0x1 ADD PUSH3 0x508 JUMP JUMPDEST POP POP POP POP POP POP JUMP JUMPDEST DUP2 MLOAD PUSH1 0x1 PUSH1 0x1 PUSH1 0x40 SHL SUB DUP2 GT ISZERO PUSH3 0x541 JUMPI PUSH3 0x541 PUSH3 0x481 JUMP JUMPDEST PUSH3 0x559 DUP2 PUSH3 0x552 DUP5 SLOAD PUSH3 0x497 JUMP JUMPDEST DUP5 PUSH3 0x4D3 JUMP JUMPDEST PUSH1 0x20 DUP1 PUSH1 0x1F DUP4 GT PUSH1 0x1 DUP2 EQ PUSH3 0x591 JUMPI PUSH1 0x0 DUP5 ISZERO PUSH3 0x578 JUMPI POP DUP6 DUP4 ADD MLOAD JUMPDEST PUSH1 0x0 NOT PUSH1 0x3 DUP7 SWAP1 SHL SHR NOT AND PUSH1 0x1 DUP6 SWAP1 SHL OR DUP6 SSTORE PUSH3 0x51D JUMP JUMPDEST PUSH1 0x0 DUP6 DUP2 MSTORE PUSH1 0x20 DUP2 KECCAK256 PUSH1 0x1F NOT DUP7 AND SWAP2 JUMPDEST DUP3 DUP2 LT ISZERO PUSH3 0x5C2 JUMPI DUP9 DUP7 ADD MLOAD DUP3 SSTORE SWAP5 DUP5 ADD SWAP5 PUSH1 0x1 SWAP1 SWAP2 ADD SWAP1 DUP5 ADD PUSH3 0x5A1 JUMP JUMPDEST POP DUP6 DUP3 LT ISZERO PUSH3 0x5E1 JUMPI DUP8 DUP6 ADD MLOAD PUSH1 0x0 NOT PUSH1 0x3 DUP9 SWAP1 SHL PUSH1 0xF8 AND SHR NOT AND DUP2 SSTORE JUMPDEST POP POP POP POP POP PUSH1 0x1 SWAP1 DUP2 SHL ADD SWAP1 SSTORE POP JUMP JUMPDEST DUP1 DUP3 ADD DUP1 DUP3 GT ISZERO PUSH3 0x613 JUMPI PUSH4 0x4E487B71 PUSH1 0xE0 SHL PUSH1 0x0 MSTORE PUSH1 0x11 PUSH1 0x4 MSTORE PUSH1 0x24 PUSH1 0x0 REVERT JUMPDEST SWAP3 SWAP2 POP POP JUMP JUMPDEST PUSH2 0x2BB9 DUP1 PUSH3 0x629 PUSH1 0x0 CODECOPY PUSH1 0x0 RETURN INVALID PUSH1 0x80 PUSH1 0x40 MSTORE PUSH1 0x4 CALLDATASIZE LT PUSH2 0x2B2 JUMPI PUSH1 0x0 CALLDATALOAD PUSH1 0xE0 SHR DUP1 PUSH4 0x6F7072AC GT PUSH2 0x175 JUMPI DUP1 PUSH4 0xA9059CBB GT PUSH2 0xDC JUMPI DUP1 PUSH4 0xDFE6B5D6 GT PUSH2 0x95 JUMPI DUP1 PUSH4 0xE4DC4EFC GT PUSH2 0x6F JUMPI DUP1 PUSH4 0xE4DC4EFC EQ PUSH2 0x93C JUMPI DUP1 PUSH4 0xF2FDE38B EQ PUSH2 0x9A0 JUMPI DUP1 PUSH4 0xF846A885 EQ PUSH2 0x31C JUMPI DUP1 PUSH4 0xFF638874 EQ PUSH2 0x9C0 JUMPI PUSH1 0x0 DUP1 REVERT JUMPDEST DUP1 PUSH4 0xDFE6B5D6 EQ PUSH2 0x89A JUMPI DUP1 PUSH4 0xE042AD58 EQ PUSH2 0x8EA JUMPI DUP1 PUSH4 0xE2F800D7 EQ PUSH2 0x90F JUMPI PUSH1 0x0 DUP1 REVERT JUMPDEST DUP1 PUSH4 0xA9059CBB EQ PUSH2 0x7C8 JUMPI DUP1 PUSH4 0xB1A1053E EQ PUSH2 0x7E8 JUMPI DUP1 PUSH4 0xBD3EC0B7 EQ PUSH2 0x808 JUMPI DUP1 PUSH4 0xD1ECFC68 EQ PUSH2 0x81D JUMPI DUP1 PUSH4 0xD5970396 EQ PUSH2 0x84D JUMPI DUP1 PUSH4 0xDD62ED3E EQ PUSH2 0x87A JUMPI PUSH1 0x0 DUP1 REVERT JUMPDEST DUP1 PUSH4 0x8456CB59 GT PUSH2 0x12E JUMPI DUP1 PUSH4 0x8456CB59 EQ PUSH2 0x740 JUMPI DUP1 PUSH4 0x8DA5CB5B EQ PUSH2 0x755 JUMPI DUP1 PUSH4 0x95CCEA67 EQ PUSH2 0x773 JUMPI DUP1 PUSH4 0x95D89B41 EQ PUSH2 0x793 JUMPI DUP1 PUSH4 0x9ED1879F EQ PUSH2 0x31C JUMPI DUP1 PUSH4 0xA457C2D7 EQ PUSH2 0x7A8 JUMPI PUSH1 0x0 DUP1 REVERT JUMPDEST DUP1 PUSH4 0x6F7072AC EQ PUSH2 0x652 JUMPI DUP1 PUSH4 0x70A08231 EQ PUSH2 0x672 JUMPI DUP1 PUSH4 0x715018A6 EQ PUSH2 0x6A8 JUMPI DUP1 PUSH4 0x73F25964 EQ PUSH2 0x6BD JUMPI DUP1 PUSH4 0x744586A5 EQ PUSH2 0x6F3 JUMPI DUP1 PUSH4 0x75F0A874 EQ PUSH2 0x720 JUMPI PUSH1 0x0 DUP1 REVERT JUMPDEST DUP1 PUSH4 0x28E7CEF5 GT PUSH2 0x219 JUMPI DUP1 PUSH4 0x3F4BA83A GT PUSH2 0x1D2 JUMPI DUP1 PUSH4 0x3F4BA83A EQ PUSH2 0x564 JUMPI DUP1 PUSH4 0x3FC3FDA1 EQ PUSH2 0x579 JUMPI DUP1 PUSH4 0x4E6FD6C4 EQ PUSH2 0x599 JUMPI DUP1 PUSH4 0x5C975ABB EQ PUSH2 0x5AF JUMPI DUP1 PUSH4 0x5D098B38 EQ PUSH2 0x5C7 JUMPI DUP1 PUSH4 0x6B4169C3 EQ PUSH2 0x5E7 JUMPI PUSH1 0x0 DUP1 REVERT JUMPDEST DUP1 PUSH4 0x28E7CEF5 EQ PUSH2 0x491 JUMPI DUP1 PUSH4 0x2C489AEC EQ PUSH2 0x4A6 JUMPI DUP1 PUSH4 0x313CE567 EQ PUSH2 0x508 JUMPI DUP1 PUSH4 0x35B03086 EQ PUSH2 0x524 JUMPI DUP1 PUSH4 0x391AC473 EQ PUSH2 0x491 JUMPI DUP1 PUSH4 0x39509351 EQ PUSH2 0x544 JUMPI PUSH1 0x0 DUP1 REVERT JUMPDEST DUP1 PUSH4 0x18160DDD GT PUSH2 0x26B JUMPI DUP1 PUSH4 0x18160DDD EQ PUSH2 0x3C7 JUMPI DUP1 PUSH4 0x1959A002 EQ PUSH2 0x3DC JUMPI DUP1 PUSH4 0x1C4BA3ED EQ PUSH2 0x40F JUMPI DUP1 PUSH4 0x1DC61040 EQ PUSH2 0x431 JUMPI DUP1 PUSH4 0x21E4B590 EQ PUSH2 0x451 JUMPI DUP1 PUSH4 0x23B872DD EQ PUSH2 0x471 JUMPI PUSH1 0x0 DUP1 REVERT JUMPDEST DUP1 PUSH4 0x5453FB4 EQ PUSH2 0x2BE JUMPI DUP1 PUSH4 0x5501DEA EQ PUSH2 0x31C JUMPI DUP1 PUSH4 0x6228749 EQ PUSH2 0x33F JUMPI DUP1 PUSH4 0x6FDDE03 EQ PUSH2 0x35F JUMPI DUP1 PUSH4 0x91F5948 EQ PUSH2 0x381 JUMPI DUP1 PUSH4 0x95EA7B3 EQ PUSH2 0x397 JUMPI PUSH1 0x0 DUP1 REVERT JUMPDEST CALLDATASIZE PUSH2 0x2B9 JUMPI STOP JUMPDEST PUSH1 0x0 DUP1 REVERT JUMPDEST CALLVALUE DUP1 ISZERO PUSH2 0x2CA JUMPI PUSH1 0x0 DUP1 REVERT JUMPDEST POP PUSH2 0x2FF PUSH2 0x2D9 CALLDATASIZE PUSH1 0x4 PUSH2 0x2539 JUMP JUMPDEST DUP1 MLOAD PUSH1 0x20 DUP2 DUP4 ADD DUP2 ADD DUP1 MLOAD PUSH1 0xC DUP3 MSTORE SWAP3 DUP3 ADD SWAP2 SWAP1 SWAP4 ADD KECCAK256 SWAP2 MSTORE SLOAD PUSH1 0x1 PUSH1 0x1 PUSH1 0xA0 SHL SUB AND DUP2 JUMP JUMPDEST PUSH1 0x40 MLOAD PUSH1 0x1 PUSH1 0x1 PUSH1 0xA0 SHL SUB SWAP1 SWAP2 AND DUP2 MSTORE PUSH1 0x20 ADD JUMPDEST PUSH1 0x40 MLOAD DUP1 SWAP2 SUB SWAP1 RETURN JUMPDEST CALLVALUE DUP1 ISZERO PUSH2 0x328 JUMPI PUSH1 0x0 DUP1 REVERT JUMPDEST POP PUSH2 0x331 PUSH1 0x64 DUP2 JUMP JUMPDEST PUSH1 0x40 MLOAD SWAP1 DUP2 MSTORE PUSH1 0x20 ADD PUSH2 0x313 JUMP JUMPDEST CALLVALUE DUP1 ISZERO PUSH2 0x34B JUMPI PUSH1 0x0 DUP1 REVERT JUMPDEST POP PUSH1 0x9 SLOAD PUSH2 0x2FF SWAP1 PUSH1 0x1 PUSH1 0x1 PUSH1 0xA0 SHL SUB AND DUP2 JUMP JUMPDEST CALLVALUE DUP1 ISZERO PUSH2 0x36B JUMPI PUSH1 0x0 DUP1 REVERT JUMPDEST POP PUSH2 0x374 PUSH2 0x9E0 JUMP JUMPDEST PUSH1 0x40 MLOAD PUSH2 0x313 SWAP2 SWAP1 PUSH2 0x2630 JUMP JUMPDEST CALLVALUE DUP1 ISZERO PUSH2 0x38D JUMPI PUSH1 0x0 DUP1 REVERT JUMPDEST POP PUSH2 0x331 PUSH2 0x190 DUP2 JUMP JUMPDEST CALLVALUE DUP1 ISZERO PUSH2 0x3A3 JUMPI PUSH1 0x0 DUP1 REVERT JUMPDEST POP PUSH2 0x3B7 PUSH2 0x3B2 CALLDATASIZE PUSH1 0x4 PUSH2 0x2666 JUMP JUMPDEST PUSH2 0xA72 JUMP JUMPDEST PUSH1 0x40 MLOAD SWAP1 ISZERO ISZERO DUP2 MSTORE PUSH1 0x20 ADD PUSH2 0x313 JUMP JUMPDEST CALLVALUE DUP1 ISZERO PUSH2 0x3D3 JUMPI PUSH1 0x0 DUP1 REVERT JUMPDEST POP PUSH1 0x2 SLOAD PUSH2 0x331 JUMP JUMPDEST CALLVALUE DUP1 ISZERO PUSH2 0x3E8 JUMPI PUSH1 0x0 DUP1 REVERT JUMPDEST POP PUSH2 0x3FC PUSH2 0x3F7 CALLDATASIZE PUSH1 0x4 PUSH2 0x2690 JUMP JUMPDEST PUSH2 0xA8C JUMP JUMPDEST PUSH1 0x40 MLOAD PUSH2 0x313 SWAP8 SWAP7 SWAP6 SWAP5 SWAP4 SWAP3 SWAP2 SWAP1 PUSH2 0x26AB JUMP JUMPDEST CALLVALUE DUP1 ISZERO PUSH2 0x41B JUMPI PUSH1 0x0 DUP1 REVERT JUMPDEST POP PUSH2 0x42F PUSH2 0x42A CALLDATASIZE PUSH1 0x4 PUSH2 0x2690 JUMP JUMPDEST PUSH2 0xBE4 JUMP JUMPDEST STOP JUMPDEST CALLVALUE DUP1 ISZERO PUSH2 0x43D JUMPI PUSH1 0x0 DUP1 REVERT JUMPDEST POP PUSH2 0x42F PUSH2 0x44C CALLDATASIZE PUSH1 0x4 PUSH2 0x2715 JUMP JUMPDEST PUSH2 0xC3D JUMP JUMPDEST CALLVALUE DUP1 ISZERO PUSH2 0x45D JUMPI PUSH1 0x0 DUP1 REVERT JUMPDEST POP PUSH2 0x42F PUSH2 0x46C CALLDATASIZE PUSH1 0x4 PUSH2 0x2690 JUMP JUMPDEST PUSH2 0xC70 JUMP JUMPDEST CALLVALUE DUP1 ISZERO PUSH2 0x47D JUMPI PUSH1 0x0 DUP1 REVERT JUMPDEST POP PUSH2 0x3B7 PUSH2 0x48C CALLDATASIZE PUSH1 0x4 PUSH2 0x274C JUMP JUMPDEST PUSH2 0xCC6 JUMP JUMPDEST CALLVALUE DUP1 ISZERO PUSH2 0x49D JUMPI PUSH1 0x0 DUP1 REVERT JUMPDEST POP PUSH2 0x331 PUSH1 0x32 DUP2 JUMP JUMPDEST CALLVALUE DUP1 ISZERO PUSH2 0x4B2 JUMPI PUSH1 0x0 DUP1 REVERT JUMPDEST POP PUSH2 0x4E8 PUSH2 0x4C1 CALLDATASIZE PUSH1 0x4 PUSH2 0x2788 JUMP JUMPDEST PUSH1 0x15 PUSH1 0x20 MSTORE PUSH1 0x0 SWAP1 DUP2 MSTORE PUSH1 0x40 SWAP1 KECCAK256 DUP1 SLOAD PUSH1 0x1 DUP3 ADD SLOAD PUSH1 0x2 DUP4 ADD SLOAD PUSH1 0x3 SWAP1 SWAP4 ADD SLOAD SWAP2 SWAP3 SWAP1 SWAP2 DUP5 JUMP JUMPDEST PUSH1 0x40 DUP1 MLOAD SWAP5 DUP6 MSTORE PUSH1 0x20 DUP6 ADD SWAP4 SWAP1 SWAP4 MSTORE SWAP2 DUP4 ADD MSTORE PUSH1 0x60 DUP3 ADD MSTORE PUSH1 0x80 ADD PUSH2 0x313 JUMP JUMPDEST CALLVALUE DUP1 ISZERO PUSH2 0x514 JUMPI PUSH1 0x0 DUP1 REVERT JUMPDEST POP PUSH1 0x40 MLOAD PUSH1 0x12 DUP2 MSTORE PUSH1 0x20 ADD PUSH2 0x313 JUMP JUMPDEST CALLVALUE DUP1 ISZERO PUSH2 0x530 JUMPI PUSH1 0x0 DUP1 REVERT JUMPDEST POP PUSH2 0x3B7 PUSH2 0x53F CALLDATASIZE PUSH1 0x4 PUSH2 0x27A1 JUMP JUMPDEST PUSH2 0xCEA JUMP JUMPDEST CALLVALUE DUP1 ISZERO PUSH2 0x550 JUMPI PUSH1 0x0 DUP1 REVERT JUMPDEST POP PUSH2 0x3B7 PUSH2 0x55F CALLDATASIZE PUSH1 0x4 PUSH2 0x2666 JUMP JUMPDEST PUSH2 0xD2B JUMP JUMPDEST CALLVALUE DUP1 ISZERO PUSH2 0x570 JUMPI PUSH1 0x0 DUP1 REVERT JUMPDEST POP PUSH2 0x42F PUSH2 0xD4D JUMP JUMPDEST CALLVALUE DUP1 ISZERO PUSH2 0x585 JUMPI PUSH1 0x0 DUP1 REVERT JUMPDEST POP PUSH2 0x2FF PUSH2 0x594 CALLDATASIZE PUSH1 0x4 PUSH2 0x2666 JUMP JUMPDEST PUSH2 0xD5F JUMP JUMPDEST CALLVALUE DUP1 ISZERO PUSH2 0x5A5 JUMPI PUSH1 0x0 DUP1 REVERT JUMPDEST POP PUSH2 0x2FF PUSH2 0xDEAD DUP2 JUMP JUMPDEST CALLVALUE DUP1 ISZERO PUSH2 0x5BB JUMPI PUSH1 0x0 DUP1 REVERT JUMPDEST POP PUSH1 0x7 SLOAD PUSH1 0xFF AND PUSH2 0x3B7 JUMP JUMPDEST CALLVALUE DUP1 ISZERO PUSH2 0x5D3 JUMPI PUSH1 0x0 DUP1 REVERT JUMPDEST POP PUSH2 0x42F PUSH2 0x5E2 CALLDATASIZE PUSH1 0x4 PUSH2 0x2690 JUMP JUMPDEST PUSH2 0xD97 JUMP JUMPDEST CALLVALUE DUP1 ISZERO PUSH2 0x5F3 JUMPI PUSH1 0x0 DUP1 REVERT JUMPDEST POP PUSH2 0x5FC PUSH2 0xDE7 JUMP JUMPDEST PUSH1 0x40 MLOAD PUSH2 0x313 SWAP2 SWAP1 PUSH1 0x0 PUSH1 0xE0 DUP3 ADD SWAP1 POP DUP3 MLOAD DUP3 MSTORE PUSH1 0x20 DUP4 ADD MLOAD PUSH1 0x20 DUP4 ADD MSTORE PUSH1 0x40 DUP4 ADD MLOAD PUSH1 0x40 DUP4 ADD MSTORE PUSH1 0x60 DUP4 ADD MLOAD PUSH1 0x60 DUP4 ADD MSTORE PUSH1 0x80 DUP4 ADD MLOAD PUSH1 0x80 DUP4 ADD MSTORE PUSH1 0xA0 DUP4 ADD MLOAD PUSH1 0xA0 DUP4 ADD MSTORE PUSH1 0xC0 DUP4 ADD MLOAD PUSH1 0xC0 DUP4 ADD MSTORE SWAP3 SWAP2 POP POP JUMP JUMPDEST CALLVALUE DUP1 ISZERO PUSH2 0x65E JUMPI PUSH1 0x0 DUP1 REVERT JUMPDEST POP PUSH2 0x2FF PUSH2 0x66D CALLDATASIZE PUSH1 0x4 PUSH2 0x27A1 JUMP JUMPDEST PUSH2 0xE6C JUMP JUMPDEST CALLVALUE DUP1 ISZERO PUSH2 0x67E JUMPI PUSH1 0x0 DUP1 REVERT JUMPDEST POP PUSH2 0x331 PUSH2 0x68D CALLDATASIZE PUSH1 0x4 PUSH2 0x2690 JUMP JUMPDEST PUSH1 0x1 PUSH1 0x1 PUSH1 0xA0 SHL SUB AND PUSH1 0x0 SWAP1 DUP2 MSTORE PUSH1 0x20 DUP2 SWAP1 MSTORE PUSH1 0x40 SWAP1 KECCAK256 SLOAD SWAP1 JUMP JUMPDEST CALLVALUE DUP1 ISZERO PUSH2 0x6B4 JUMPI PUSH1 0x0 DUP1 REVERT JUMPDEST POP PUSH2 0x42F PUSH2 0xEA1 JUMP JUMPDEST CALLVALUE DUP1 ISZERO PUSH2 0x6C9 JUMPI PUSH1 0x0 DUP1 REVERT JUMPDEST POP PUSH2 0x331 PUSH2 0x6D8 CALLDATASIZE PUSH1 0x4 PUSH2 0x2690 JUMP JUMPDEST PUSH1 0x1 PUSH1 0x1 PUSH1 0xA0 SHL SUB AND PUSH1 0x0 SWAP1 DUP2 MSTORE PUSH1 0xB PUSH1 0x20 MSTORE PUSH1 0x40 SWAP1 KECCAK256 SLOAD SWAP1 JUMP JUMPDEST CALLVALUE DUP1 ISZERO PUSH2 0x6FF JUMPI PUSH1 0x0 DUP1 REVERT JUMPDEST POP PUSH2 0x713 PUSH2 0x70E CALLDATASIZE PUSH1 0x4 PUSH2 0x2690 JUMP JUMPDEST PUSH2 0xEB3 JUMP JUMPDEST PUSH1 0x40 MLOAD PUSH2 0x313 SWAP2 SWAP1 PUSH2 0x2813 JUMP JUMPDEST CALLVALUE DUP1 ISZERO PUSH2 0x72C JUMPI PUSH1 0x0 DUP1 REVERT JUMPDEST POP PUSH1 0x8 SLOAD PUSH2 0x2FF SWAP1 PUSH1 0x1 PUSH1 0x1 PUSH1 0xA0 SHL SUB AND DUP2 JUMP JUMPDEST CALLVALUE DUP1 ISZERO PUSH2 0x74C JUMPI PUSH1 0x0 DUP1 REVERT JUMPDEST POP PUSH2 0x42F PUSH2 0xF29 JUMP JUMPDEST CALLVALUE DUP1 ISZERO PUSH2 0x761 JUMPI PUSH1 0x0 DUP1 REVERT JUMPDEST POP PUSH1 0x5 SLOAD PUSH1 0x1 PUSH1 0x1 PUSH1 0xA0 SHL SUB AND PUSH2 0x2FF JUMP JUMPDEST CALLVALUE DUP1 ISZERO PUSH2 0x77F JUMPI PUSH1 0x0 DUP1 REVERT JUMPDEST POP PUSH2 0x42F PUSH2 0x78E CALLDATASIZE PUSH1 0x4 PUSH2 0x2666 JUMP JUMPDEST PUSH2 0xF39 JUMP JUMPDEST CALLVALUE DUP1 ISZERO PUSH2 0x79F JUMPI PUSH1 0x0 DUP1 REVERT JUMPDEST POP PUSH2 0x374 PUSH2 0x105F JUMP JUMPDEST CALLVALUE DUP1 ISZERO PUSH2 0x7B4 JUMPI PUSH1 0x0 DUP1 REVERT JUMPDEST POP PUSH2 0x3B7 PUSH2 0x7C3 CALLDATASIZE PUSH1 0x4 PUSH2 0x2666 JUMP JUMPDEST PUSH2 0x106E JUMP JUMPDEST CALLVALUE DUP1 ISZERO PUSH2 0x7D4 JUMPI PUSH1 0x0 DUP1 REVERT JUMPDEST POP PUSH2 0x3B7 PUSH2 0x7E3 CALLDATASIZE PUSH1 0x4 PUSH2 0x2666 JUMP JUMPDEST PUSH2 0x10E9 JUMP JUMPDEST CALLVALUE DUP1 ISZERO PUSH2 0x7F4 JUMPI PUSH1 0x0 DUP1 REVERT JUMPDEST POP PUSH2 0x42F PUSH2 0x803 CALLDATASIZE PUSH1 0x4 PUSH2 0x27A1 JUMP JUMPDEST PUSH2 0x10F7 JUMP JUMPDEST CALLVALUE DUP1 ISZERO PUSH2 0x814 JUMPI PUSH1 0x0 DUP1 REVERT JUMPDEST POP PUSH2 0x331 PUSH2 0x13CF JUMP JUMPDEST CALLVALUE DUP1 ISZERO PUSH2 0x829 JUMPI PUSH1 0x0 DUP1 REVERT JUMPDEST POP PUSH2 0x3B7 PUSH2 0x838 CALLDATASIZE PUSH1 0x4 PUSH2 0x2690 JUMP JUMPDEST PUSH1 0xD PUSH1 0x20 MSTORE PUSH1 0x0 SWAP1 DUP2 MSTORE PUSH1 0x40 SWAP1 KECCAK256 SLOAD PUSH1 0xFF AND DUP2 JUMP JUMPDEST CALLVALUE DUP1 ISZERO PUSH2 0x859 JUMPI PUSH1 0x0 DUP1 REVERT JUMPDEST POP PUSH2 0x86D PUSH2 0x868 CALLDATASIZE PUSH1 0x4 PUSH2 0x2788 JUMP JUMPDEST PUSH2 0x13FD JUMP JUMPDEST PUSH1 0x40 MLOAD PUSH2 0x313 SWAP2 SWAP1 PUSH2 0x2860 JUMP JUMPDEST CALLVALUE DUP1 ISZERO PUSH2 0x886 JUMPI PUSH1 0x0 DUP1 REVERT JUMPDEST POP PUSH2 0x331 PUSH2 0x895 CALLDATASIZE PUSH1 0x4 PUSH2 0x28C3 JUMP JUMPDEST PUSH2 0x1589 JUMP JUMPDEST CALLVALUE DUP1 ISZERO PUSH2 0x8A6 JUMPI PUSH1 0x0 DUP1 REVERT JUMPDEST POP PUSH2 0x8AF PUSH2 0x15B4 JUMP JUMPDEST PUSH1 0x40 DUP1 MLOAD SWAP9 DUP10 MSTORE PUSH1 0x20 DUP10 ADD SWAP8 SWAP1 SWAP8 MSTORE SWAP6 DUP8 ADD SWAP5 SWAP1 SWAP5 MSTORE PUSH1 0x60 DUP7 ADD SWAP3 SWAP1 SWAP3 MSTORE PUSH1 0x80 DUP6 ADD MSTORE PUSH1 0xA0 DUP5 ADD MSTORE PUSH1 0xC0 DUP4 ADD MSTORE PUSH1 0xE0 DUP3 ADD MSTORE PUSH2 0x100 ADD PUSH2 0x313 JUMP JUMPDEST CALLVALUE DUP1 ISZERO PUSH2 0x8F6 JUMPI PUSH1 0x0 DUP1 REVERT JUMPDEST POP PUSH1 0x7 SLOAD PUSH2 0x2FF SWAP1 PUSH2 0x100 SWAP1 DIV PUSH1 0x1 PUSH1 0x1 PUSH1 0xA0 SHL SUB AND DUP2 JUMP JUMPDEST CALLVALUE DUP1 ISZERO PUSH2 0x91B JUMPI PUSH1 0x0 DUP1 REVERT JUMPDEST POP PUSH2 0x92F PUSH2 0x92A CALLDATASIZE PUSH1 0x4 PUSH2 0x2788 JUMP JUMPDEST PUSH2 0x164B JUMP JUMPDEST PUSH1 0x40 MLOAD PUSH2 0x313 SWAP2 SWAP1 PUSH2 0x28F6 JUMP JUMPDEST CALLVALUE DUP1 ISZERO PUSH2 0x948 JUMPI PUSH1 0x0 DUP1 REVERT JUMPDEST POP PUSH1 0xE SLOAD PUSH1 0xF SLOAD PUSH1 0x10 SLOAD PUSH1 0x11 SLOAD PUSH1 0x12 SLOAD PUSH1 0x13 SLOAD PUSH1 0x14 SLOAD PUSH2 0x96B SWAP7 SWAP6 SWAP5 SWAP4 SWAP3 SWAP2 SWAP1 DUP8 JUMP JUMPDEST PUSH1 0x40 DUP1 MLOAD SWAP8 DUP9 MSTORE PUSH1 0x20 DUP9 ADD SWAP7 SWAP1 SWAP7 MSTORE SWAP5 DUP7 ADD SWAP4 SWAP1 SWAP4 MSTORE PUSH1 0x60 DUP6 ADD SWAP2 SWAP1 SWAP2 MSTORE PUSH1 0x80 DUP5 ADD MSTORE PUSH1 0xA0 DUP4 ADD MSTORE PUSH1 0xC0 DUP3 ADD MSTORE PUSH1 0xE0 ADD PUSH2 0x313 JUMP JUMPDEST CALLVALUE DUP1 ISZERO PUSH2 0x9AC JUMPI PUSH1 0x0 DUP1 REVERT JUMPDEST POP PUSH2 0x42F PUSH2 0x9BB CALLDATASIZE PUSH1 0x4 PUSH2 0x2690 JUMP JUMPDEST PUSH2 0x16BB JUMP JUMPDEST CALLVALUE DUP1 ISZERO PUSH2 0x9CC JUMPI PUSH1 0x0 DUP1 REVERT JUMPDEST POP PUSH2 0x42F PUSH2 0x9DB CALLDATASIZE PUSH1 0x4 PUSH2 0x27A1 JUMP JUMPDEST PUSH2 0x1734 JUMP JUMPDEST PUSH1 0x60 PUSH1 0x3 DUP1 SLOAD PUSH2 0x9EF SWAP1 PUSH2 0x2921 JUMP JUMPDEST DUP1 PUSH1 0x1F ADD PUSH1 0x20 DUP1 SWAP2 DIV MUL PUSH1 0x20 ADD PUSH1 0x40 MLOAD SWAP1 DUP2 ADD PUSH1 0x40 MSTORE DUP1 SWAP3 SWAP2 SWAP1 DUP2 DUP2 MSTORE PUSH1 0x20 ADD DUP3 DUP1 SLOAD PUSH2 0xA1B SWAP1 PUSH2 0x2921 JUMP JUMPDEST DUP1 ISZERO PUSH2 0xA68 JUMPI DUP1 PUSH1 0x1F LT PUSH2 0xA3D JUMPI PUSH2 0x100 DUP1 DUP4 SLOAD DIV MUL DUP4 MSTORE SWAP2 PUSH1 0x20 ADD SWAP2 PUSH2 0xA68 JUMP JUMPDEST DUP3 ADD SWAP2 SWAP1 PUSH1 0x0 MSTORE PUSH1 0x20 PUSH1 0x0 KECCAK256 SWAP1 JUMPDEST DUP2 SLOAD DUP2 MSTORE SWAP1 PUSH1 0x1 ADD SWAP1 PUSH1 0x20 ADD DUP1 DUP4 GT PUSH2 0xA4B JUMPI DUP3 SWAP1 SUB PUSH1 0x1F AND DUP3 ADD SWAP2 JUMPDEST POP POP POP POP POP SWAP1 POP SWAP1 JUMP JUMPDEST PUSH1 0x0 CALLER PUSH2 0xA80 DUP2 DUP6 DUP6 PUSH2 0x1937 JUMP JUMPDEST PUSH1 0x1 SWAP2 POP POP JUMPDEST SWAP3 SWAP2 POP POP JUMP JUMPDEST PUSH1 0xA PUSH1 0x20 MSTORE PUSH1 0x0 SWAP1 DUP2 MSTORE PUSH1 0x40 SWAP1 KECCAK256 DUP1 SLOAD DUP2 SWAP1 PUSH2 0xAA7 SWAP1 PUSH2 0x2921 JUMP JUMPDEST DUP1 PUSH1 0x1F ADD PUSH1 0x20 DUP1 SWAP2 DIV MUL PUSH1 0x20 ADD PUSH1 0x40 MLOAD SWAP1 DUP2 ADD PUSH1 0x40 MSTORE DUP1 SWAP3 SWAP2 SWAP1 DUP2 DUP2 MSTORE PUSH1 0x20 ADD DUP3 DUP1 SLOAD PUSH2 0xAD3 SWAP1 PUSH2 0x2921 JUMP JUMPDEST DUP1 ISZERO PUSH2 0xB20 JUMPI DUP1 PUSH1 0x1F LT PUSH2 0xAF5 JUMPI PUSH2 0x100 DUP1 DUP4 SLOAD DIV MUL DUP4 MSTORE SWAP2 PUSH1 0x20 ADD SWAP2 PUSH2 0xB20 JUMP JUMPDEST DUP3 ADD SWAP2 SWAP1 PUSH1 0x0 MSTORE PUSH1 0x20 PUSH1 0x0 KECCAK256 SWAP1 JUMPDEST DUP2 SLOAD DUP2 MSTORE SWAP1 PUSH1 0x1 ADD SWAP1 PUSH1 0x20 ADD DUP1 DUP4 GT PUSH2 0xB03 JUMPI DUP3 SWAP1 SUB PUSH1 0x1F AND DUP3 ADD SWAP2 JUMPDEST POP POP POP POP POP SWAP1 DUP1 PUSH1 0x1 ADD DUP1 SLOAD PUSH2 0xB35 SWAP1 PUSH2 0x2921 JUMP JUMPDEST DUP1 PUSH1 0x1F ADD PUSH1 0x20 DUP1 SWAP2 DIV MUL PUSH1 0x20 ADD PUSH1 0x40 MLOAD SWAP1 DUP2 ADD PUSH1 0x40 MSTORE DUP1 SWAP3 SWAP2 SWAP1 DUP2 DUP2 MSTORE PUSH1 0x20 ADD DUP3 DUP1 SLOAD PUSH2 0xB61 SWAP1 PUSH2 0x2921 JUMP JUMPDEST DUP1 ISZERO PUSH2 0xBAE JUMPI DUP1 PUSH1 0x1F LT PUSH2 0xB83 JUMPI PUSH2 0x100 DUP1 DUP4 SLOAD DIV MUL DUP4 MSTORE SWAP2 PUSH1 0x20 ADD SWAP2 PUSH2 0xBAE JUMP JUMPDEST DUP3 ADD SWAP2 SWAP1 PUSH1 0x0 MSTORE PUSH1 0x20 PUSH1 0x0 KECCAK256 SWAP1 JUMPDEST DUP2 SLOAD DUP2 MSTORE SWAP1 PUSH1 0x1 ADD SWAP1 PUSH1 0x20 ADD DUP1 DUP4 GT PUSH2 0xB91 JUMPI DUP3 SWAP1 SUB PUSH1 0x1F AND DUP3 ADD SWAP2 JUMPDEST POP POP POP PUSH1 0x2 DUP5 ADD SLOAD PUSH1 0x3 DUP6 ADD SLOAD PUSH1 0x4 DUP7 ADD SLOAD PUSH1 0x5 DUP8 ADD SLOAD PUSH1 0x6 SWAP1 SWAP8 ADD SLOAD SWAP6 SWAP7 PUSH1 0x1 PUSH1 0x1 PUSH1 0xA0 SHL SUB SWAP4 DUP5 AND SWAP7 SWAP3 SWAP1 SWAP4 AND SWAP5 POP SWAP3 POP DUP8 JUMP JUMPDEST PUSH2 0xBEC PUSH2 0x1A5B JUMP JUMPDEST PUSH1 0x1 PUSH1 0x1 PUSH1 0xA0 SHL SUB DUP2 AND PUSH2 0xC1B JUMPI PUSH1 0x40 MLOAD PUSH3 0x461BCD PUSH1 0xE5 SHL DUP2 MSTORE PUSH1 0x4 ADD PUSH2 0xC12 SWAP1 PUSH2 0x295B JUMP JUMPDEST PUSH1 0x40 MLOAD DUP1 SWAP2 SUB SWAP1 REVERT JUMPDEST PUSH1 0x9 DUP1 SLOAD PUSH1 0x1 PUSH1 0x1 PUSH1 0xA0 SHL SUB NOT AND PUSH1 0x1 PUSH1 0x1 PUSH1 0xA0 SHL SUB SWAP3 SWAP1 SWAP3 AND SWAP2 SWAP1 SWAP2 OR SWAP1 SSTORE JUMP JUMPDEST PUSH2 0xC45 PUSH2 0x1A5B JUMP JUMPDEST PUSH1 0x1 PUSH1 0x1 PUSH1 0xA0 SHL SUB SWAP2 SWAP1 SWAP2 AND PUSH1 0x0 SWAP1 DUP2 MSTORE PUSH1 0xD PUSH1 0x20 MSTORE PUSH1 0x40 SWAP1 KECCAK256 DUP1 SLOAD PUSH1 0xFF NOT AND SWAP2 ISZERO ISZERO SWAP2 SWAP1 SWAP2 OR SWAP1 SSTORE JUMP JUMPDEST PUSH2 0xC78 PUSH2 0x1A5B JUMP JUMPDEST PUSH1 0x1 PUSH1 0x1 PUSH1 0xA0 SHL SUB DUP2 AND PUSH2 0xC9E JUMPI PUSH1 0x40 MLOAD PUSH3 0x461BCD PUSH1 0xE5 SHL DUP2 MSTORE PUSH1 0x4 ADD PUSH2 0xC12 SWAP1 PUSH2 0x295B JUMP JUMPDEST PUSH1 0x7 DUP1 SLOAD PUSH1 0x1 PUSH1 0x1 PUSH1 0xA0 SHL SUB SWAP1 SWAP3 AND PUSH2 0x100 MUL PUSH2 0x100 PUSH1 0x1 PUSH1 0xA8 SHL SUB NOT SWAP1 SWAP3 AND SWAP2 SWAP1 SWAP2 OR SWAP1 SSTORE JUMP JUMPDEST PUSH1 0x0 CALLER PUSH2 0xCD4 DUP6 DUP3 DUP6 PUSH2 0x1AB5 JUMP JUMPDEST PUSH2 0xCDF DUP6 DUP6 DUP6 PUSH2 0x1B2F JUMP JUMPDEST POP PUSH1 0x1 SWAP5 SWAP4 POP POP POP POP JUMP JUMPDEST PUSH1 0x0 DUP1 PUSH1 0x1 PUSH1 0x1 PUSH1 0xA0 SHL SUB AND PUSH1 0xC DUP5 DUP5 PUSH1 0x40 MLOAD PUSH2 0xD08 SWAP3 SWAP2 SWAP1 PUSH2 0x2984 JUMP JUMPDEST SWAP1 DUP2 MSTORE PUSH1 0x40 MLOAD SWAP1 DUP2 SWAP1 SUB PUSH1 0x20 ADD SWAP1 KECCAK256 SLOAD PUSH1 0x1 PUSH1 0x1 PUSH1 0xA0 SHL SUB AND EQ ISZERO SWAP1 POP SWAP3 SWAP2 POP POP JUMP JUMPDEST PUSH1 0x0 CALLER PUSH2 0xA80 DUP2 DUP6 DUP6 PUSH2 0xD3E DUP4 DUP4 PUSH2 0x1589 JUMP JUMPDEST PUSH2 0xD48 SWAP2 SWAP1 PUSH2 0x29AA JUMP JUMPDEST PUSH2 0x1937 JUMP JUMPDEST PUSH2 0xD55 PUSH2 0x1A5B JUMP JUMPDEST PUSH2 0xD5D PUSH2 0x1C20 JUMP JUMPDEST JUMP JUMPDEST PUSH1 0xB PUSH1 0x20 MSTORE DUP2 PUSH1 0x0 MSTORE PUSH1 0x40 PUSH1 0x0 KECCAK256 DUP2 DUP2 SLOAD DUP2 LT PUSH2 0xD7B JUMPI PUSH1 0x0 DUP1 REVERT JUMPDEST PUSH1 0x0 SWAP2 DUP3 MSTORE PUSH1 0x20 SWAP1 SWAP2 KECCAK256 ADD SLOAD PUSH1 0x1 PUSH1 0x1 PUSH1 0xA0 SHL SUB AND SWAP2 POP DUP3 SWAP1 POP JUMP JUMPDEST PUSH2 0xD9F PUSH2 0x1A5B JUMP JUMPDEST PUSH1 0x1 PUSH1 0x1 PUSH1 0xA0 SHL SUB DUP2 AND PUSH2 0xDC5 JUMPI PUSH1 0x40 MLOAD PUSH3 0x461BCD PUSH1 0xE5 SHL DUP2 MSTORE PUSH1 0x4 ADD PUSH2 0xC12 SWAP1 PUSH2 0x295B JUMP JUMPDEST PUSH1 0x8 DUP1 SLOAD PUSH1 0x1 PUSH1 0x1 PUSH1 0xA0 SHL SUB NOT AND PUSH1 0x1 PUSH1 0x1 PUSH1 0xA0 SHL SUB SWAP3 SWAP1 SWAP3 AND SWAP2 SWAP1 SWAP2 OR SWAP1 SSTORE JUMP JUMPDEST PUSH2 0xE27 PUSH1 0x40 MLOAD DUP1 PUSH1 0xE0 ADD PUSH1 0x40 MSTORE DUP1 PUSH1 0x0 DUP2 MSTORE PUSH1 0x20 ADD PUSH1 0x0 DUP2 MSTORE PUSH1 0x20 ADD PUSH1 0x0 DUP2 MSTORE PUSH1 0x20 ADD PUSH1 0x0 DUP2 MSTORE PUSH1 0x20 ADD PUSH1 0x0 DUP2 MSTORE PUSH1 0x20 ADD PUSH1 0x0 DUP2 MSTORE PUSH1 0x20 ADD PUSH1 0x0 DUP2 MSTORE POP SWAP1 JUMP JUMPDEST POP PUSH1 0x40 DUP1 MLOAD PUSH1 0xE0 DUP2 ADD DUP3 MSTORE PUSH1 0xE SLOAD DUP2 MSTORE PUSH1 0xF SLOAD PUSH1 0x20 DUP3 ADD MSTORE PUSH1 0x10 SLOAD SWAP2 DUP2 ADD SWAP2 SWAP1 SWAP2 MSTORE PUSH1 0x11 SLOAD PUSH1 0x60 DUP3 ADD MSTORE PUSH1 0x12 SLOAD PUSH1 0x80 DUP3 ADD MSTORE PUSH1 0x13 SLOAD PUSH1 0xA0 DUP3 ADD MSTORE PUSH1 0x14 SLOAD PUSH1 0xC0 DUP3 ADD MSTORE SWAP1 JUMP JUMPDEST PUSH1 0x0 PUSH1 0xC DUP4 DUP4 PUSH1 0x40 MLOAD PUSH2 0xE80 SWAP3 SWAP2 SWAP1 PUSH2 0x2984 JUMP JUMPDEST SWAP1 DUP2 MSTORE PUSH1 0x40 MLOAD SWAP1 DUP2 SWAP1 SUB PUSH1 0x20 ADD SWAP1 KECCAK256 SLOAD PUSH1 0x1 PUSH1 0x1 PUSH1 0xA0 SHL SUB AND SWAP1 POP SWAP3 SWAP2 POP POP JUMP JUMPDEST PUSH2 0xEA9 PUSH2 0x1A5B JUMP JUMPDEST PUSH2 0xD5D PUSH1 0x0 PUSH2 0x1C72 JUMP JUMPDEST PUSH1 0x1 PUSH1 0x1 PUSH1 0xA0 SHL SUB DUP2 AND PUSH1 0x0 SWAP1 DUP2 MSTORE PUSH1 0xB PUSH1 0x20 SWAP1 DUP2 MSTORE PUSH1 0x40 SWAP2 DUP3 SWAP1 KECCAK256 DUP1 SLOAD DUP4 MLOAD DUP2 DUP5 MUL DUP2 ADD DUP5 ADD SWAP1 SWAP5 MSTORE DUP1 DUP5 MSTORE PUSH1 0x60 SWAP4 SWAP3 DUP4 ADD DUP3 DUP3 DUP1 ISZERO PUSH2 0xF1D JUMPI PUSH1 0x20 MUL DUP3 ADD SWAP2 SWAP1 PUSH1 0x0 MSTORE PUSH1 0x20 PUSH1 0x0 KECCAK256 SWAP1 JUMPDEST DUP2 SLOAD PUSH1 0x1 PUSH1 0x1 PUSH1 0xA0 SHL SUB AND DUP2 MSTORE PUSH1 0x1 SWAP1 SWAP2 ADD SWAP1 PUSH1 0x20 ADD DUP1 DUP4 GT PUSH2 0xEFF JUMPI JUMPDEST POP POP POP POP POP SWAP1 POP SWAP2 SWAP1 POP JUMP JUMPDEST PUSH2 0xF31 PUSH2 0x1A5B JUMP JUMPDEST PUSH2 0xD5D PUSH2 0x1CC4 JUMP JUMPDEST PUSH2 0xF41 PUSH2 0x1A5B JUMP JUMPDEST PUSH1 0x1 PUSH1 0x1 PUSH1 0xA0 SHL SUB DUP3 AND PUSH2 0xF87 JUMPI PUSH1 0x40 MLOAD PUSH3 0x461BCD PUSH1 0xE5 SHL DUP2 MSTORE PUSH1 0x20 PUSH1 0x4 DUP3 ADD MSTORE PUSH1 0xD PUSH1 0x24 DUP3 ADD MSTORE PUSH13 0x24B73B30B634B2103A37B5B2B7 PUSH1 0x99 SHL PUSH1 0x44 DUP3 ADD MSTORE PUSH1 0x64 ADD PUSH2 0xC12 JUMP JUMPDEST PUSH1 0x0 DUP2 GT PUSH2 0xFC8 JUMPI PUSH1 0x40 MLOAD PUSH3 0x461BCD PUSH1 0xE5 SHL DUP2 MSTORE PUSH1 0x20 PUSH1 0x4 DUP3 ADD MSTORE PUSH1 0xE PUSH1 0x24 DUP3 ADD MSTORE PUSH14 0x125B9D985B1A5908185B5BDD5B9D PUSH1 0x92 SHL PUSH1 0x44 DUP3 ADD MSTORE PUSH1 0x64 ADD PUSH2 0xC12 JUMP JUMPDEST DUP2 PUSH1 0x1 PUSH1 0x1 PUSH1 0xA0 SHL SUB AND PUSH4 0xA9059CBB PUSH2 0xFE9 PUSH1 0x5 SLOAD PUSH1 0x1 PUSH1 0x1 PUSH1 0xA0 SHL SUB AND SWAP1 JUMP JUMPDEST PUSH1 0x40 MLOAD PUSH1 0x1 PUSH1 0x1 PUSH1 0xE0 SHL SUB NOT PUSH1 0xE0 DUP5 SWAP1 SHL AND DUP2 MSTORE PUSH1 0x1 PUSH1 0x1 PUSH1 0xA0 SHL SUB SWAP1 SWAP2 AND PUSH1 0x4 DUP3 ADD MSTORE PUSH1 0x24 DUP2 ADD DUP5 SWAP1 MSTORE PUSH1 0x44 ADD PUSH1 0x20 PUSH1 0x40 MLOAD DUP1 DUP4 SUB DUP2 PUSH1 0x0 DUP8 GAS CALL ISZERO DUP1 ISZERO PUSH2 0x1036 JUMPI RETURNDATASIZE PUSH1 0x0 DUP1 RETURNDATACOPY RETURNDATASIZE PUSH1 0x0 REVERT JUMPDEST POP POP POP POP PUSH1 0x40 MLOAD RETURNDATASIZE PUSH1 0x1F NOT PUSH1 0x1F DUP3 ADD AND DUP3 ADD DUP1 PUSH1 0x40 MSTORE POP DUP2 ADD SWAP1 PUSH2 0x105A SWAP2 SWAP1 PUSH2 0x29BD JUMP JUMPDEST POP POP POP JUMP JUMPDEST PUSH1 0x60 PUSH1 0x4 DUP1 SLOAD PUSH2 0x9EF SWAP1 PUSH2 0x2921 JUMP JUMPDEST PUSH1 0x0 CALLER DUP2 PUSH2 0x107C DUP3 DUP7 PUSH2 0x1589 JUMP JUMPDEST SWAP1 POP DUP4 DUP2 LT ISZERO PUSH2 0x10DC JUMPI PUSH1 0x40 MLOAD PUSH3 0x461BCD PUSH1 0xE5 SHL DUP2 MSTORE PUSH1 0x20 PUSH1 0x4 DUP3 ADD MSTORE PUSH1 0x25 PUSH1 0x24 DUP3 ADD MSTORE PUSH32 0x45524332303A2064656372656173656420616C6C6F77616E63652062656C6F77 PUSH1 0x44 DUP3 ADD MSTORE PUSH5 0x207A65726F PUSH1 0xD8 SHL PUSH1 0x64 DUP3 ADD MSTORE PUSH1 0x84 ADD PUSH2 0xC12 JUMP JUMPDEST PUSH2 0xCDF DUP3 DUP7 DUP7 DUP5 SUB PUSH2 0x1937 JUMP JUMPDEST PUSH1 0x0 CALLER PUSH2 0xA80 DUP2 DUP6 DUP6 PUSH2 0x1B2F JUMP JUMPDEST PUSH2 0x10FF PUSH2 0x1D01 JUMP JUMPDEST PUSH2 0x1107 PUSH2 0x1D5A JUMP JUMPDEST PUSH1 0x6 DUP2 LT DUP1 ISZERO SWAP1 PUSH2 0x1119 JUMPI POP PUSH1 0xC DUP2 GT ISZERO JUMPDEST PUSH2 0x1165 JUMPI PUSH1 0x40 MLOAD PUSH3 0x461BCD PUSH1 0xE5 SHL DUP2 MSTORE PUSH1 0x20 PUSH1 0x4 DUP3 ADD MSTORE PUSH1 0x1E PUSH1 0x24 DUP3 ADD MSTORE PUSH32 0x436F6465206C656E677468206D75737420626520362D31322063686172730000 PUSH1 0x44 DUP3 ADD MSTORE PUSH1 0x64 ADD PUSH2 0xC12 JUMP JUMPDEST PUSH1 0x0 PUSH1 0x1 PUSH1 0x1 PUSH1 0xA0 SHL SUB AND PUSH1 0xC DUP4 DUP4 PUSH1 0x40 MLOAD PUSH2 0x1182 SWAP3 SWAP2 SWAP1 PUSH2 0x2984 JUMP JUMPDEST SWAP1 DUP2 MSTORE PUSH1 0x40 MLOAD SWAP1 DUP2 SWAP1 SUB PUSH1 0x20 ADD SWAP1 KECCAK256 SLOAD PUSH1 0x1 PUSH1 0x1 PUSH1 0xA0 SHL SUB AND SUB PUSH2 0x11DE JUMPI PUSH1 0x40 MLOAD PUSH3 0x461BCD PUSH1 0xE5 SHL DUP2 MSTORE PUSH1 0x20 PUSH1 0x4 DUP3 ADD MSTORE PUSH1 0x13 PUSH1 0x24 DUP3 ADD MSTORE PUSH19 0x10DBD91948191BD95CC81B9BDD08195E1A5CDD PUSH1 0x6A SHL PUSH1 0x44 DUP3 ADD MSTORE PUSH1 0x64 ADD PUSH2 0xC12 JUMP JUMPDEST CALLER PUSH1 0x1 PUSH1 0x1 PUSH1 0xA0 SHL SUB AND PUSH1 0xC DUP4 DUP4 PUSH1 0x40 MLOAD PUSH2 0x11FA SWAP3 SWAP2 SWAP1 PUSH2 0x2984 JUMP JUMPDEST SWAP1 DUP2 MSTORE PUSH1 0x40 MLOAD SWAP1 DUP2 SWAP1 SUB PUSH1 0x20 ADD SWAP1 KECCAK256 SLOAD PUSH1 0x1 PUSH1 0x1 PUSH1 0xA0 SHL SUB AND SUB PUSH2 0x1256 JUMPI PUSH1 0x40 MLOAD PUSH3 0x461BCD PUSH1 0xE5 SHL DUP2 MSTORE PUSH1 0x20 PUSH1 0x4 DUP3 ADD MSTORE PUSH1 0x13 PUSH1 0x24 DUP3 ADD MSTORE PUSH19 0x43616E6E6F7420757365206F776E20636F6465 PUSH1 0x68 SHL PUSH1 0x44 DUP3 ADD MSTORE PUSH1 0x64 ADD PUSH2 0xC12 JUMP JUMPDEST CALLER PUSH1 0x0 SWAP1 DUP2 MSTORE PUSH1 0xA PUSH1 0x20 MSTORE PUSH1 0x40 SWAP1 KECCAK256 PUSH1 0x1 ADD DUP1 SLOAD PUSH2 0x1273 SWAP1 PUSH2 0x2921 JUMP JUMPDEST ISZERO SWAP1 POP PUSH2 0x12C2 JUMPI PUSH1 0x40 MLOAD PUSH3 0x461BCD PUSH1 0xE5 SHL DUP2 MSTORE PUSH1 0x20 PUSH1 0x4 DUP3 ADD MSTORE PUSH1 0x1C PUSH1 0x24 DUP3 ADD MSTORE PUSH32 0x416C7265616479207573656420696E7669746174696F6E20636F646500000000 PUSH1 0x44 DUP3 ADD MSTORE PUSH1 0x64 ADD PUSH2 0xC12 JUMP JUMPDEST PUSH1 0x0 PUSH1 0xC DUP4 DUP4 PUSH1 0x40 MLOAD PUSH2 0x12D6 SWAP3 SWAP2 SWAP1 PUSH2 0x2984 JUMP JUMPDEST SWAP1 DUP2 MSTORE PUSH1 0x40 DUP1 MLOAD PUSH1 0x20 SWAP3 DUP2 SWAP1 SUB DUP4 ADD SWAP1 KECCAK256 SLOAD PUSH1 0x1 PUSH1 0x1 PUSH1 0xA0 SHL SUB SWAP1 DUP2 AND PUSH1 0x0 DUP2 DUP2 MSTORE PUSH1 0xA SWAP1 SWAP5 MSTORE DUP3 DUP5 KECCAK256 PUSH1 0x2 ADD SLOAD CALLER DUP6 MSTORE SWAP3 SWAP1 SWAP4 KECCAK256 SWAP3 SWAP4 POP AND SWAP1 PUSH1 0x1 ADD PUSH2 0x131E DUP5 DUP7 DUP4 PUSH2 0x2A28 JUMP JUMPDEST POP CALLER PUSH1 0x0 DUP2 DUP2 MSTORE PUSH1 0xA PUSH1 0x20 MSTORE PUSH1 0x40 SWAP1 KECCAK256 PUSH1 0x2 DUP2 ADD DUP1 SLOAD PUSH1 0x1 PUSH1 0x1 PUSH1 0xA0 SHL SUB DUP1 DUP8 AND PUSH1 0x1 PUSH1 0x1 PUSH1 0xA0 SHL SUB NOT SWAP3 DUP4 AND OR SWAP1 SWAP3 SSTORE PUSH1 0x3 SWAP1 SWAP3 ADD DUP1 SLOAD SWAP2 DUP6 AND SWAP2 SWAP1 SWAP3 AND OR SWAP1 SSTORE PUSH2 0x136B SWAP1 DUP4 SWAP1 PUSH2 0x1DA0 JUMP JUMPDEST DUP2 PUSH1 0x1 PUSH1 0x1 PUSH1 0xA0 SHL SUB AND CALLER PUSH1 0x1 PUSH1 0x1 PUSH1 0xA0 SHL SUB AND DUP6 DUP6 PUSH1 0x40 MLOAD PUSH2 0x138F SWAP3 SWAP2 SWAP1 PUSH2 0x2984 JUMP JUMPDEST PUSH1 0x40 MLOAD SWAP1 DUP2 SWAP1 SUB DUP2 KECCAK256 SWAP1 PUSH32 0xB85DE01F5199433D02DA991C5CD5C6932E2C8DB5F9BB4E3B9CAEA6C2C0C4491A SWAP1 PUSH1 0x0 SWAP1 LOG4 POP POP PUSH2 0x13CB PUSH1 0x1 PUSH1 0x6 SSTORE JUMP JUMPDEST POP POP JUMP JUMPDEST PUSH1 0x0 PUSH2 0x13DE PUSH3 0x15180 TIMESTAMP PUSH2 0x2AE8 JUMP JUMPDEST PUSH2 0x13EA SWAP1 PUSH2 0x2710 PUSH2 0x2B0A JUMP JUMPDEST PUSH2 0x13F8 SWAP1 PUSH4 0x12C9985 PUSH2 0x29AA JUMP JUMPDEST SWAP1 POP SWAP1 JUMP JUMPDEST PUSH1 0x60 PUSH1 0x0 DUP3 GT DUP1 ISZERO PUSH2 0x1411 JUMPI POP PUSH2 0x16D DUP3 GT ISZERO JUMPDEST PUSH2 0x144C JUMPI PUSH1 0x40 MLOAD PUSH3 0x461BCD PUSH1 0xE5 SHL DUP2 MSTORE PUSH1 0x20 PUSH1 0x4 DUP3 ADD MSTORE PUSH1 0xC PUSH1 0x24 DUP3 ADD MSTORE PUSH12 0x496E76616C69642064617973 PUSH1 0xA0 SHL PUSH1 0x44 DUP3 ADD MSTORE PUSH1 0x64 ADD PUSH2 0xC12 JUMP JUMPDEST PUSH1 0x0 DUP3 PUSH8 0xFFFFFFFFFFFFFFFF DUP2 GT ISZERO PUSH2 0x1467 JUMPI PUSH2 0x1467 PUSH2 0x2523 JUMP JUMPDEST PUSH1 0x40 MLOAD SWAP1 DUP1 DUP3 MSTORE DUP1 PUSH1 0x20 MUL PUSH1 0x20 ADD DUP3 ADD PUSH1 0x40 MSTORE DUP1 ISZERO PUSH2 0x14C3 JUMPI DUP2 PUSH1 0x20 ADD JUMPDEST PUSH2 0x14B0 PUSH1 0x40 MLOAD DUP1 PUSH1 0x80 ADD PUSH1 0x40 MSTORE DUP1 PUSH1 0x0 DUP2 MSTORE PUSH1 0x20 ADD PUSH1 0x0 DUP2 MSTORE PUSH1 0x20 ADD PUSH1 0x0 DUP2 MSTORE PUSH1 0x20 ADD PUSH1 0x0 DUP2 MSTORE POP SWAP1 JUMP JUMPDEST DUP2 MSTORE PUSH1 0x20 ADD SWAP1 PUSH1 0x1 SWAP1 SUB SWAP1 DUP2 PUSH2 0x1485 JUMPI SWAP1 POP JUMPDEST POP SWAP1 POP PUSH1 0x0 PUSH2 0x14D0 PUSH2 0x13CF JUMP JUMPDEST SWAP1 POP PUSH1 0x0 JUMPDEST DUP5 DUP2 LT ISZERO PUSH2 0x1580 JUMPI PUSH1 0x0 PUSH2 0x14E9 DUP3 DUP5 PUSH2 0x2B21 JUMP JUMPDEST SWAP1 POP PUSH1 0x15 PUSH1 0x0 DUP3 DUP2 MSTORE PUSH1 0x20 ADD SWAP1 DUP2 MSTORE PUSH1 0x20 ADD PUSH1 0x0 KECCAK256 PUSH1 0x40 MLOAD DUP1 PUSH1 0x80 ADD PUSH1 0x40 MSTORE SWAP1 DUP2 PUSH1 0x0 DUP3 ADD SLOAD DUP2 MSTORE PUSH1 0x20 ADD PUSH1 0x1 DUP3 ADD SLOAD DUP2 MSTORE PUSH1 0x20 ADD PUSH1 0x2 DUP3 ADD SLOAD DUP2 MSTORE PUSH1 0x20 ADD PUSH1 0x3 DUP3 ADD SLOAD DUP2 MSTORE POP POP DUP5 DUP4 DUP2 MLOAD DUP2 LT PUSH2 0x1543 JUMPI PUSH2 0x1543 PUSH2 0x2B34 JUMP JUMPDEST PUSH1 0x20 MUL PUSH1 0x20 ADD ADD DUP2 SWAP1 MSTORE POP DUP1 DUP5 DUP4 DUP2 MLOAD DUP2 LT PUSH2 0x1561 JUMPI PUSH2 0x1561 PUSH2 0x2B34 JUMP JUMPDEST PUSH1 0x20 SWAP1 DUP2 MUL SWAP2 SWAP1 SWAP2 ADD ADD MLOAD MSTORE POP DUP1 PUSH2 0x1578 DUP2 PUSH2 0x2B4A JUMP JUMPDEST SWAP2 POP POP PUSH2 0x14D5 JUMP JUMPDEST POP SWAP1 SWAP4 SWAP3 POP POP POP JUMP JUMPDEST PUSH1 0x1 PUSH1 0x1 PUSH1 0xA0 SHL SUB SWAP2 DUP3 AND PUSH1 0x0 SWAP1 DUP2 MSTORE PUSH1 0x1 PUSH1 0x20 SWAP1 DUP2 MSTORE PUSH1 0x40 DUP1 DUP4 KECCAK256 SWAP4 SWAP1 SWAP5 AND DUP3 MSTORE SWAP2 SWAP1 SWAP2 MSTORE KECCAK256 SLOAD SWAP1 JUMP JUMPDEST PUSH1 0x0 DUP1 PUSH1 0x0 DUP1 PUSH1 0x0 DUP1 PUSH1 0x0 DUP1 PUSH1 0xE PUSH1 0x0 ADD SLOAD PUSH1 0xE PUSH1 0x2 ADD SLOAD PUSH1 0x0 PUSH2 0x1602 PUSH1 0x7 PUSH1 0x1 SWAP1 SLOAD SWAP1 PUSH2 0x100 EXP SWAP1 DIV PUSH1 0x1 PUSH1 0x1 PUSH1 0xA0 SHL SUB AND PUSH1 0x1 PUSH1 0x1 PUSH1 0xA0 SHL SUB AND PUSH1 0x0 SWAP1 DUP2 MSTORE PUSH1 0x20 DUP2 SWAP1 MSTORE PUSH1 0x40 SWAP1 KECCAK256 SLOAD SWAP1 JUMP JUMPDEST PUSH1 0x8 SLOAD PUSH1 0x1 PUSH1 0x1 PUSH1 0xA0 SHL SUB SWAP1 DUP2 AND PUSH1 0x0 SWAP1 DUP2 MSTORE PUSH1 0x20 DUP2 SWAP1 MSTORE PUSH1 0x40 DUP1 DUP3 KECCAK256 SLOAD PUSH1 0x9 SLOAD SWAP1 SWAP4 AND DUP3 MSTORE DUP1 DUP3 KECCAK256 SLOAD ADDRESS DUP4 MSTORE SWAP2 KECCAK256 SLOAD SWAP6 SWAP15 SWAP5 SWAP14 POP SWAP3 SWAP12 POP SWAP1 SWAP10 POP SWAP8 POP SWAP6 POP SELFBALANCE SWAP5 POP SWAP1 SWAP3 POP SWAP1 POP JUMP JUMPDEST PUSH2 0x1676 PUSH1 0x40 MLOAD DUP1 PUSH1 0x80 ADD PUSH1 0x40 MSTORE DUP1 PUSH1 0x0 DUP2 MSTORE PUSH1 0x20 ADD PUSH1 0x0 DUP2 MSTORE PUSH1 0x20 ADD PUSH1 0x0 DUP2 MSTORE PUSH1 0x20 ADD PUSH1 0x0 DUP2 MSTORE POP SWAP1 JUMP JUMPDEST POP PUSH1 0x0 SWAP1 DUP2 MSTORE PUSH1 0x15 PUSH1 0x20 SWAP1 DUP2 MSTORE PUSH1 0x40 SWAP2 DUP3 SWAP1 KECCAK256 DUP3 MLOAD PUSH1 0x80 DUP2 ADD DUP5 MSTORE DUP2 SLOAD DUP2 MSTORE PUSH1 0x1 DUP3 ADD SLOAD SWAP3 DUP2 ADD SWAP3 SWAP1 SWAP3 MSTORE PUSH1 0x2 DUP2 ADD SLOAD SWAP3 DUP3 ADD SWAP3 SWAP1 SWAP3 MSTORE PUSH1 0x3 SWAP1 SWAP2 ADD SLOAD PUSH1 0x60 DUP3 ADD MSTORE SWAP1 JUMP JUMPDEST PUSH2 0x16C3 PUSH2 0x1A5B JUMP JUMPDEST PUSH1 0x1 PUSH1 0x1 PUSH1 0xA0 SHL SUB DUP2 AND PUSH2 0x1728 JUMPI PUSH1 0x40 MLOAD PUSH3 0x461BCD PUSH1 0xE5 SHL DUP2 MSTORE PUSH1 0x20 PUSH1 0x4 DUP3 ADD MSTORE PUSH1 0x26 PUSH1 0x24 DUP3 ADD MSTORE PUSH32 0x4F776E61626C653A206E6577206F776E657220697320746865207A65726F2061 PUSH1 0x44 DUP3 ADD MSTORE PUSH6 0x646472657373 PUSH1 0xD0 SHL PUSH1 0x64 DUP3 ADD MSTORE PUSH1 0x84 ADD PUSH2 0xC12 JUMP JUMPDEST PUSH2 0x1731 DUP2 PUSH2 0x1C72 JUMP JUMPDEST POP JUMP JUMPDEST PUSH2 0x173C PUSH2 0x1D01 JUMP JUMPDEST PUSH2 0x1744 PUSH2 0x1D5A JUMP JUMPDEST PUSH1 0x6 DUP2 LT DUP1 ISZERO SWAP1 PUSH2 0x1756 JUMPI POP PUSH1 0xC DUP2 GT ISZERO JUMPDEST PUSH2 0x17A2 JUMPI PUSH1 0x40 MLOAD PUSH3 0x461BCD PUSH1 0xE5 SHL DUP2 MSTORE PUSH1 0x20 PUSH1 0x4 DUP3 ADD MSTORE PUSH1 0x1E PUSH1 0x24 DUP3 ADD MSTORE PUSH32 0x436F6465206C656E677468206D75737420626520362D31322063686172730000 PUSH1 0x44 DUP3 ADD MSTORE PUSH1 0x64 ADD PUSH2 0xC12 JUMP JUMPDEST PUSH1 0x0 PUSH1 0x1 PUSH1 0x1 PUSH1 0xA0 SHL SUB AND PUSH1 0xC DUP4 DUP4 PUSH1 0x40 MLOAD PUSH2 0x17BF SWAP3 SWAP2 SWAP1 PUSH2 0x2984 JUMP JUMPDEST SWAP1 DUP2 MSTORE PUSH1 0x40 MLOAD SWAP1 DUP2 SWAP1 SUB PUSH1 0x20 ADD SWAP1 KECCAK256 SLOAD PUSH1 0x1 PUSH1 0x1 PUSH1 0xA0 SHL SUB AND EQ PUSH2 0x181B JUMPI PUSH1 0x40 MLOAD PUSH3 0x461BCD PUSH1 0xE5 SHL DUP2 MSTORE PUSH1 0x20 PUSH1 0x4 DUP3 ADD MSTORE PUSH1 0x13 PUSH1 0x24 DUP3 ADD MSTORE PUSH19 0x436F646520616C726561647920657869737473 PUSH1 0x68 SHL PUSH1 0x44 DUP3 ADD MSTORE PUSH1 0x64 ADD PUSH2 0xC12 JUMP JUMPDEST CALLER PUSH1 0x0 SWAP1 DUP2 MSTORE PUSH1 0xA PUSH1 0x20 MSTORE PUSH1 0x40 SWAP1 KECCAK256 DUP1 SLOAD PUSH2 0x1835 SWAP1 PUSH2 0x2921 JUMP JUMPDEST ISZERO SWAP1 POP PUSH2 0x1890 JUMPI PUSH1 0x40 MLOAD PUSH3 0x461BCD PUSH1 0xE5 SHL DUP2 MSTORE PUSH1 0x20 PUSH1 0x4 DUP3 ADD MSTORE PUSH1 0x23 PUSH1 0x24 DUP3 ADD MSTORE PUSH32 0x5573657220616C72656164792068617320616E20696E7669746174696F6E2063 PUSH1 0x44 DUP3 ADD MSTORE PUSH3 0x6F6465 PUSH1 0xE8 SHL PUSH1 0x64 DUP3 ADD MSTORE PUSH1 0x84 ADD PUSH2 0xC12 JUMP JUMPDEST CALLER PUSH1 0x0 SWAP1 DUP2 MSTORE PUSH1 0xA PUSH1 0x20 MSTORE PUSH1 0x40 SWAP1 KECCAK256 PUSH2 0x18AA DUP3 DUP5 DUP4 PUSH2 0x2A28 JUMP JUMPDEST POP CALLER PUSH1 0xC DUP4 DUP4 PUSH1 0x40 MLOAD PUSH2 0x18BE SWAP3 SWAP2 SWAP1 PUSH2 0x2984 JUMP JUMPDEST SWAP1 DUP2 MSTORE PUSH1 0x40 MLOAD SWAP1 DUP2 SWAP1 SUB PUSH1 0x20 ADD DUP2 KECCAK256 DUP1 SLOAD PUSH1 0x1 PUSH1 0x1 PUSH1 0xA0 SHL SUB SWAP4 SWAP1 SWAP4 AND PUSH1 0x1 PUSH1 0x1 PUSH1 0xA0 SHL SUB NOT SWAP1 SWAP4 AND SWAP3 SWAP1 SWAP3 OR SWAP1 SWAP2 SSTORE CALLER SWAP1 PUSH2 0x18FD SWAP1 DUP5 SWAP1 DUP5 SWAP1 PUSH2 0x2984 JUMP JUMPDEST PUSH1 0x40 MLOAD SWAP1 DUP2 SWAP1 SUB DUP2 KECCAK256 SWAP1 PUSH32 0xA05BBB1C92EC612F10B3899E3C47419782F5D6164B2406DDF87938E9841691B2 SWAP1 PUSH1 0x0 SWAP1 LOG3 PUSH2 0x13CB PUSH1 0x1 PUSH1 0x6 SSTORE JUMP JUMPDEST PUSH1 0x1 PUSH1 0x1 PUSH1 0xA0 SHL SUB DUP4 AND PUSH2 0x1999 JUMPI PUSH1 0x40 MLOAD PUSH3 0x461BCD PUSH1 0xE5 SHL DUP2 MSTORE PUSH1 0x20 PUSH1 0x4 DUP3 ADD MSTORE PUSH1 0x24 DUP1 DUP3 ADD MSTORE PUSH32 0x45524332303A20617070726F76652066726F6D20746865207A65726F20616464 PUSH1 0x44 DUP3 ADD MSTORE PUSH4 0x72657373 PUSH1 0xE0 SHL PUSH1 0x64 DUP3 ADD MSTORE PUSH1 0x84 ADD PUSH2 0xC12 JUMP JUMPDEST PUSH1 0x1 PUSH1 0x1 PUSH1 0xA0 SHL SUB DUP3 AND PUSH2 0x19FA JUMPI PUSH1 0x40 MLOAD PUSH3 0x461BCD PUSH1 0xE5 SHL DUP2 MSTORE PUSH1 0x20 PUSH1 0x4 DUP3 ADD MSTORE PUSH1 0x22 PUSH1 0x24 DUP3 ADD MSTORE PUSH32 0x45524332303A20617070726F766520746F20746865207A65726F206164647265 PUSH1 0x44 DUP3 ADD MSTORE PUSH2 0x7373 PUSH1 0xF0 SHL PUSH1 0x64 DUP3 ADD MSTORE PUSH1 0x84 ADD PUSH2 0xC12 JUMP JUMPDEST PUSH1 0x1 PUSH1 0x1 PUSH1 0xA0 SHL SUB DUP4 DUP2 AND PUSH1 0x0 DUP2 DUP2 MSTORE PUSH1 0x1 PUSH1 0x20 SWAP1 DUP2 MSTORE PUSH1 0x40 DUP1 DUP4 KECCAK256 SWAP5 DUP8 AND DUP1 DUP5 MSTORE SWAP5 DUP3 MSTORE SWAP2 DUP3 SWAP1 KECCAK256 DUP6 SWAP1 SSTORE SWAP1 MLOAD DUP5 DUP2 MSTORE PUSH32 0x8C5BE1E5EBEC7D5BD14F71427D1E84F3DD0314C0F7B2291E5B200AC8C7C3B925 SWAP2 ADD PUSH1 0x40 MLOAD DUP1 SWAP2 SUB SWAP1 LOG3 POP POP POP JUMP JUMPDEST PUSH1 0x5 SLOAD PUSH1 0x1 PUSH1 0x1 PUSH1 0xA0 SHL SUB AND CALLER EQ PUSH2 0xD5D JUMPI PUSH1 0x40 MLOAD PUSH3 0x461BCD PUSH1 0xE5 SHL DUP2 MSTORE PUSH1 0x20 PUSH1 0x4 DUP3 ADD DUP2 SWAP1 MSTORE PUSH1 0x24 DUP3 ADD MSTORE PUSH32 0x4F776E61626C653A2063616C6C6572206973206E6F7420746865206F776E6572 PUSH1 0x44 DUP3 ADD MSTORE PUSH1 0x64 ADD PUSH2 0xC12 JUMP JUMPDEST PUSH1 0x0 PUSH2 0x1AC1 DUP5 DUP5 PUSH2 0x1589 JUMP JUMPDEST SWAP1 POP PUSH1 0x0 NOT DUP2 EQ PUSH2 0x1B29 JUMPI DUP2 DUP2 LT ISZERO PUSH2 0x1B1C JUMPI PUSH1 0x40 MLOAD PUSH3 0x461BCD PUSH1 0xE5 SHL DUP2 MSTORE PUSH1 0x20 PUSH1 0x4 DUP3 ADD MSTORE PUSH1 0x1D PUSH1 0x24 DUP3 ADD MSTORE PUSH32 0x45524332303A20696E73756666696369656E7420616C6C6F77616E6365000000 PUSH1 0x44 DUP3 ADD MSTORE PUSH1 0x64 ADD PUSH2 0xC12 JUMP JUMPDEST PUSH2 0x1B29 DUP5 DUP5 DUP5 DUP5 SUB PUSH2 0x1937 JUMP JUMPDEST POP POP POP POP JUMP JUMPDEST PUSH1 0x7 SLOAD PUSH1 0xFF AND ISZERO PUSH2 0x1B77 JUMPI PUSH1 0x40 MLOAD PUSH3 0x461BCD PUSH1 0xE5 SHL DUP2 MSTORE PUSH1 0x20 PUSH1 0x4 DUP3 ADD MSTORE PUSH1 0x12 PUSH1 0x24 DUP3 ADD MSTORE PUSH18 0x10DBDB9D1C9858DD081A5CC81C185D5CD959 PUSH1 0x72 SHL PUSH1 0x44 DUP3 ADD MSTORE PUSH1 0x64 ADD PUSH2 0xC12 JUMP JUMPDEST PUSH1 0x1 PUSH1 0x1 PUSH1 0xA0 SHL SUB DUP4 AND PUSH1 0x0 SWAP1 DUP2 MSTORE PUSH1 0xD PUSH1 0x20 MSTORE PUSH1 0x40 SWAP1 KECCAK256 SLOAD PUSH1 0xFF AND DUP1 PUSH2 0x1BB6 JUMPI POP PUSH1 0x1 PUSH1 0x1 PUSH1 0xA0 SHL SUB DUP3 AND PUSH1 0x0 SWAP1 DUP2 MSTORE PUSH1 0xD PUSH1 0x20 MSTORE PUSH1 0x40 SWAP1 KECCAK256 SLOAD PUSH1 0xFF AND JUMPDEST ISZERO PUSH2 0x1BC6 JUMPI PUSH2 0x105A DUP4 DUP4 DUP4 PUSH2 0x1EAD JUMP JUMPDEST PUSH1 0x0 PUSH2 0x2710 PUSH2 0x1BD7 PUSH2 0x190 DUP5 PUSH2 0x2B0A JUMP JUMPDEST PUSH2 0x1BE1 SWAP2 SWAP1 PUSH2 0x2AE8 JUMP JUMPDEST SWAP1 POP PUSH1 0x0 PUSH2 0x1BEF DUP3 DUP5 PUSH2 0x2B21 JUMP JUMPDEST SWAP1 POP PUSH2 0x1BFC DUP6 DUP6 DUP4 PUSH2 0x1EAD JUMP JUMPDEST DUP2 ISZERO PUSH2 0x1C19 JUMPI PUSH2 0x1C0D DUP6 ADDRESS DUP5 PUSH2 0x1EAD JUMP JUMPDEST PUSH2 0x1C19 DUP6 DUP6 DUP6 DUP6 PUSH2 0x2051 JUMP JUMPDEST POP POP POP POP POP JUMP JUMPDEST PUSH2 0x1C28 PUSH2 0x21C1 JUMP JUMPDEST PUSH1 0x7 DUP1 SLOAD PUSH1 0xFF NOT AND SWAP1 SSTORE PUSH32 0x5DB9EE0A495BF2E6FF9C91A7834C1BA4FDD244A5E8AA4E537BD38AEAE4B073AA CALLER JUMPDEST PUSH1 0x40 MLOAD PUSH1 0x1 PUSH1 0x1 PUSH1 0xA0 SHL SUB SWAP1 SWAP2 AND DUP2 MSTORE PUSH1 0x20 ADD PUSH1 0x40 MLOAD DUP1 SWAP2 SUB SWAP1 LOG1 JUMP JUMPDEST PUSH1 0x5 DUP1 SLOAD PUSH1 0x1 PUSH1 0x1 PUSH1 0xA0 SHL SUB DUP4 DUP2 AND PUSH1 0x1 PUSH1 0x1 PUSH1 0xA0 SHL SUB NOT DUP4 AND DUP2 OR SWAP1 SWAP4 SSTORE PUSH1 0x40 MLOAD SWAP2 AND SWAP2 SWAP1 DUP3 SWAP1 PUSH32 0x8BE0079C531659141344CD1FD0A4F28419497F9722A3DAAFE3B4186F6B6457E0 SWAP1 PUSH1 0x0 SWAP1 LOG3 POP POP JUMP JUMPDEST PUSH2 0x1CCC PUSH2 0x1D5A JUMP JUMPDEST PUSH1 0x7 DUP1 SLOAD PUSH1 0xFF NOT AND PUSH1 0x1 OR SWAP1 SSTORE PUSH32 0x62E78CEA01BEE320CD4E420270B5EA74000D11B0C9F74754EBDBFC544B05A258 PUSH2 0x1C55 CALLER SWAP1 JUMP JUMPDEST PUSH1 0x2 PUSH1 0x6 SLOAD SUB PUSH2 0x1D53 JUMPI PUSH1 0x40 MLOAD PUSH3 0x461BCD PUSH1 0xE5 SHL DUP2 MSTORE PUSH1 0x20 PUSH1 0x4 DUP3 ADD MSTORE PUSH1 0x1F PUSH1 0x24 DUP3 ADD MSTORE PUSH32 0x5265656E7472616E637947756172643A207265656E7472616E742063616C6C00 PUSH1 0x44 DUP3 ADD MSTORE PUSH1 0x64 ADD PUSH2 0xC12 JUMP JUMPDEST PUSH1 0x2 PUSH1 0x6 SSTORE JUMP JUMPDEST PUSH1 0x7 SLOAD PUSH1 0xFF AND ISZERO PUSH2 0xD5D JUMPI PUSH1 0x40 MLOAD PUSH3 0x461BCD PUSH1 0xE5 SHL DUP2 MSTORE PUSH1 0x20 PUSH1 0x4 DUP3 ADD MSTORE PUSH1 0x10 PUSH1 0x24 DUP3 ADD MSTORE PUSH16 0x14185D5CD8589B194E881C185D5CD959 PUSH1 0x82 SHL PUSH1 0x44 DUP3 ADD MSTORE PUSH1 0x64 ADD PUSH2 0xC12 JUMP JUMPDEST PUSH1 0xE DUP1 SLOAD SWAP1 PUSH1 0x0 PUSH2 0x1DB0 DUP4 PUSH2 0x2B4A JUMP JUMPDEST SWAP1 SWAP2 SSTORE POP POP TIMESTAMP PUSH1 0x14 SSTORE PUSH1 0x1 PUSH1 0x1 PUSH1 0xA0 SHL SUB DUP3 AND PUSH1 0x0 SWAP1 DUP2 MSTORE PUSH1 0xA PUSH1 0x20 MSTORE PUSH1 0x40 DUP2 KECCAK256 PUSH1 0x5 ADD DUP1 SLOAD SWAP2 PUSH2 0x1DE0 DUP4 PUSH2 0x2B4A JUMP JUMPDEST SWAP1 SWAP2 SSTORE POP POP PUSH1 0x1 PUSH1 0x1 PUSH1 0xA0 SHL SUB DUP3 DUP2 AND PUSH1 0x0 SWAP1 DUP2 MSTORE PUSH1 0xA PUSH1 0x20 SWAP1 DUP2 MSTORE PUSH1 0x40 DUP1 DUP4 KECCAK256 TIMESTAMP PUSH1 0x6 SWAP1 SWAP2 ADD SSTORE PUSH1 0xB DUP3 MSTORE DUP3 KECCAK256 DUP1 SLOAD PUSH1 0x1 DUP2 ADD DUP3 SSTORE SWAP1 DUP4 MSTORE SWAP1 DUP3 KECCAK256 ADD DUP1 SLOAD PUSH1 0x1 PUSH1 0x1 PUSH1 0xA0 SHL SUB NOT AND SWAP3 DUP5 AND SWAP3 SWAP1 SWAP3 OR SWAP1 SWAP2 SSTORE PUSH2 0x1E3B PUSH2 0x13CF JUMP JUMPDEST PUSH1 0x0 DUP2 DUP2 MSTORE PUSH1 0x15 PUSH1 0x20 MSTORE PUSH1 0x40 DUP2 KECCAK256 DUP3 DUP2 SSTORE PUSH1 0x1 ADD DUP1 SLOAD SWAP3 SWAP4 POP SWAP1 PUSH2 0x1E5E DUP4 PUSH2 0x2B4A JUMP JUMPDEST SWAP1 SWAP2 SSTORE POP POP PUSH1 0xE SLOAD PUSH1 0x10 SLOAD PUSH1 0x40 MLOAD PUSH32 0x17D726AD382EA92487E2C4D01469C94FA17BEF35E71D3F4B5414159695C038D2 SWAP3 PUSH2 0x1EA0 SWAP3 SWAP1 DUP3 MSTORE PUSH1 0x20 DUP3 ADD MSTORE PUSH1 0x40 ADD SWAP1 JUMP JUMPDEST PUSH1 0x40 MLOAD DUP1 SWAP2 SUB SWAP1 LOG1 POP POP POP JUMP JUMPDEST PUSH1 0x1 PUSH1 0x1 PUSH1 0xA0 SHL SUB DUP4 AND PUSH2 0x1F11 JUMPI PUSH1 0x40 MLOAD PUSH3 0x461BCD PUSH1 0xE5 SHL DUP2 MSTORE PUSH1 0x20 PUSH1 0x4 DUP3 ADD MSTORE PUSH1 0x25 PUSH1 0x24 DUP3 ADD MSTORE PUSH32 0x45524332303A207472616E736665722066726F6D20746865207A65726F206164 PUSH1 0x44 DUP3 ADD MSTORE PUSH5 0x6472657373 PUSH1 0xD8 SHL PUSH1 0x64 DUP3 ADD MSTORE PUSH1 0x84 ADD PUSH2 0xC12 JUMP JUMPDEST PUSH1 0x1 PUSH1 0x1 PUSH1 0xA0 SHL SUB DUP3 AND PUSH2 0x1F73 JUMPI PUSH1 0x40 MLOAD PUSH3 0x461BCD PUSH1 0xE5 SHL DUP2 MSTORE PUSH1 0x20 PUSH1 0x4 DUP3 ADD MSTORE PUSH1 0x23 PUSH1 0x24 DUP3 ADD MSTORE PUSH32 0x45524332303A207472616E7366657220746F20746865207A65726F2061646472 PUSH1 0x44 DUP3 ADD MSTORE PUSH3 0x657373 PUSH1 0xE8 SHL PUSH1 0x64 DUP3 ADD MSTORE PUSH1 0x84 ADD PUSH2 0xC12 JUMP JUMPDEST PUSH1 0x1 PUSH1 0x1 PUSH1 0xA0 SHL SUB DUP4 AND PUSH1 0x0 SWAP1 DUP2 MSTORE PUSH1 0x20 DUP2 SWAP1 MSTORE PUSH1 0x40 SWAP1 KECCAK256 SLOAD DUP2 DUP2 LT ISZERO PUSH2 0x1FEB JUMPI PUSH1 0x40 MLOAD PUSH3 0x461BCD PUSH1 0xE5 SHL DUP2 MSTORE PUSH1 0x20 PUSH1 0x4 DUP3 ADD MSTORE PUSH1 0x26 PUSH1 0x24 DUP3 ADD MSTORE PUSH32 0x45524332303A207472616E7366657220616D6F756E7420657863656564732062 PUSH1 0x44 DUP3 ADD MSTORE PUSH6 0x616C616E6365 PUSH1 0xD0 SHL PUSH1 0x64 DUP3 ADD MSTORE PUSH1 0x84 ADD PUSH2 0xC12 JUMP JUMPDEST PUSH1 0x1 PUSH1 0x1 PUSH1 0xA0 SHL SUB DUP5 DUP2 AND PUSH1 0x0 DUP2 DUP2 MSTORE PUSH1 0x20 DUP2 DUP2 MSTORE PUSH1 0x40 DUP1 DUP4 KECCAK256 DUP8 DUP8 SUB SWAP1 SSTORE SWAP4 DUP8 AND DUP1 DUP4 MSTORE SWAP2 DUP5 SWAP1 KECCAK256 DUP1 SLOAD DUP8 ADD SWAP1 SSTORE SWAP3 MLOAD DUP6 DUP2 MSTORE SWAP1 SWAP3 PUSH32 0xDDF252AD1BE2C89B69C2B068FC378DAA952BA7F163C4A11628F55A4DF523B3EF SWAP2 ADD PUSH1 0x40 MLOAD DUP1 SWAP2 SUB SWAP1 LOG3 PUSH2 0x1B29 JUMP JUMPDEST PUSH1 0x0 PUSH2 0x2710 PUSH2 0x2061 PUSH1 0x64 DUP6 PUSH2 0x2B0A JUMP JUMPDEST PUSH2 0x206B SWAP2 SWAP1 PUSH2 0x2AE8 JUMP JUMPDEST SWAP1 POP PUSH1 0x0 PUSH2 0x2710 PUSH2 0x207D PUSH1 0x32 DUP7 PUSH2 0x2B0A JUMP JUMPDEST PUSH2 0x2087 SWAP2 SWAP1 PUSH2 0x2AE8 JUMP JUMPDEST SWAP1 POP PUSH1 0x0 PUSH2 0x2710 PUSH2 0x2099 PUSH1 0x64 DUP8 PUSH2 0x2B0A JUMP JUMPDEST PUSH2 0x20A3 SWAP2 SWAP1 PUSH2 0x2AE8 JUMP JUMPDEST SWAP1 POP PUSH1 0x0 PUSH2 0x2710 PUSH2 0x20B5 PUSH1 0x32 DUP9 PUSH2 0x2B0A JUMP JUMPDEST PUSH2 0x20BF SWAP2 SWAP1 PUSH2 0x2AE8 JUMP JUMPDEST SWAP1 POP PUSH1 0x0 PUSH2 0x2710 PUSH2 0x20D1 PUSH1 0x64 DUP10 PUSH2 0x2B0A JUMP JUMPDEST PUSH2 0x20DB SWAP2 SWAP1 PUSH2 0x2AE8 JUMP JUMPDEST SWAP1 POP PUSH2 0x20E8 DUP10 DUP7 DUP7 PUSH2 0x220A JUMP JUMPDEST PUSH2 0x20F3 DUP4 DUP4 DUP4 PUSH2 0x2488 JUMP JUMPDEST PUSH2 0x20FD DUP5 DUP7 PUSH2 0x29AA JUMP JUMPDEST PUSH1 0x10 DUP1 SLOAD PUSH1 0x0 SWAP1 PUSH2 0x210F SWAP1 DUP5 SWAP1 PUSH2 0x29AA JUMP JUMPDEST SWAP1 SWAP2 SSTORE POP POP TIMESTAMP PUSH1 0x14 SSTORE PUSH1 0x0 PUSH2 0x2122 PUSH2 0x13CF JUMP JUMPDEST SWAP1 POP PUSH2 0x212E DUP6 DUP8 PUSH2 0x29AA JUMP JUMPDEST PUSH1 0x0 DUP3 DUP2 MSTORE PUSH1 0x15 PUSH1 0x20 MSTORE PUSH1 0x40 DUP2 KECCAK256 PUSH1 0x2 ADD DUP1 SLOAD SWAP1 SWAP2 SWAP1 PUSH2 0x214F SWAP1 DUP5 SWAP1 PUSH2 0x29AA JUMP JUMPDEST SWAP1 SWAP2 SSTORE POP POP PUSH1 0x40 DUP1 MLOAD DUP9 DUP2 MSTORE PUSH1 0x20 DUP2 ADD DUP9 SWAP1 MSTORE SWAP1 DUP2 ADD DUP7 SWAP1 MSTORE PUSH1 0x60 DUP2 ADD DUP6 SWAP1 MSTORE PUSH1 0x80 DUP2 ADD DUP5 SWAP1 MSTORE PUSH1 0xA0 DUP2 ADD DUP4 SWAP1 MSTORE PUSH1 0x1 PUSH1 0x1 PUSH1 0xA0 SHL SUB DUP12 AND SWAP1 PUSH32 0xD9B1DBB2FA6752182296114740731C6BD6C3FC3AE2E1638C88849E95DC19E7BE SWAP1 PUSH1 0xC0 ADD PUSH1 0x40 MLOAD DUP1 SWAP2 SUB SWAP1 LOG2 POP POP POP POP POP POP POP POP POP POP JUMP JUMPDEST PUSH1 0x7 SLOAD PUSH1 0xFF AND PUSH2 0xD5D JUMPI PUSH1 0x40 MLOAD PUSH3 0x461BCD PUSH1 0xE5 SHL DUP2 MSTORE PUSH1 0x20 PUSH1 0x4 DUP3 ADD MSTORE PUSH1 0x14 PUSH1 0x24 DUP3 ADD MSTORE PUSH20 0x14185D5CD8589B194E881B9BDD081C185D5CD959 PUSH1 0x62 SHL PUSH1 0x44 DUP3 ADD MSTORE PUSH1 0x64 ADD PUSH2 0xC12 JUMP JUMPDEST PUSH1 0x1 PUSH1 0x1 PUSH1 0xA0 SHL SUB DUP1 DUP5 AND PUSH1 0x0 SWAP1 DUP2 MSTORE PUSH1 0xA PUSH1 0x20 MSTORE PUSH1 0x40 SWAP1 KECCAK256 PUSH1 0x2 DUP2 ADD SLOAD PUSH1 0x3 SWAP1 SWAP2 ADD SLOAD SWAP1 DUP3 AND SWAP2 AND DUP2 ISZERO DUP1 ISZERO SWAP1 PUSH2 0x2242 JUMPI POP PUSH1 0x0 DUP5 GT JUMPDEST ISZERO PUSH2 0x22E4 JUMPI PUSH2 0x2252 ADDRESS DUP4 DUP7 PUSH2 0x1EAD JUMP JUMPDEST PUSH1 0x1 PUSH1 0x1 PUSH1 0xA0 SHL SUB DUP3 AND PUSH1 0x0 SWAP1 DUP2 MSTORE PUSH1 0xA PUSH1 0x20 MSTORE PUSH1 0x40 DUP2 KECCAK256 PUSH1 0x4 ADD DUP1 SLOAD DUP7 SWAP3 SWAP1 PUSH2 0x227D SWAP1 DUP5 SWAP1 PUSH2 0x29AA JUMP JUMPDEST SWAP1 SWAP2 SSTORE POP POP PUSH1 0x11 DUP1 SLOAD DUP6 SWAP2 SWAP1 PUSH1 0x0 SWAP1 PUSH2 0x2297 SWAP1 DUP5 SWAP1 PUSH2 0x29AA JUMP JUMPDEST SWAP1 SWAP2 SSTORE POP PUSH2 0x22A8 SWAP1 POP DUP5 PUSH1 0x1 PUSH2 0x24E7 JUMP JUMPDEST PUSH1 0x40 DUP1 MLOAD DUP6 DUP2 MSTORE PUSH1 0x1 PUSH1 0x20 DUP3 ADD MSTORE PUSH1 0x1 PUSH1 0x1 PUSH1 0xA0 SHL SUB DUP1 DUP6 AND SWAP3 SWAP1 DUP9 AND SWAP2 PUSH1 0x0 DUP1 MLOAD PUSH1 0x20 PUSH2 0x2B64 DUP4 CODECOPY DUP2 MLOAD SWAP2 MSTORE SWAP2 ADD PUSH1 0x40 MLOAD DUP1 SWAP2 SUB SWAP1 LOG3 PUSH2 0x2356 JUMP JUMPDEST DUP4 ISZERO PUSH2 0x2356 JUMPI PUSH1 0x9 SLOAD PUSH2 0x2302 SWAP1 ADDRESS SWAP1 PUSH1 0x1 PUSH1 0x1 PUSH1 0xA0 SHL SUB AND DUP7 PUSH2 0x1EAD JUMP JUMPDEST DUP4 PUSH1 0xE PUSH1 0x5 ADD PUSH1 0x0 DUP3 DUP3 SLOAD PUSH2 0x2317 SWAP2 SWAP1 PUSH2 0x29AA JUMP JUMPDEST SWAP1 SWAP2 SSTORE POP POP PUSH1 0x9 SLOAD PUSH1 0x40 DUP1 MLOAD DUP7 DUP2 MSTORE PUSH1 0x1 PUSH1 0x20 DUP3 ADD MSTORE PUSH1 0x1 PUSH1 0x1 PUSH1 0xA0 SHL SUB SWAP3 DUP4 AND SWAP3 DUP9 AND SWAP2 PUSH1 0x0 DUP1 MLOAD PUSH1 0x20 PUSH2 0x2B64 DUP4 CODECOPY DUP2 MLOAD SWAP2 MSTORE SWAP2 ADD PUSH1 0x40 MLOAD DUP1 SWAP2 SUB SWAP1 LOG3 JUMPDEST PUSH1 0x1 PUSH1 0x1 PUSH1 0xA0 SHL SUB DUP2 AND ISZERO DUP1 ISZERO SWAP1 PUSH2 0x236E JUMPI POP PUSH1 0x0 DUP4 GT JUMPDEST ISZERO PUSH2 0x2410 JUMPI PUSH2 0x237E ADDRESS DUP3 DUP6 PUSH2 0x1EAD JUMP JUMPDEST PUSH1 0x1 PUSH1 0x1 PUSH1 0xA0 SHL SUB DUP2 AND PUSH1 0x0 SWAP1 DUP2 MSTORE PUSH1 0xA PUSH1 0x20 MSTORE PUSH1 0x40 DUP2 KECCAK256 PUSH1 0x4 ADD DUP1 SLOAD DUP6 SWAP3 SWAP1 PUSH2 0x23A9 SWAP1 DUP5 SWAP1 PUSH2 0x29AA JUMP JUMPDEST SWAP1 SWAP2 SSTORE POP POP PUSH1 0x12 DUP1 SLOAD DUP5 SWAP2 SWAP1 PUSH1 0x0 SWAP1 PUSH2 0x23C3 SWAP1 DUP5 SWAP1 PUSH2 0x29AA JUMP JUMPDEST SWAP1 SWAP2 SSTORE POP PUSH2 0x23D4 SWAP1 POP DUP4 PUSH1 0x2 PUSH2 0x24E7 JUMP JUMPDEST PUSH1 0x40 DUP1 MLOAD DUP5 DUP2 MSTORE PUSH1 0x2 PUSH1 0x20 DUP3 ADD MSTORE PUSH1 0x1 PUSH1 0x1 PUSH1 0xA0 SHL SUB DUP1 DUP5 AND SWAP3 SWAP1 DUP9 AND SWAP2 PUSH1 0x0 DUP1 MLOAD PUSH1 0x20 PUSH2 0x2B64 DUP4 CODECOPY DUP2 MLOAD SWAP2 MSTORE SWAP2 ADD PUSH1 0x40 MLOAD DUP1 SWAP2 SUB SWAP1 LOG3 PUSH2 0x1C19 JUMP JUMPDEST DUP3 ISZERO PUSH2 0x1C19 JUMPI PUSH1 0x9 SLOAD PUSH2 0x242E SWAP1 ADDRESS SWAP1 PUSH1 0x1 PUSH1 0x1 PUSH1 0xA0 SHL SUB AND DUP6 PUSH2 0x1EAD JUMP JUMPDEST DUP3 PUSH1 0xE PUSH1 0x5 ADD PUSH1 0x0 DUP3 DUP3 SLOAD PUSH2 0x2443 SWAP2 SWAP1 PUSH2 0x29AA JUMP JUMPDEST SWAP1 SWAP2 SSTORE POP POP PUSH1 0x9 SLOAD PUSH1 0x40 DUP1 MLOAD DUP6 DUP2 MSTORE PUSH1 0x2 PUSH1 0x20 DUP3 ADD MSTORE PUSH1 0x1 PUSH1 0x1 PUSH1 0xA0 SHL SUB SWAP3 DUP4 AND SWAP3 DUP9 AND SWAP2 PUSH1 0x0 DUP1 MLOAD PUSH1 0x20 PUSH2 0x2B64 DUP4 CODECOPY DUP2 MLOAD SWAP2 MSTORE SWAP2 ADD PUSH1 0x40 MLOAD DUP1 SWAP2 SUB SWAP1 LOG3 POP POP POP POP POP JUMP JUMPDEST DUP3 ISZERO PUSH2 0x24AB JUMPI PUSH1 0x7 SLOAD PUSH2 0x24AB SWAP1 ADDRESS SWAP1 PUSH2 0x100 SWAP1 DIV PUSH1 0x1 PUSH1 0x1 PUSH1 0xA0 SHL SUB AND DUP6 PUSH2 0x1EAD JUMP JUMPDEST DUP2 ISZERO PUSH2 0x24C9 JUMPI PUSH1 0x8 SLOAD PUSH2 0x24C9 SWAP1 ADDRESS SWAP1 PUSH1 0x1 PUSH1 0x1 PUSH1 0xA0 SHL SUB AND DUP5 PUSH2 0x1EAD JUMP JUMPDEST DUP1 ISZERO PUSH2 0x105A JUMPI PUSH1 0x9 SLOAD PUSH2 0x105A SWAP1 ADDRESS SWAP1 PUSH1 0x1 PUSH1 0x1 PUSH1 0xA0 SHL SUB AND DUP4 PUSH2 0x1EAD JUMP JUMPDEST PUSH1 0x0 PUSH2 0x24F1 PUSH2 0x13CF JUMP JUMPDEST SWAP1 POP DUP3 PUSH1 0x15 PUSH1 0x0 DUP4 DUP2 MSTORE PUSH1 0x20 ADD SWAP1 DUP2 MSTORE PUSH1 0x20 ADD PUSH1 0x0 KECCAK256 PUSH1 0x2 ADD PUSH1 0x0 DUP3 DUP3 SLOAD PUSH2 0x2519 SWAP2 SWAP1 PUSH2 0x29AA JUMP JUMPDEST SWAP1 SWAP2 SSTORE POP POP POP POP POP JUMP JUMPDEST PUSH4 0x4E487B71 PUSH1 0xE0 SHL PUSH1 0x0 MSTORE PUSH1 0x41 PUSH1 0x4 MSTORE PUSH1 0x24 PUSH1 0x0 REVERT JUMPDEST PUSH1 0x0 PUSH1 0x20 DUP3 DUP5 SUB SLT ISZERO PUSH2 0x254B JUMPI PUSH1 0x0 DUP1 REVERT JUMPDEST DUP2 CALLDATALOAD PUSH8 0xFFFFFFFFFFFFFFFF DUP1 DUP3 GT ISZERO PUSH2 0x2563 JUMPI PUSH1 0x0 DUP1 REVERT JUMPDEST DUP2 DUP5 ADD SWAP2 POP DUP5 PUSH1 0x1F DUP4 ADD SLT PUSH2 0x2577 JUMPI PUSH1 0x0 DUP1 REVERT JUMPDEST DUP2 CALLDATALOAD DUP2 DUP2 GT ISZERO PUSH2 0x2589 JUMPI PUSH2 0x2589 PUSH2 0x2523 JUMP JUMPDEST PUSH1 0x40 MLOAD PUSH1 0x1F DUP3 ADD PUSH1 0x1F NOT SWAP1 DUP2 AND PUSH1 0x3F ADD AND DUP2 ADD SWAP1 DUP4 DUP3 GT DUP2 DUP4 LT OR ISZERO PUSH2 0x25B1 JUMPI PUSH2 0x25B1 PUSH2 0x2523 JUMP JUMPDEST DUP2 PUSH1 0x40 MSTORE DUP3 DUP2 MSTORE DUP8 PUSH1 0x20 DUP5 DUP8 ADD ADD GT ISZERO PUSH2 0x25CA JUMPI PUSH1 0x0 DUP1 REVERT JUMPDEST DUP3 PUSH1 0x20 DUP7 ADD PUSH1 0x20 DUP4 ADD CALLDATACOPY PUSH1 0x0 SWAP3 DUP2 ADD PUSH1 0x20 ADD SWAP3 SWAP1 SWAP3 MSTORE POP SWAP6 SWAP5 POP POP POP POP POP JUMP JUMPDEST PUSH1 0x0 DUP2 MLOAD DUP1 DUP5 MSTORE PUSH1 0x0 JUMPDEST DUP2 DUP2 LT ISZERO PUSH2 0x2610 JUMPI PUSH1 0x20 DUP2 DUP6 ADD DUP2 ADD MLOAD DUP7 DUP4 ADD DUP3 ADD MSTORE ADD PUSH2 0x25F4 JUMP JUMPDEST POP PUSH1 0x0 PUSH1 0x20 DUP3 DUP7 ADD ADD MSTORE PUSH1 0x20 PUSH1 0x1F NOT PUSH1 0x1F DUP4 ADD AND DUP6 ADD ADD SWAP2 POP POP SWAP3 SWAP2 POP POP JUMP JUMPDEST PUSH1 0x20 DUP2 MSTORE PUSH1 0x0 PUSH2 0x2643 PUSH1 0x20 DUP4 ADD DUP5 PUSH2 0x25EA JUMP JUMPDEST SWAP4 SWAP3 POP POP POP JUMP JUMPDEST DUP1 CALLDATALOAD PUSH1 0x1 PUSH1 0x1 PUSH1 0xA0 SHL SUB DUP2 AND DUP2 EQ PUSH2 0x2661 JUMPI PUSH1 0x0 DUP1 REVERT JUMPDEST SWAP2 SWAP1 POP JUMP JUMPDEST PUSH1 0x0 DUP1 PUSH1 0x40 DUP4 DUP6 SUB SLT ISZERO PUSH2 0x2679 JUMPI PUSH1 0x0 DUP1 REVERT JUMPDEST PUSH2 0x2682 DUP4 PUSH2 0x264A JUMP JUMPDEST SWAP5 PUSH1 0x20 SWAP4 SWAP1 SWAP4 ADD CALLDATALOAD SWAP4 POP POP POP JUMP JUMPDEST PUSH1 0x0 PUSH1 0x20 DUP3 DUP5 SUB SLT ISZERO PUSH2 0x26A2 JUMPI PUSH1 0x0 DUP1 REVERT JUMPDEST PUSH2 0x2643 DUP3 PUSH2 0x264A JUMP JUMPDEST PUSH1 0xE0 DUP2 MSTORE PUSH1 0x0 PUSH2 0x26BE PUSH1 0xE0 DUP4 ADD DUP11 PUSH2 0x25EA JUMP JUMPDEST DUP3 DUP2 SUB PUSH1 0x20 DUP5 ADD MSTORE PUSH2 0x26D0 DUP2 DUP11 PUSH2 0x25EA JUMP JUMPDEST PUSH1 0x1 PUSH1 0x1 PUSH1 0xA0 SHL SUB SWAP9 DUP10 AND PUSH1 0x40 DUP6 ADD MSTORE SWAP7 SWAP1 SWAP8 AND PUSH1 0x60 DUP4 ADD MSTORE POP PUSH1 0x80 DUP2 ADD SWAP4 SWAP1 SWAP4 MSTORE PUSH1 0xA0 DUP4 ADD SWAP2 SWAP1 SWAP2 MSTORE PUSH1 0xC0 SWAP1 SWAP2 ADD MSTORE SWAP4 SWAP3 POP POP POP JUMP JUMPDEST DUP1 ISZERO ISZERO DUP2 EQ PUSH2 0x1731 JUMPI PUSH1 0x0 DUP1 REVERT JUMPDEST PUSH1 0x0 DUP1 PUSH1 0x40 DUP4 DUP6 SUB SLT ISZERO PUSH2 0x2728 JUMPI PUSH1 0x0 DUP1 REVERT JUMPDEST PUSH2 0x2731 DUP4 PUSH2 0x264A JUMP JUMPDEST SWAP2 POP PUSH1 0x20 DUP4 ADD CALLDATALOAD PUSH2 0x2741 DUP2 PUSH2 0x2707 JUMP JUMPDEST DUP1 SWAP2 POP POP SWAP3 POP SWAP3 SWAP1 POP JUMP JUMPDEST PUSH1 0x0 DUP1 PUSH1 0x0 PUSH1 0x60 DUP5 DUP7 SUB SLT ISZERO PUSH2 0x2761 JUMPI PUSH1 0x0 DUP1 REVERT JUMPDEST PUSH2 0x276A DUP5 PUSH2 0x264A JUMP JUMPDEST SWAP3 POP PUSH2 0x2778 PUSH1 0x20 DUP6 ADD PUSH2 0x264A JUMP JUMPDEST SWAP2 POP PUSH1 0x40 DUP5 ADD CALLDATALOAD SWAP1 POP SWAP3 POP SWAP3 POP SWAP3 JUMP JUMPDEST PUSH1 0x0 PUSH1 0x20 DUP3 DUP5 SUB SLT ISZERO PUSH2 0x279A JUMPI PUSH1 0x0 DUP1 REVERT JUMPDEST POP CALLDATALOAD SWAP2 SWAP1 POP JUMP JUMPDEST PUSH1 0x0 DUP1 PUSH1 0x20 DUP4 DUP6 SUB SLT ISZERO PUSH2 0x27B4 JUMPI PUSH1 0x0 DUP1 REVERT JUMPDEST DUP3 CALLDATALOAD PUSH8 0xFFFFFFFFFFFFFFFF DUP1 DUP3 GT ISZERO PUSH2 0x27CC JUMPI PUSH1 0x0 DUP1 REVERT JUMPDEST DUP2 DUP6 ADD SWAP2 POP DUP6 PUSH1 0x1F DUP4 ADD SLT PUSH2 0x27E0 JUMPI PUSH1 0x0 DUP1 REVERT JUMPDEST DUP2 CALLDATALOAD DUP2 DUP2 GT ISZERO PUSH2 0x27EF JUMPI PUSH1 0x0 DUP1 REVERT JUMPDEST DUP7 PUSH1 0x20 DUP3 DUP6 ADD ADD GT ISZERO PUSH2 0x2801 JUMPI PUSH1 0x0 DUP1 REVERT JUMPDEST PUSH1 0x20 SWAP3 SWAP1 SWAP3 ADD SWAP7 SWAP2 SWAP6 POP SWAP1 SWAP4 POP POP POP POP JUMP JUMPDEST PUSH1 0x20 DUP1 DUP3 MSTORE DUP3 MLOAD DUP3 DUP3 ADD DUP2 SWAP1 MSTORE PUSH1 0x0 SWAP2 SWAP1 DUP5 DUP3 ADD SWAP1 PUSH1 0x40 DUP6 ADD SWAP1 DUP5 JUMPDEST DUP2 DUP2 LT ISZERO PUSH2 0x2854 JUMPI DUP4 MLOAD PUSH1 0x1 PUSH1 0x1 PUSH1 0xA0 SHL SUB AND DUP4 MSTORE SWAP3 DUP5 ADD SWAP3 SWAP2 DUP5 ADD SWAP2 PUSH1 0x1 ADD PUSH2 0x282F JUMP JUMPDEST POP SWAP1 SWAP7 SWAP6 POP POP POP POP POP POP JUMP JUMPDEST PUSH1 0x20 DUP1 DUP3 MSTORE DUP3 MLOAD DUP3 DUP3 ADD DUP2 SWAP1 MSTORE PUSH1 0x0 SWAP2 SWAP1 DUP5 DUP3 ADD SWAP1 PUSH1 0x40 DUP6 ADD SWAP1 DUP5 JUMPDEST DUP2 DUP2 LT ISZERO PUSH2 0x2854 JUMPI PUSH2 0x28B0 DUP4 DUP6 MLOAD DUP1 MLOAD DUP3 MSTORE PUSH1 0x20 DUP2 ADD MLOAD PUSH1 0x20 DUP4 ADD MSTORE PUSH1 0x40 DUP2 ADD MLOAD PUSH1 0x40 DUP4 ADD MSTORE PUSH1 0x60 DUP2 ADD MLOAD PUSH1 0x60 DUP4 ADD MSTORE POP POP JUMP JUMPDEST SWAP3 DUP5 ADD SWAP3 PUSH1 0x80 SWAP3 SWAP1 SWAP3 ADD SWAP2 PUSH1 0x1 ADD PUSH2 0x287C JUMP JUMPDEST PUSH1 0x0 DUP1 PUSH1 0x40 DUP4 DUP6 SUB SLT ISZERO PUSH2 0x28D6 JUMPI PUSH1 0x0 DUP1 REVERT JUMPDEST PUSH2 0x28DF DUP4 PUSH2 0x264A JUMP JUMPDEST SWAP2 POP PUSH2 0x28ED PUSH1 0x20 DUP5 ADD PUSH2 0x264A JUMP JUMPDEST SWAP1 POP SWAP3 POP SWAP3 SWAP1 POP JUMP JUMPDEST DUP2 MLOAD DUP2 MSTORE PUSH1 0x20 DUP1 DUP4 ADD MLOAD SWAP1 DUP3 ADD MSTORE PUSH1 0x40 DUP1 DUP4 ADD MLOAD SWAP1 DUP3 ADD MSTORE PUSH1 0x60 DUP1 DUP4 ADD MLOAD SWAP1 DUP3 ADD MSTORE PUSH1 0x80 DUP2 ADD PUSH2 0xA86 JUMP JUMPDEST PUSH1 0x1 DUP2 DUP2 SHR SWAP1 DUP3 AND DUP1 PUSH2 0x2935 JUMPI PUSH1 0x7F DUP3 AND SWAP2 POP JUMPDEST PUSH1 0x20 DUP3 LT DUP2 SUB PUSH2 0x2955 JUMPI PUSH4 0x4E487B71 PUSH1 0xE0 SHL PUSH1 0x0 MSTORE PUSH1 0x22 PUSH1 0x4 MSTORE PUSH1 0x24 PUSH1 0x0 REVERT JUMPDEST POP SWAP2 SWAP1 POP JUMP JUMPDEST PUSH1 0x20 DUP1 DUP3 MSTORE PUSH1 0xF SWAP1 DUP3 ADD MSTORE PUSH15 0x496E76616C69642061646472657373 PUSH1 0x88 SHL PUSH1 0x40 DUP3 ADD MSTORE PUSH1 0x60 ADD SWAP1 JUMP JUMPDEST DUP2 DUP4 DUP3 CALLDATACOPY PUSH1 0x0 SWAP2 ADD SWAP1 DUP2 MSTORE SWAP2 SWAP1 POP JUMP JUMPDEST PUSH4 0x4E487B71 PUSH1 0xE0 SHL PUSH1 0x0 MSTORE PUSH1 0x11 PUSH1 0x4 MSTORE PUSH1 0x24 PUSH1 0x0 REVERT JUMPDEST DUP1 DUP3 ADD DUP1 DUP3 GT ISZERO PUSH2 0xA86 JUMPI PUSH2 0xA86 PUSH2 0x2994 JUMP JUMPDEST PUSH1 0x0 PUSH1 0x20 DUP3 DUP5 SUB SLT ISZERO PUSH2 0x29CF JUMPI PUSH1 0x0 DUP1 REVERT JUMPDEST DUP2 MLOAD PUSH2 0x2643 DUP2 PUSH2 0x2707 JUMP JUMPDEST PUSH1 0x1F DUP3 GT ISZERO PUSH2 0x105A JUMPI PUSH1 0x0 DUP2 DUP2 MSTORE PUSH1 0x20 DUP2 KECCAK256 PUSH1 0x1F DUP6 ADD PUSH1 0x5 SHR DUP2 ADD PUSH1 0x20 DUP7 LT ISZERO PUSH2 0x2A01 JUMPI POP DUP1 JUMPDEST PUSH1 0x1F DUP6 ADD PUSH1 0x5 SHR DUP3 ADD SWAP2 POP JUMPDEST DUP2 DUP2 LT ISZERO PUSH2 0x2A20 JUMPI DUP3 DUP2 SSTORE PUSH1 0x1 ADD PUSH2 0x2A0D JUMP JUMPDEST POP POP POP POP POP POP JUMP JUMPDEST PUSH8 0xFFFFFFFFFFFFFFFF DUP4 GT ISZERO PUSH2 0x2A40 JUMPI PUSH2 0x2A40 PUSH2 0x2523 JUMP JUMPDEST PUSH2 0x2A54 DUP4 PUSH2 0x2A4E DUP4 SLOAD PUSH2 0x2921 JUMP JUMPDEST DUP4 PUSH2 0x29DA JUMP JUMPDEST PUSH1 0x0 PUSH1 0x1F DUP5 GT PUSH1 0x1 DUP2 EQ PUSH2 0x2A88 JUMPI PUSH1 0x0 DUP6 ISZERO PUSH2 0x2A70 JUMPI POP DUP4 DUP3 ADD CALLDATALOAD JUMPDEST PUSH1 0x0 NOT PUSH1 0x3 DUP8 SWAP1 SHL SHR NOT AND PUSH1 0x1 DUP7 SWAP1 SHL OR DUP4 SSTORE PUSH2 0x1C19 JUMP JUMPDEST PUSH1 0x0 DUP4 DUP2 MSTORE PUSH1 0x20 SWAP1 KECCAK256 PUSH1 0x1F NOT DUP7 AND SWAP1 DUP4 JUMPDEST DUP3 DUP2 LT ISZERO PUSH2 0x2AB9 JUMPI DUP7 DUP6 ADD CALLDATALOAD DUP3 SSTORE PUSH1 0x20 SWAP5 DUP6 ADD SWAP5 PUSH1 0x1 SWAP1 SWAP3 ADD SWAP2 ADD PUSH2 0x2A99 JUMP JUMPDEST POP DUP7 DUP3 LT ISZERO PUSH2 0x2AD6 JUMPI PUSH1 0x0 NOT PUSH1 0xF8 DUP9 PUSH1 0x3 SHL AND SHR NOT DUP5 DUP8 ADD CALLDATALOAD AND DUP2 SSTORE JUMPDEST POP POP PUSH1 0x1 DUP6 PUSH1 0x1 SHL ADD DUP4 SSTORE POP POP POP POP POP JUMP JUMPDEST PUSH1 0x0 DUP3 PUSH2 0x2B05 JUMPI PUSH4 0x4E487B71 PUSH1 0xE0 SHL PUSH1 0x0 MSTORE PUSH1 0x12 PUSH1 0x4 MSTORE PUSH1 0x24 PUSH1 0x0 REVERT JUMPDEST POP DIV SWAP1 JUMP JUMPDEST DUP1 DUP3 MUL DUP2 ISZERO DUP3 DUP3 DIV DUP5 EQ OR PUSH2 0xA86 JUMPI PUSH2 0xA86 PUSH2 0x2994 JUMP JUMPDEST DUP2 DUP2 SUB DUP2 DUP2 GT ISZERO PUSH2 0xA86 JUMPI PUSH2 0xA86 PUSH2 0x2994 JUMP JUMPDEST PUSH4 0x4E487B71 PUSH1 0xE0 SHL PUSH1 0x0 MSTORE PUSH1 0x32 PUSH1 0x4 MSTORE PUSH1 0x24 PUSH1 0x0 REVERT JUMPDEST PUSH1 0x0 PUSH1 0x1 DUP3 ADD PUSH2 0x2B5C JUMPI PUSH2 0x2B5C PUSH2 0x2994 JUMP JUMPDEST POP PUSH1 0x1 ADD SWAP1 JUMP INVALID 0xD5 RETURNDATACOPY 0xA5 0x4C 0xD3 PUSH2 0xF7C4 SWAP14 EXTCODECOPY LOG1 SHL 0xFC 0xB7 SHL SELFBALANCE DUP4 PREVRANDAO DUP11 0xDE SHL ORIGIN MLOAD CALLDATACOPY DUP4 0xEE NOT PUSH24 0x6F2ADF31A26469706673582212209AED0B19470735828A2F CALL 0xAF 0x21 0xAE 0xBF 0xC0 PUSH25 0xAE5C6661B45CA1203C59491240BDB64736F6C634300081400 CALLER "},"methodIdentifiers":{"BURN_RATE()":"f846a885","DEAD_ADDRESS()":"4e6fd6c4","DIRECT_INVITER_RATE()":"9ed1879f","MARKETING_RATE()":"28e7cef5","OPERATION_RATE()":"05501dea","SECOND_INVITER_RATE()":"391ac473","TOTAL_TAX_RATE()":"091f5948","allowance(address,address)":"dd62ed3e","approve(address,uint256)":"095ea7b3","balanceOf(address)":"70a08231","burnWallet()":"06228749","createInvitationCode(string)":"ff638874","dailyStats(uint256)":"2c489aec","decimals()":"313ce567","decreaseAllowance(address,uint256)":"a457c2d7","emergencyWithdraw(address,uint256)":"95ccea67","getContractStats()":"dfe6b5d6","getDailyStats(uint256)":"e2f800d7","getGlobalStats()":"6b4169c3","getInvitationCodeOwner(string)":"6f7072ac","getRecentDailyStats(uint256)":"d5970396","getTodayDate()":"bd3ec0b7","getUserInvitees(address)":"744586a5","getUserInviteesCount(address)":"73f25964","globalStats()":"e4dc4efc","increaseAllowance(address,uint256)":"39509351","invitationCodeOwners(string)":"05453fb4","isInvitationCodeExists(string)":"35b03086","marketingWallet()":"75f0a874","name()":"06fdde03","operationWallet()":"e042ad58","owner()":"8da5cb5b","pause()":"8456cb59","paused()":"5c975abb","renounceOwnership()":"715018a6","setBurnWallet(address)":"1c4ba3ed","setMarketingWallet(address)":"5d098b38","setOperationWallet(address)":"21e4b590","setTaxExempt(address,bool)":"1dc61040","symbol()":"95d89b41","taxExempt(address)":"d1ecfc68","totalSupply()":"18160ddd","transfer(address,uint256)":"a9059cbb","transferFrom(address,address,uint256)":"23b872dd","transferOwnership(address)":"f2fde38b","unpause()":"3f4ba83a","useInvitationCode(string)":"b1a1053e","userInfo(address)":"1959a002","userInvitees(address,uint256)":"3fc3fda1"}}}}}