{
  "_format": "hh-sol-artifact-1",
  "contractName": "xBurnInvitationPoolWithStats",
  "sourceName": "contracts/XOSK.sol",
  "abi": [
    {
      "inputs": [
        {
          "internalType": "address",
          "name": "_operationWallet",
          "type": "address"
        },
        {
          "internalType": "address",
          "name": "_marketingWallet",
          "type": "address"
        },
        {
          "internalType": "address",
          "name": "_burnWallet",
          "type": "address"
        },
        {
          "internalType": "uint256",
          "name": "_initialSupply",
          "type": "uint256"
        }
      ],
      "stateMutability": "nonpayable",
      "type": "constructor"
    },
    {
      "anonymous": false,
      "inputs": [
        {
          "indexed": true,
          "internalType": "address",
          "name": "owner",
          "type": "address"
        },
        {
          "indexed": true,
          "internalType": "address",
          "name": "spender",
          "type": "address"
        },
        {
          "indexed": false,
          "internalType": "uint256",
          "name": "value",
          "type": "uint256"
        }
      ],
      "name": "Approval",
      "type": "event"
    },
    {
      "anonymous": false,
      "inputs": [
        {
          "indexed": false,
          "internalType": "uint256",
          "name": "date",
          "type": "uint256"
        },
        {
          "indexed": false,
          "internalType": "uint256",
          "name": "invitations",
          "type": "uint256"
        },
        {
          "indexed": false,
          "internalType": "uint256",
          "name": "rewards",
          "type": "uint256"
        },
        {
          "indexed": false,
          "internalType": "uint256",
          "name": "activeInviters",
          "type": "uint256"
        }
      ],
      "name": "DailyStatsUpdated",
      "type": "event"
    },
    {
      "anonymous": false,
      "inputs": [
        {
          "indexed": false,
          "internalType": "uint256",
          "name": "totalInvitations",
          "type": "uint256"
        },
        {
          "indexed": false,
          "internalType": "uint256",
          "name": "totalRewards",
          "type": "uint256"
        }
      ],
      "name": "GlobalStatsUpdated",
      "type": "event"
    },
    {
      "anonymous": false,
      "inputs": [
        {
          "indexed": true,
          "internalType": "string",
          "name": "code",
          "type": "string"
        },
        {
          "indexed": true,
          "internalType": "address",
          "name": "owner",
          "type": "address"
        }
      ],
      "name": "InvitationCodeCreated",
      "type": "event"
    },
    {
      "anonymous": false,
      "inputs": [
        {
          "indexed": true,
          "internalType": "string",
          "name": "code",
          "type": "string"
        },
        {
          "indexed": true,
          "internalType": "address",
          "name": "user",
          "type": "address"
        },
        {
          "indexed": true,
          "internalType": "address",
          "name": "inviter",
          "type": "address"
        }
      ],
      "name": "InvitationCodeUsed",
      "type": "event"
    },
    {
      "anonymous": false,
      "inputs": [
        {
          "indexed": true,
          "internalType": "address",
          "name": "previousOwner",
          "type": "address"
        },
        {
          "indexed": true,
          "internalType": "address",
          "name": "newOwner",
          "type": "address"
        }
      ],
      "name": "OwnershipTransferred",
      "type": "event"
    },
    {
      "anonymous": false,
      "inputs": [
        {
          "indexed": false,
          "internalType": "address",
          "name": "account",
          "type": "address"
        }
      ],
      "name": "Paused",
      "type": "event"
    },
    {
      "anonymous": false,
      "inputs": [
        {
          "indexed": true,
          "internalType": "address",
          "name": "user",
          "type": "address"
        },
        {
          "indexed": true,
          "internalType": "address",
          "name": "inviter",
          "type": "address"
        },
        {
          "indexed": false,
          "internalType": "uint256",
          "name": "amount",
          "type": "uint256"
        },
        {
          "indexed": false,
          "internalType": "uint256",
          "name": "level",
          "type": "uint256"
        }
      ],
      "name": "RewardDistributed",
      "type": "event"
    },
    {
      "anonymous": false,
      "inputs": [
        {
          "indexed": true,
          "internalType": "address",
          "name": "from",
          "type": "address"
        },
        {
          "indexed": false,
          "internalType": "uint256",
          "name": "totalTax",
          "type": "uint256"
        },
        {
          "indexed": false,
          "internalType": "uint256",
          "name": "directReward",
          "type": "uint256"
        },
        {
          "indexed": false,
          "internalType": "uint256",
          "name": "secondReward",
          "type": "uint256"
        },
        {
          "indexed": false,
          "internalType": "uint256",
          "name": "operationFee",
          "type": "uint256"
        },
        {
          "indexed": false,
          "internalType": "uint256",
          "name": "marketingFee",
          "type": "uint256"
        },
        {
          "indexed": false,
          "internalType": "uint256",
          "name": "burnAmount",
          "type": "uint256"
        }
      ],
      "name": "TaxCollected",
      "type": "event"
    },
    {
      "anonymous": false,
      "inputs": [
        {
          "indexed": true,
          "internalType": "address",
          "name": "from",
          "type": "address"
        },
        {
          "indexed": true,
          "internalType": "address",
          "name": "to",
          "type": "address"
        },
        {
          "indexed": false,
          "internalType": "uint256",
          "name": "value",
          "type": "uint256"
        }
      ],
      "name": "Transfer",
      "type": "event"
    },
    {
      "anonymous": false,
      "inputs": [
        {
          "indexed": false,
          "internalType": "address",
          "name": "account",
          "type": "address"
        }
      ],
      "name": "Unpaused",
      "type": "event"
    },
    {
      "inputs": [],
      "name": "BURN_RATE",
      "outputs": [
        {
          "internalType": "uint256",
          "name": "",
          "type": "uint256"
        }
      ],
      "stateMutability": "view",
      "type": "function"
    },
    {
      "inputs": [],
      "name": "DEAD_ADDRESS",
      "outputs": [
        {
          "internalType": "address",
          "name": "",
          "type": "address"
        }
      ],
      "stateMutability": "view",
      "type": "function"
    },
    {
      "inputs": [],
      "name": "DIRECT_INVITER_RATE",
      "outputs": [
        {
          "internalType": "uint256",
          "name": "",
          "type": "uint256"
        }
      ],
      "stateMutability": "view",
      "type": "function"
    },
    {
      "inputs": [],
      "name": "MARKETING_RATE",
      "outputs": [
        {
          "internalType": "uint256",
          "name": "",
          "type": "uint256"
        }
      ],
      "stateMutability": "view",
      "type": "function"
    },
    {
      "inputs": [],
      "name": "OPERATION_RATE",
      "outputs": [
        {
          "internalType": "uint256",
          "name": "",
          "type": "uint256"
        }
      ],
      "stateMutability": "view",
      "type": "function"
    },
    {
      "inputs": [],
      "name": "SECOND_INVITER_RATE",
      "outputs": [
        {
          "internalType": "uint256",
          "name": "",
          "type": "uint256"
        }
      ],
      "stateMutability": "view",
      "type": "function"
    },
    {
      "inputs": [],
      "name": "TOTAL_TAX_RATE",
      "outputs": [
        {
          "internalType": "uint256",
          "name": "",
          "type": "uint256"
        }
      ],
      "stateMutability": "view",
      "type": "function"
    },
    {
      "inputs": [
        {
          "internalType": "address",
          "name": "owner",
          "type": "address"
        },
        {
          "internalType": "address",
          "name": "spender",
          "type": "address"
        }
      ],
      "name": "allowance",
      "outputs": [
        {
          "internalType": "uint256",
          "name": "",
          "type": "uint256"
        }
      ],
      "stateMutability": "view",
      "type": "function"
    },
    {
      "inputs": [
        {
          "internalType": "address",
          "name": "spender",
          "type": "address"
        },
        {
          "internalType": "uint256",
          "name": "amount",
          "type": "uint256"
        }
      ],
      "name": "approve",
      "outputs": [
        {
          "internalType": "bool",
          "name": "",
          "type": "bool"
        }
      ],
      "stateMutability": "nonpayable",
      "type": "function"
    },
    {
      "inputs": [
        {
          "internalType": "address",
          "name": "account",
          "type": "address"
        }
      ],
      "name": "balanceOf",
      "outputs": [
        {
          "internalType": "uint256",
          "name": "",
          "type": "uint256"
        }
      ],
      "stateMutability": "view",
      "type": "function"
    },
    {
      "inputs": [],
      "name": "burnWallet",
      "outputs": [
        {
          "internalType": "address",
          "name": "",
          "type": "address"
        }
      ],
      "stateMutability": "view",
      "type": "function"
    },
    {
      "inputs": [
        {
          "internalType": "string",
          "name": "code",
          "type": "string"
        }
      ],
      "name": "createInvitationCode",
      "outputs": [],
      "stateMutability": "nonpayable",
      "type": "function"
    },
    {
      "inputs": [
        {
          "internalType": "uint256",
          "name": "",
          "type": "uint256"
        }
      ],
      "name": "dailyStats",
      "outputs": [
        {
          "internalType": "uint256",
          "name": "date",
          "type": "uint256"
        },
        {
          "internalType": "uint256",
          "name": "invitationsToday",
          "type": "uint256"
        },
        {
          "internalType": "uint256",
          "name": "rewardsToday",
          "type": "uint256"
        },
        {
          "internalType": "uint256",
          "name": "activeInvitersToday",
          "type": "uint256"
        }
      ],
      "stateMutability": "view",
      "type": "function"
    },
    {
      "inputs": [],
      "name": "decimals",
      "outputs": [
        {
          "internalType": "uint8",
          "name": "",
          "type": "uint8"
        }
      ],
      "stateMutability": "view",
      "type": "function"
    },
    {
      "inputs": [
        {
          "internalType": "address",
          "name": "spender",
          "type": "address"
        },
        {
          "internalType": "uint256",
          "name": "subtractedValue",
          "type": "uint256"
        }
      ],
      "name": "decreaseAllowance",
      "outputs": [
        {
          "internalType": "bool",
          "name": "",
          "type": "bool"
        }
      ],
      "stateMutability": "nonpayable",
      "type": "function"
    },
    {
      "inputs": [
        {
          "internalType": "address",
          "name": "token",
          "type": "address"
        },
        {
          "internalType": "uint256",
          "name": "amount",
          "type": "uint256"
        }
      ],
      "name": "emergencyWithdraw",
      "outputs": [],
      "stateMutability": "nonpayable",
      "type": "function"
    },
    {
      "inputs": [],
      "name": "getContractStats",
      "outputs": [
        {
          "internalType": "uint256",
          "name": "",
          "type": "uint256"
        },
        {
          "internalType": "uint256",
          "name": "",
          "type": "uint256"
        },
        {
          "internalType": "uint256",
          "name": "",
          "type": "uint256"
        },
        {
          "internalType": "uint256",
          "name": "",
          "type": "uint256"
        },
        {
          "internalType": "uint256",
          "name": "",
          "type": "uint256"
        },
        {
          "internalType": "uint256",
          "name": "",
          "type": "uint256"
        },
        {
          "internalType": "uint256",
          "name": "",
          "type": "uint256"
        },
        {
          "internalType": "uint256",
          "name": "",
          "type": "uint256"
        }
      ],
      "stateMutability": "view",
      "type": "function"
    },
    {
      "inputs": [
        {
          "internalType": "uint256",
          "name": "date",
          "type": "uint256"
        }
      ],
      "name": "getDailyStats",
      "outputs": [
        {
          "components": [
            {
              "internalType": "uint256",
              "name": "date",
              "type": "uint256"
            },
            {
              "internalType": "uint256",
              "name": "invitationsToday",
              "type": "uint256"
            },
            {
              "internalType": "uint256",
              "name": "rewardsToday",
              "type": "uint256"
            },
            {
              "internalType": "uint256",
              "name": "activeInvitersToday",
              "type": "uint256"
            }
          ],
          "internalType": "struct xBurnInvitationPoolWithStats.DailyStats",
          "name": "",
          "type": "tuple"
        }
      ],
      "stateMutability": "view",
      "type": "function"
    },
    {
      "inputs": [],
      "name": "getGlobalStats",
      "outputs": [
        {
          "components": [
            {
              "internalType": "uint256",
              "name": "totalInvitations",
              "type": "uint256"
            },
            {
              "internalType": "uint256",
              "name": "totalActiveInviters",
              "type": "uint256"
            },
            {
              "internalType": "uint256",
              "name": "totalRewardsDistributed",
              "type": "uint256"
            },
            {
              "internalType": "uint256",
              "name": "totalDirectRewards",
              "type": "uint256"
            },
            {
              "internalType": "uint256",
              "name": "totalSecondLevelRewards",
              "type": "uint256"
            },
            {
              "internalType": "uint256",
              "name": "totalBurnedFromInvitations",
              "type": "uint256"
            },
            {
              "internalType": "uint256",
              "name": "lastUpdateTime",
              "type": "uint256"
            }
          ],
          "internalType": "struct xBurnInvitationPoolWithStats.InvitationStats",
          "name": "",
          "type": "tuple"
        }
      ],
      "stateMutability": "view",
      "type": "function"
    },
    {
      "inputs": [
        {
          "internalType": "string",
          "name": "code",
          "type": "string"
        }
      ],
      "name": "getInvitationCodeOwner",
      "outputs": [
        {
          "internalType": "address",
          "name": "",
          "type": "address"
        }
      ],
      "stateMutability": "view",
      "type": "function"
    },
    {
      "inputs": [
        {
          "internalType": "uint256",
          "name": "numDays",
          "type": "uint256"
        }
      ],
      "name": "getRecentDailyStats",
      "outputs": [
        {
          "components": [
            {
              "internalType": "uint256",
              "name": "date",
              "type": "uint256"
            },
            {
              "internalType": "uint256",
              "name": "invitationsToday",
              "type": "uint256"
            },
            {
              "internalType": "uint256",
              "name": "rewardsToday",
              "type": "uint256"
            },
            {
              "internalType": "uint256",
              "name": "activeInvitersToday",
              "type": "uint256"
            }
          ],
          "internalType": "struct xBurnInvitationPoolWithStats.DailyStats[]",
          "name": "",
          "type": "tuple[]"
        }
      ],
      "stateMutability": "view",
      "type": "function"
    },
    {
      "inputs": [],
      "name": "getTodayDate",
      "outputs": [
        {
          "internalType": "uint256",
          "name": "",
          "type": "uint256"
        }
      ],
      "stateMutability": "view",
      "type": "function"
    },
    {
      "inputs": [
        {
          "internalType": "address",
          "name": "user",
          "type": "address"
        }
      ],
      "name": "getUserInvitees",
      "outputs": [
        {
          "internalType": "address[]",
          "name": "",
          "type": "address[]"
        }
      ],
      "stateMutability": "view",
      "type": "function"
    },
    {
      "inputs": [
        {
          "internalType": "address",
          "name": "user",
          "type": "address"
        }
      ],
      "name": "getUserInviteesCount",
      "outputs": [
        {
          "internalType": "uint256",
          "name": "",
          "type": "uint256"
        }
      ],
      "stateMutability": "view",
      "type": "function"
    },
    {
      "inputs": [],
      "name": "globalStats",
      "outputs": [
        {
          "internalType": "uint256",
          "name": "totalInvitations",
          "type": "uint256"
        },
        {
          "internalType": "uint256",
          "name": "totalActiveInviters",
          "type": "uint256"
        },
        {
          "internalType": "uint256",
          "name": "totalRewardsDistributed",
          "type": "uint256"
        },
        {
          "internalType": "uint256",
          "name": "totalDirectRewards",
          "type": "uint256"
        },
        {
          "internalType": "uint256",
          "name": "totalSecondLevelRewards",
          "type": "uint256"
        },
        {
          "internalType": "uint256",
          "name": "totalBurnedFromInvitations",
          "type": "uint256"
        },
        {
          "internalType": "uint256",
          "name": "lastUpdateTime",
          "type": "uint256"
        }
      ],
      "stateMutability": "view",
      "type": "function"
    },
    {
      "inputs": [
        {
          "internalType": "address",
          "name": "spender",
          "type": "address"
        },
        {
          "internalType": "uint256",
          "name": "addedValue",
          "type": "uint256"
        }
      ],
      "name": "increaseAllowance",
      "outputs": [
        {
          "internalType": "bool",
          "name": "",
          "type": "bool"
        }
      ],
      "stateMutability": "nonpayable",
      "type": "function"
    },
    {
      "inputs": [
        {
          "internalType": "string",
          "name": "",
          "type": "string"
        }
      ],
      "name": "invitationCodeOwners",
      "outputs": [
        {
          "internalType": "address",
          "name": "",
          "type": "address"
        }
      ],
      "stateMutability": "view",
      "type": "function"
    },
    {
      "inputs": [
        {
          "internalType": "string",
          "name": "code",
          "type": "string"
        }
      ],
      "name": "isInvitationCodeExists",
      "outputs": [
        {
          "internalType": "bool",
          "name": "",
          "type": "bool"
        }
      ],
      "stateMutability": "view",
      "type": "function"
    },
    {
      "inputs": [],
      "name": "marketingWallet",
      "outputs": [
        {
          "internalType": "address",
          "name": "",
          "type": "address"
        }
      ],
      "stateMutability": "view",
      "type": "function"
    },
    {
      "inputs": [],
      "name": "name",
      "outputs": [
        {
          "internalType": "string",
          "name": "",
          "type": "string"
        }
      ],
      "stateMutability": "view",
      "type": "function"
    },
    {
      "inputs": [],
      "name": "operationWallet",
      "outputs": [
        {
          "internalType": "address",
          "name": "",
          "type": "address"
        }
      ],
      "stateMutability": "view",
      "type": "function"
    },
    {
      "inputs": [],
      "name": "owner",
      "outputs": [
        {
          "internalType": "address",
          "name": "",
          "type": "address"
        }
      ],
      "stateMutability": "view",
      "type": "function"
    },
    {
      "inputs": [],
      "name": "pause",
      "outputs": [],
      "stateMutability": "nonpayable",
      "type": "function"
    },
    {
      "inputs": [],
      "name": "paused",
      "outputs": [
        {
          "internalType": "bool",
          "name": "",
          "type": "bool"
        }
      ],
      "stateMutability": "view",
      "type": "function"
    },
    {
      "inputs": [],
      "name": "renounceOwnership",
      "outputs": [],
      "stateMutability": "nonpayable",
      "type": "function"
    },
    {
      "inputs": [
        {
          "internalType": "address",
          "name": "_wallet",
          "type": "address"
        }
      ],
      "name": "setBurnWallet",
      "outputs": [],
      "stateMutability": "nonpayable",
      "type": "function"
    },
    {
      "inputs": [
        {
          "internalType": "address",
          "name": "_wallet",
          "type": "address"
        }
      ],
      "name": "setMarketingWallet",
      "outputs": [],
      "stateMutability": "nonpayable",
      "type": "function"
    },
    {
      "inputs": [
        {
          "internalType": "address",
          "name": "_wallet",
          "type": "address"
        }
      ],
      "name": "setOperationWallet",
      "outputs": [],
      "stateMutability": "nonpayable",
      "type": "function"
    },
    {
      "inputs": [
        {
          "internalType": "address",
          "name": "_address",
          "type": "address"
        },
        {
          "internalType": "bool",
          "name": "_exempt",
          "type": "bool"
        }
      ],
      "name": "setTaxExempt",
      "outputs": [],
      "stateMutability": "nonpayable",
      "type": "function"
    },
    {
      "inputs": [],
      "name": "symbol",
      "outputs": [
        {
          "internalType": "string",
          "name": "",
          "type": "string"
        }
      ],
      "stateMutability": "view",
      "type": "function"
    },
    {
      "inputs": [
        {
          "internalType": "address",
          "name": "",
          "type": "address"
        }
      ],
      "name": "taxExempt",
      "outputs": [
        {
          "internalType": "bool",
          "name": "",
          "type": "bool"
        }
      ],
      "stateMutability": "view",
      "type": "function"
    },
    {
      "inputs": [],
      "name": "totalSupply",
      "outputs": [
        {
          "internalType": "uint256",
          "name": "",
          "type": "uint256"
        }
      ],
      "stateMutability": "view",
      "type": "function"
    },
    {
      "inputs": [
        {
          "internalType": "address",
          "name": "to",
          "type": "address"
        },
        {
          "internalType": "uint256",
          "name": "amount",
          "type": "uint256"
        }
      ],
      "name": "transfer",
      "outputs": [
        {
          "internalType": "bool",
          "name": "",
          "type": "bool"
        }
      ],
      "stateMutability": "nonpayable",
      "type": "function"
    },
    {
      "inputs": [
        {
          "internalType": "address",
          "name": "from",
          "type": "address"
        },
        {
          "internalType": "address",
          "name": "to",
          "type": "address"
        },
        {
          "internalType": "uint256",
          "name": "amount",
          "type": "uint256"
        }
      ],
      "name": "transferFrom",
      "outputs": [
        {
          "internalType": "bool",
          "name": "",
          "type": "bool"
        }
      ],
      "stateMutability": "nonpayable",
      "type": "function"
    },
    {
      "inputs": [
        {
          "internalType": "address",
          "name": "newOwner",
          "type": "address"
        }
      ],
      "name": "transferOwnership",
      "outputs": [],
      "stateMutability": "nonpayable",
      "type": "function"
    },
    {
      "inputs": [],
      "name": "unpause",
      "outputs": [],
      "stateMutability": "nonpayable",
      "type": "function"
    },
    {
      "inputs": [
        {
          "internalType": "string",
          "name": "code",
          "type": "string"
        }
      ],
      "name": "useInvitationCode",
      "outputs": [],
      "stateMutability": "nonpayable",
      "type": "function"
    },
    {
      "inputs": [
        {
          "internalType": "address",
          "name": "",
          "type": "address"
        }
      ],
      "name": "userInfo",
      "outputs": [
        {
          "internalType": "string",
          "name": "invitationCode",
          "type": "string"
        },
        {
          "internalType": "string",
          "name": "usedInvitationCode",
          "type": "string"
        },
        {
          "internalType": "address",
          "name": "directInviter",
          "type": "address"
        },
        {
          "internalType": "address",
          "name": "secondInviter",
          "type": "address"
        },
        {
          "internalType": "uint256",
          "name": "totalReceived",
          "type": "uint256"
        },
        {
          "internalType": "uint256",
          "name": "invitationsSent",
          "type": "uint256"
        },
        {
          "internalType": "uint256",
          "name": "lastInvitationTime",
          "type": "uint256"
        }
      ],
      "stateMutability": "view",
      "type": "function"
    },
    {
      "inputs": [
        {
          "internalType": "address",
          "name": "",
          "type": "address"
        },
        {
          "internalType": "uint256",
          "name": "",
          "type": "uint256"
        }
      ],
      "name": "userInvitees",
      "outputs": [
        {
          "internalType": "address",
          "name": "",
          "type": "address"
        }
      ],
      "stateMutability": "view",
      "type": "function"
    },
    {
      "stateMutability": "payable",
      "type": "receive"
    }
  ],
  "bytecode": "0x60806040523480156200001157600080fd5b50604051620031e2380380620031e283398101604081905262000034916200042f565b6040518060400160405280600b81526020016a3c213ab937102a37b5b2b760a91b815250604051806040016040528060058152602001643c213ab93760d91b815250816003908162000087919062000525565b50600462000096828262000525565b505050620000b3620000ad620002f460201b60201c565b620002f8565b60016006556007805460ff191690556001600160a01b0384166200011e5760405162461bcd60e51b815260206004820152601860248201527f496e76616c6964206f7065726174696f6e2077616c6c6574000000000000000060448201526064015b60405180910390fd5b6001600160a01b038316620001765760405162461bcd60e51b815260206004820152601860248201527f496e76616c6964206d61726b6574696e672077616c6c65740000000000000000604482015260640162000115565b6001600160a01b038216620001ce5760405162461bcd60e51b815260206004820152601360248201527f496e76616c6964206275726e2077616c6c657400000000000000000000000000604482015260640162000115565b600780546001600160a01b0380871661010002610100600160a81b031990921691909117909155600880548583166001600160a01b03199182161790915560098054928516929091169190911790556200022933826200034a565b6001600d6000620002426005546001600160a01b031690565b6001600160a01b03908116825260208083019390935260409182016000908120805495151560ff19968716179055308152600d909352818320805485166001908117909155978116835281832080548516891790559586168252808220805484168817905593909416845291832080548316851790555061dead9091527fdc7fafdc41998a74ecacb8f8bd877011aba1f1d03a3a0d37a2e7879a393b1d6a805490911690911790554260145562000619565b3390565b600580546001600160a01b038381166001600160a01b0319831681179093556040519116919082907f8be0079c531659141344cd1fd0a4f28419497f9722a3daafe3b4186f6b6457e090600090a35050565b6001600160a01b038216620003a25760405162461bcd60e51b815260206004820152601f60248201527f45524332303a206d696e7420746f20746865207a65726f206164647265737300604482015260640162000115565b8060026000828254620003b69190620005f1565b90915550506001600160a01b038216600081815260208181526040808320805486019055518481527fddf252ad1be2c89b69c2b068fc378daa952ba7f163c4a11628f55a4df523b3ef910160405180910390a35050565b505050565b80516001600160a01b03811681146200042a57600080fd5b919050565b600080600080608085870312156200044657600080fd5b620004518562000412565b9350620004616020860162000412565b9250620004716040860162000412565b6060959095015193969295505050565b634e487b7160e01b600052604160045260246000fd5b600181811c90821680620004ac57607f821691505b602082108103620004cd57634e487b7160e01b600052602260045260246000fd5b50919050565b601f8211156200040d57600081815260208120601f850160051c81016020861015620004fc5750805b601f850160051c820191505b818110156200051d5782815560010162000508565b505050505050565b81516001600160401b0381111562000541576200054162000481565b620005598162000552845462000497565b84620004d3565b602080601f831160018114620005915760008415620005785750858301515b600019600386901b1c1916600185901b1785556200051d565b600085815260208120601f198616915b82811015620005c257888601518255948401946001909101908401620005a1565b5085821015620005e15787850151600019600388901b60f8161c191681555b5050505050600190811b01905550565b808201808211156200061357634e487b7160e01b600052601160045260246000fd5b92915050565b612bb980620006296000396000f3fe6080604052600436106102b25760003560e01c80636f7072ac11610175578063a9059cbb116100dc578063dfe6b5d611610095578063e4dc4efc1161006f578063e4dc4efc1461093c578063f2fde38b146109a0578063f846a8851461031c578063ff638874146109c057600080fd5b8063dfe6b5d61461089a578063e042ad58146108ea578063e2f800d71461090f57600080fd5b8063a9059cbb146107c8578063b1a1053e146107e8578063bd3ec0b714610808578063d1ecfc681461081d578063d59703961461084d578063dd62ed3e1461087a57600080fd5b80638456cb591161012e5780638456cb59146107405780638da5cb5b1461075557806395ccea671461077357806395d89b41146107935780639ed1879f1461031c578063a457c2d7146107a857600080fd5b80636f7072ac1461065257806370a0823114610672578063715018a6146106a857806373f25964146106bd578063744586a5146106f357806375f0a8741461072057600080fd5b806328e7cef5116102195780633f4ba83a116101d25780633f4ba83a146105645780633fc3fda1146105795780634e6fd6c4146105995780635c975abb146105af5780635d098b38146105c75780636b4169c3146105e757600080fd5b806328e7cef5146104915780632c489aec146104a6578063313ce5671461050857806335b0308614610524578063391ac47314610491578063395093511461054457600080fd5b806318160ddd1161026b57806318160ddd146103c75780631959a002146103dc5780631c4ba3ed1461040f5780631dc610401461043157806321e4b5901461045157806323b872dd1461047157600080fd5b806305453fb4146102be57806305501dea1461031c578063062287491461033f57806306fdde031461035f578063091f594814610381578063095ea7b31461039757600080fd5b366102b957005b600080fd5b3480156102ca57600080fd5b506102ff6102d9366004612539565b8051602081830181018051600c825292820191909301209152546001600160a01b031681565b6040516001600160a01b0390911681526020015b60405180910390f35b34801561032857600080fd5b50610331606481565b604051908152602001610313565b34801561034b57600080fd5b506009546102ff906001600160a01b031681565b34801561036b57600080fd5b506103746109e0565b6040516103139190612630565b34801561038d57600080fd5b5061033161019081565b3480156103a357600080fd5b506103b76103b2366004612666565b610a72565b6040519015158152602001610313565b3480156103d357600080fd5b50600254610331565b3480156103e857600080fd5b506103fc6103f7366004612690565b610a8c565b60405161031397969594939291906126ab565b34801561041b57600080fd5b5061042f61042a366004612690565b610be4565b005b34801561043d57600080fd5b5061042f61044c366004612715565b610c3d565b34801561045d57600080fd5b5061042f61046c366004612690565b610c70565b34801561047d57600080fd5b506103b761048c36600461274c565b610cc6565b34801561049d57600080fd5b50610331603281565b3480156104b257600080fd5b506104e86104c1366004612788565b60156020526000908152604090208054600182015460028301546003909301549192909184565b604080519485526020850193909352918301526060820152608001610313565b34801561051457600080fd5b5060405160128152602001610313565b34801561053057600080fd5b506103b761053f3660046127a1565b610cea565b34801561055057600080fd5b506103b761055f366004612666565b610d2b565b34801561057057600080fd5b5061042f610d4d565b34801561058557600080fd5b506102ff610594366004612666565b610d5f565b3480156105a557600080fd5b506102ff61dead81565b3480156105bb57600080fd5b5060075460ff166103b7565b3480156105d357600080fd5b5061042f6105e2366004612690565b610d97565b3480156105f357600080fd5b506105fc610de7565b6040516103139190600060e082019050825182526020830151602083015260408301516040830152606083015160608301526080830151608083015260a083015160a083015260c083015160c083015292915050565b34801561065e57600080fd5b506102ff61066d3660046127a1565b610e6c565b34801561067e57600080fd5b5061033161068d366004612690565b6001600160a01b031660009081526020819052604090205490565b3480156106b457600080fd5b5061042f610ea1565b3480156106c957600080fd5b506103316106d8366004612690565b6001600160a01b03166000908152600b602052604090205490565b3480156106ff57600080fd5b5061071361070e366004612690565b610eb3565b6040516103139190612813565b34801561072c57600080fd5b506008546102ff906001600160a01b031681565b34801561074c57600080fd5b5061042f610f29565b34801561076157600080fd5b506005546001600160a01b03166102ff565b34801561077f57600080fd5b5061042f61078e366004612666565b610f39565b34801561079f57600080fd5b5061037461105f565b3480156107b457600080fd5b506103b76107c3366004612666565b61106e565b3480156107d457600080fd5b506103b76107e3366004612666565b6110e9565b3480156107f457600080fd5b5061042f6108033660046127a1565b6110f7565b34801561081457600080fd5b506103316113cf565b34801561082957600080fd5b506103b7610838366004612690565b600d6020526000908152604090205460ff1681565b34801561085957600080fd5b5061086d610868366004612788565b6113fd565b6040516103139190612860565b34801561088657600080fd5b506103316108953660046128c3565b611589565b3480156108a657600080fd5b506108af6115b4565b604080519889526020890197909752958701949094526060860192909252608085015260a084015260c083015260e082015261010001610313565b3480156108f657600080fd5b506007546102ff9061010090046001600160a01b031681565b34801561091b57600080fd5b5061092f61092a366004612788565b61164b565b60405161031391906128f6565b34801561094857600080fd5b50600e54600f5460105460115460125460135460145461096b9695949392919087565b604080519788526020880196909652948601939093526060850191909152608084015260a083015260c082015260e001610313565b3480156109ac57600080fd5b5061042f6109bb366004612690565b6116bb565b3480156109cc57600080fd5b5061042f6109db3660046127a1565b611734565b6060600380546109ef90612921565b80601f0160208091040260200160405190810160405280929190818152602001828054610a1b90612921565b8015610a685780601f10610a3d57610100808354040283529160200191610a68565b820191906000526020600020905b815481529060010190602001808311610a4b57829003601f168201915b5050505050905090565b600033610a80818585611937565b60019150505b92915050565b600a60205260009081526040902080548190610aa790612921565b80601f0160208091040260200160405190810160405280929190818152602001828054610ad390612921565b8015610b205780601f10610af557610100808354040283529160200191610b20565b820191906000526020600020905b815481529060010190602001808311610b0357829003601f168201915b505050505090806001018054610b3590612921565b80601f0160208091040260200160405190810160405280929190818152602001828054610b6190612921565b8015610bae5780601f10610b8357610100808354040283529160200191610bae565b820191906000526020600020905b815481529060010190602001808311610b9157829003601f168201915b505050600284015460038501546004860154600587015460069097015495966001600160a01b0393841696929093169450925087565b610bec611a5b565b6001600160a01b038116610c1b5760405162461bcd60e51b8152600401610c129061295b565b60405180910390fd5b600980546001600160a01b0319166001600160a01b0392909216919091179055565b610c45611a5b565b6001600160a01b03919091166000908152600d60205260409020805460ff1916911515919091179055565b610c78611a5b565b6001600160a01b038116610c9e5760405162461bcd60e51b8152600401610c129061295b565b600780546001600160a01b0390921661010002610100600160a81b0319909216919091179055565b600033610cd4858285611ab5565b610cdf858585611b2f565b506001949350505050565b6000806001600160a01b0316600c8484604051610d08929190612984565b908152604051908190036020019020546001600160a01b03161415905092915050565b600033610a80818585610d3e8383611589565b610d4891906129aa565b611937565b610d55611a5b565b610d5d611c20565b565b600b6020528160005260406000208181548110610d7b57600080fd5b6000918252602090912001546001600160a01b03169150829050565b610d9f611a5b565b6001600160a01b038116610dc55760405162461bcd60e51b8152600401610c129061295b565b600880546001600160a01b0319166001600160a01b0392909216919091179055565b610e276040518060e00160405280600081526020016000815260200160008152602001600081526020016000815260200160008152602001600081525090565b506040805160e081018252600e548152600f546020820152601054918101919091526011546060820152601254608082015260135460a082015260145460c082015290565b6000600c8383604051610e80929190612984565b908152604051908190036020019020546001600160a01b0316905092915050565b610ea9611a5b565b610d5d6000611c72565b6001600160a01b0381166000908152600b6020908152604091829020805483518184028101840190945280845260609392830182828015610f1d57602002820191906000526020600020905b81546001600160a01b03168152600190910190602001808311610eff575b50505050509050919050565b610f31611a5b565b610d5d611cc4565b610f41611a5b565b6001600160a01b038216610f875760405162461bcd60e51b815260206004820152600d60248201526c24b73b30b634b2103a37b5b2b760991b6044820152606401610c12565b60008111610fc85760405162461bcd60e51b815260206004820152600e60248201526d125b9d985b1a5908185b5bdd5b9d60921b6044820152606401610c12565b816001600160a01b031663a9059cbb610fe96005546001600160a01b031690565b6040516001600160e01b031960e084901b1681526001600160a01b039091166004820152602481018490526044016020604051808303816000875af1158015611036573d6000803e3d6000fd5b505050506040513d601f19601f8201168201806040525081019061105a91906129bd565b505050565b6060600480546109ef90612921565b6000338161107c8286611589565b9050838110156110dc5760405162461bcd60e51b815260206004820152602560248201527f45524332303a2064656372656173656420616c6c6f77616e63652062656c6f77604482015264207a65726f60d81b6064820152608401610c12565b610cdf8286868403611937565b600033610a80818585611b2f565b6110ff611d01565b611107611d5a565b600681108015906111195750600c8111155b6111655760405162461bcd60e51b815260206004820152601e60248201527f436f6465206c656e677468206d75737420626520362d313220636861727300006044820152606401610c12565b60006001600160a01b0316600c8383604051611182929190612984565b908152604051908190036020019020546001600160a01b0316036111de5760405162461bcd60e51b815260206004820152601360248201527210dbd91948191bd95cc81b9bdd08195e1a5cdd606a1b6044820152606401610c12565b336001600160a01b0316600c83836040516111fa929190612984565b908152604051908190036020019020546001600160a01b0316036112565760405162461bcd60e51b815260206004820152601360248201527243616e6e6f7420757365206f776e20636f646560681b6044820152606401610c12565b336000908152600a60205260409020600101805461127390612921565b1590506112c25760405162461bcd60e51b815260206004820152601c60248201527f416c7265616479207573656420696e7669746174696f6e20636f6465000000006044820152606401610c12565b6000600c83836040516112d6929190612984565b9081526040805160209281900383019020546001600160a01b039081166000818152600a9094528284206002015433855292909320929350169060010161131e848683612a28565b50336000818152600a602052604090206002810180546001600160a01b038087166001600160a01b031992831617909255600390920180549185169190921617905561136b908390611da0565b816001600160a01b0316336001600160a01b0316858560405161138f929190612984565b604051908190038120907fb85de01f5199433d02da991c5cd5c6932e2c8db5f9bb4e3b9caea6c2c0c4491a90600090a450506113cb6001600655565b5050565b60006113de6201518042612ae8565b6113ea90612710612b0a565b6113f89063012c99856129aa565b905090565b6060600082118015611411575061016d8211155b61144c5760405162461bcd60e51b815260206004820152600c60248201526b496e76616c6964206461797360a01b6044820152606401610c12565b60008267ffffffffffffffff81111561146757611467612523565b6040519080825280602002602001820160405280156114c357816020015b6114b06040518060800160405280600081526020016000815260200160008152602001600081525090565b8152602001906001900390816114855790505b50905060006114d06113cf565b905060005b848110156115805760006114e98284612b21565b90506015600082815260200190815260200160002060405180608001604052908160008201548152602001600182015481526020016002820154815260200160038201548152505084838151811061154357611543612b34565b60200260200101819052508084838151811061156157611561612b34565b602090810291909101015152508061157881612b4a565b9150506114d5565b50909392505050565b6001600160a01b03918216600090815260016020908152604080832093909416825291909152205490565b600080600080600080600080600e60000154600e600201546000611602600760019054906101000a90046001600160a01b03166001600160a01b031660009081526020819052604090205490565b6008546001600160a01b0390811660009081526020819052604080822054600954909316825280822054308352912054959e949d50929b50909950975095504794509092509050565b6116766040518060800160405280600081526020016000815260200160008152602001600081525090565b50600090815260156020908152604091829020825160808101845281548152600182015492810192909252600281015492820192909252600390910154606082015290565b6116c3611a5b565b6001600160a01b0381166117285760405162461bcd60e51b815260206004820152602660248201527f4f776e61626c653a206e6577206f776e657220697320746865207a65726f206160448201526564647265737360d01b6064820152608401610c12565b61173181611c72565b50565b61173c611d01565b611744611d5a565b600681108015906117565750600c8111155b6117a25760405162461bcd60e51b815260206004820152601e60248201527f436f6465206c656e677468206d75737420626520362d313220636861727300006044820152606401610c12565b60006001600160a01b0316600c83836040516117bf929190612984565b908152604051908190036020019020546001600160a01b03161461181b5760405162461bcd60e51b8152602060048201526013602482015272436f646520616c72656164792065786973747360681b6044820152606401610c12565b336000908152600a60205260409020805461183590612921565b1590506118905760405162461bcd60e51b815260206004820152602360248201527f5573657220616c72656164792068617320616e20696e7669746174696f6e20636044820152626f646560e81b6064820152608401610c12565b336000908152600a602052604090206118aa828483612a28565b5033600c83836040516118be929190612984565b90815260405190819003602001812080546001600160a01b03939093166001600160a01b03199093169290921790915533906118fd9084908490612984565b604051908190038120907fa05bbb1c92ec612f10b3899e3c47419782f5d6164b2406ddf87938e9841691b290600090a36113cb6001600655565b6001600160a01b0383166119995760405162461bcd60e51b8152602060048201526024808201527f45524332303a20617070726f76652066726f6d20746865207a65726f206164646044820152637265737360e01b6064820152608401610c12565b6001600160a01b0382166119fa5760405162461bcd60e51b815260206004820152602260248201527f45524332303a20617070726f766520746f20746865207a65726f206164647265604482015261737360f01b6064820152608401610c12565b6001600160a01b0383811660008181526001602090815260408083209487168084529482529182902085905590518481527f8c5be1e5ebec7d5bd14f71427d1e84f3dd0314c0f7b2291e5b200ac8c7c3b925910160405180910390a3505050565b6005546001600160a01b03163314610d5d5760405162461bcd60e51b815260206004820181905260248201527f4f776e61626c653a2063616c6c6572206973206e6f7420746865206f776e65726044820152606401610c12565b6000611ac18484611589565b90506000198114611b295781811015611b1c5760405162461bcd60e51b815260206004820152601d60248201527f45524332303a20696e73756666696369656e7420616c6c6f77616e63650000006044820152606401610c12565b611b298484848403611937565b50505050565b60075460ff1615611b775760405162461bcd60e51b815260206004820152601260248201527110dbdb9d1c9858dd081a5cc81c185d5cd95960721b6044820152606401610c12565b6001600160a01b0383166000908152600d602052604090205460ff1680611bb657506001600160a01b0382166000908152600d602052604090205460ff165b15611bc65761105a838383611ead565b6000612710611bd761019084612b0a565b611be19190612ae8565b90506000611bef8284612b21565b9050611bfc858583611ead565b8115611c1957611c0d853084611ead565b611c1985858585612051565b5050505050565b611c286121c1565b6007805460ff191690557f5db9ee0a495bf2e6ff9c91a7834c1ba4fdd244a5e8aa4e537bd38aeae4b073aa335b6040516001600160a01b03909116815260200160405180910390a1565b600580546001600160a01b038381166001600160a01b0319831681179093556040519116919082907f8be0079c531659141344cd1fd0a4f28419497f9722a3daafe3b4186f6b6457e090600090a35050565b611ccc611d5a565b6007805460ff191660011790557f62e78cea01bee320cd4e420270b5ea74000d11b0c9f74754ebdbfc544b05a258611c553390565b600260065403611d535760405162461bcd60e51b815260206004820152601f60248201527f5265656e7472616e637947756172643a207265656e7472616e742063616c6c006044820152606401610c12565b6002600655565b60075460ff1615610d5d5760405162461bcd60e51b815260206004820152601060248201526f14185d5cd8589b194e881c185d5cd95960821b6044820152606401610c12565b600e8054906000611db083612b4a565b9091555050426014556001600160a01b0382166000908152600a60205260408120600501805491611de083612b4a565b90915550506001600160a01b038281166000908152600a6020908152604080832042600690910155600b8252822080546001810182559083529082200180546001600160a01b03191692841692909217909155611e3b6113cf565b6000818152601560205260408120828155600101805492935090611e5e83612b4a565b9091555050600e546010546040517f17d726ad382ea92487e2c4d01469c94fa17bef35e71d3f4b5414159695c038d292611ea092908252602082015260400190565b60405180910390a1505050565b6001600160a01b038316611f115760405162461bcd60e51b815260206004820152602560248201527f45524332303a207472616e736665722066726f6d20746865207a65726f206164604482015264647265737360d81b6064820152608401610c12565b6001600160a01b038216611f735760405162461bcd60e51b815260206004820152602360248201527f45524332303a207472616e7366657220746f20746865207a65726f206164647260448201526265737360e81b6064820152608401610c12565b6001600160a01b03831660009081526020819052604090205481811015611feb5760405162461bcd60e51b815260206004820152602660248201527f45524332303a207472616e7366657220616d6f756e7420657863656564732062604482015265616c616e636560d01b6064820152608401610c12565b6001600160a01b03848116600081815260208181526040808320878703905593871680835291849020805487019055925185815290927fddf252ad1be2c89b69c2b068fc378daa952ba7f163c4a11628f55a4df523b3ef910160405180910390a3611b29565b6000612710612061606485612b0a565b61206b9190612ae8565b9050600061271061207d603286612b0a565b6120879190612ae8565b90506000612710612099606487612b0a565b6120a39190612ae8565b905060006127106120b5603288612b0a565b6120bf9190612ae8565b905060006127106120d1606489612b0a565b6120db9190612ae8565b90506120e889868661220a565b6120f3838383612488565b6120fd84866129aa565b6010805460009061210f9084906129aa565b90915550504260145560006121226113cf565b905061212e85876129aa565b6000828152601560205260408120600201805490919061214f9084906129aa565b90915550506040805188815260208101889052908101869052606081018590526080810184905260a081018390526001600160a01b038b16907fd9b1dbb2fa6752182296114740731c6bd6c3fc3ae2e1638c88849e95dc19e7be9060c00160405180910390a250505050505050505050565b60075460ff16610d5d5760405162461bcd60e51b815260206004820152601460248201527314185d5cd8589b194e881b9bdd081c185d5cd95960621b6044820152606401610c12565b6001600160a01b038084166000908152600a602052604090206002810154600390910154908216911681158015906122425750600084115b156122e457612252308386611ead565b6001600160a01b0382166000908152600a60205260408120600401805486929061227d9084906129aa565b9091555050601180548591906000906122979084906129aa565b909155506122a890508460016124e7565b60408051858152600160208201526001600160a01b038085169290881691600080516020612b64833981519152910160405180910390a3612356565b8315612356576009546123029030906001600160a01b031686611ead565b83600e600501600082825461231791906129aa565b909155505060095460408051868152600160208201526001600160a01b0392831692881691600080516020612b64833981519152910160405180910390a35b6001600160a01b0381161580159061236e5750600083115b156124105761237e308285611ead565b6001600160a01b0381166000908152600a6020526040812060040180548592906123a99084906129aa565b9091555050601280548491906000906123c39084906129aa565b909155506123d490508360026124e7565b60408051848152600260208201526001600160a01b038084169290881691600080516020612b64833981519152910160405180910390a3611c19565b8215611c195760095461242e9030906001600160a01b031685611ead565b82600e600501600082825461244391906129aa565b909155505060095460408051858152600260208201526001600160a01b0392831692881691600080516020612b64833981519152910160405180910390a35050505050565b82156124ab576007546124ab90309061010090046001600160a01b031685611ead565b81156124c9576008546124c99030906001600160a01b031684611ead565b801561105a5760095461105a9030906001600160a01b031683611ead565b60006124f16113cf565b90508260156000838152602001908152602001600020600201600082825461251991906129aa565b9091555050505050565b634e487b7160e01b600052604160045260246000fd5b60006020828403121561254b57600080fd5b813567ffffffffffffffff8082111561256357600080fd5b818401915084601f83011261257757600080fd5b81358181111561258957612589612523565b604051601f8201601f19908116603f011681019083821181831017156125b1576125b1612523565b816040528281528760208487010111156125ca57600080fd5b826020860160208301376000928101602001929092525095945050505050565b6000815180845260005b81811015612610576020818501810151868301820152016125f4565b506000602082860101526020601f19601f83011685010191505092915050565b60208152600061264360208301846125ea565b9392505050565b80356001600160a01b038116811461266157600080fd5b919050565b6000806040838503121561267957600080fd5b6126828361264a565b946020939093013593505050565b6000602082840312156126a257600080fd5b6126438261264a565b60e0815260006126be60e083018a6125ea565b82810360208401526126d0818a6125ea565b6001600160a01b03988916604085015296909716606083015250608081019390935260a083019190915260c0909101529392505050565b801515811461173157600080fd5b6000806040838503121561272857600080fd5b6127318361264a565b9150602083013561274181612707565b809150509250929050565b60008060006060848603121561276157600080fd5b61276a8461264a565b92506127786020850161264a565b9150604084013590509250925092565b60006020828403121561279a57600080fd5b5035919050565b600080602083850312156127b457600080fd5b823567ffffffffffffffff808211156127cc57600080fd5b818501915085601f8301126127e057600080fd5b8135818111156127ef57600080fd5b86602082850101111561280157600080fd5b60209290920196919550909350505050565b6020808252825182820181905260009190848201906040850190845b818110156128545783516001600160a01b03168352928401929184019160010161282f565b50909695505050505050565b6020808252825182820181905260009190848201906040850190845b81811015612854576128b0838551805182526020810151602083015260408101516040830152606081015160608301525050565b928401926080929092019160010161287c565b600080604083850312156128d657600080fd5b6128df8361264a565b91506128ed6020840161264a565b90509250929050565b8151815260208083015190820152604080830151908201526060808301519082015260808101610a86565b600181811c9082168061293557607f821691505b60208210810361295557634e487b7160e01b600052602260045260246000fd5b50919050565b6020808252600f908201526e496e76616c6964206164647265737360881b604082015260600190565b8183823760009101908152919050565b634e487b7160e01b600052601160045260246000fd5b80820180821115610a8657610a86612994565b6000602082840312156129cf57600080fd5b815161264381612707565b601f82111561105a57600081815260208120601f850160051c81016020861015612a015750805b601f850160051c820191505b81811015612a2057828155600101612a0d565b505050505050565b67ffffffffffffffff831115612a4057612a40612523565b612a5483612a4e8354612921565b836129da565b6000601f841160018114612a885760008515612a705750838201355b600019600387901b1c1916600186901b178355611c19565b600083815260209020601f19861690835b82811015612ab95786850135825560209485019460019092019101612a99565b5086821015612ad65760001960f88860031b161c19848701351681555b505060018560011b0183555050505050565b600082612b0557634e487b7160e01b600052601260045260246000fd5b500490565b8082028115828204841417610a8657610a86612994565b81810381811115610a8657610a86612994565b634e487b7160e01b600052603260045260246000fd5b600060018201612b5c57612b5c612994565b506001019056fed53ea54cd361f7c49d3ca11bfcb71b4783448ade1b32513783ee19776f2adf31a26469706673582212209aed0b19470735828a2ff1af21aebfc0780ae5c6661b45ca1203c59491240bdb64736f6c63430008140033",
  "linkReferences": {},
  "deployedLinkReferences": {}
}