{
  "_format": "hh-sol-artifact-1",
  "contractName": "XDAO",
  "sourceName": "contracts/XDAO.sol",
  "abi": [
    {
      "inputs": [
        {
          "internalType": "address",
          "name": "_operationWallet",
          "type": "address"
        },
        {
          "internalType": "address",
          "name": "_marketingWallet",
          "type": "address"
        },
        {
          "internalType": "uint256",
          "name": "_initialSupply",
          "type": "uint256"
        }
      ],
      "stateMutability": "nonpayable",
      "type": "constructor"
    },
    {
      "anonymous": false,
      "inputs": [
        {
          "indexed": true,
          "internalType": "address",
          "name": "owner",
          "type": "address"
        },
        {
          "indexed": true,
          "internalType": "address",
          "name": "spender",
          "type": "address"
        },
        {
          "indexed": false,
          "internalType": "uint256",
          "name": "value",
          "type": "uint256"
        }
      ],
      "name": "Approval",
      "type": "event"
    },
    {
      "anonymous": false,
      "inputs": [
        {
          "indexed": true,
          "internalType": "address",
          "name": "oldWallet",
          "type": "address"
        },
        {
          "indexed": true,
          "internalType": "address",
          "name": "newWallet",
          "type": "address"
        }
      ],
      "name": "MarketingWalletUpdated",
      "type": "event"
    },
    {
      "anonymous": false,
      "inputs": [
        {
          "indexed": true,
          "internalType": "address",
          "name": "oldWallet",
          "type": "address"
        },
        {
          "indexed": true,
          "internalType": "address",
          "name": "newWallet",
          "type": "address"
        }
      ],
      "name": "OperationWalletUpdated",
      "type": "event"
    },
    {
      "anonymous": false,
      "inputs": [
        {
          "indexed": true,
          "internalType": "address",
          "name": "previousOwner",
          "type": "address"
        },
        {
          "indexed": true,
          "internalType": "address",
          "name": "newOwner",
          "type": "address"
        }
      ],
      "name": "OwnershipTransferred",
      "type": "event"
    },
    {
      "anonymous": false,
      "inputs": [
        {
          "indexed": false,
          "internalType": "address",
          "name": "account",
          "type": "address"
        }
      ],
      "name": "Paused",
      "type": "event"
    },
    {
      "anonymous": false,
      "inputs": [
        {
          "indexed": true,
          "internalType": "address",
          "name": "from",
          "type": "address"
        },
        {
          "indexed": false,
          "internalType": "uint256",
          "name": "totalTax",
          "type": "uint256"
        },
        {
          "indexed": false,
          "internalType": "uint256",
          "name": "operationFee",
          "type": "uint256"
        },
        {
          "indexed": false,
          "internalType": "uint256",
          "name": "marketingFee",
          "type": "uint256"
        }
      ],
      "name": "TaxCollected",
      "type": "event"
    },
    {
      "anonymous": false,
      "inputs": [
        {
          "indexed": true,
          "internalType": "address",
          "name": "from",
          "type": "address"
        },
        {
          "indexed": true,
          "internalType": "address",
          "name": "to",
          "type": "address"
        },
        {
          "indexed": false,
          "internalType": "uint256",
          "name": "value",
          "type": "uint256"
        }
      ],
      "name": "Transfer",
      "type": "event"
    },
    {
      "anonymous": false,
      "inputs": [
        {
          "indexed": false,
          "internalType": "address",
          "name": "account",
          "type": "address"
        }
      ],
      "name": "Unpaused",
      "type": "event"
    },
    {
      "inputs": [],
      "name": "MARKETING_RATE",
      "outputs": [
        {
          "internalType": "uint256",
          "name": "",
          "type": "uint256"
        }
      ],
      "stateMutability": "view",
      "type": "function"
    },
    {
      "inputs": [],
      "name": "OPERATION_RATE",
      "outputs": [
        {
          "internalType": "uint256",
          "name": "",
          "type": "uint256"
        }
      ],
      "stateMutability": "view",
      "type": "function"
    },
    {
      "inputs": [],
      "name": "TOTAL_TAX_RATE",
      "outputs": [
        {
          "internalType": "uint256",
          "name": "",
          "type": "uint256"
        }
      ],
      "stateMutability": "view",
      "type": "function"
    },
    {
      "inputs": [
        {
          "internalType": "address",
          "name": "owner",
          "type": "address"
        },
        {
          "internalType": "address",
          "name": "spender",
          "type": "address"
        }
      ],
      "name": "allowance",
      "outputs": [
        {
          "internalType": "uint256",
          "name": "",
          "type": "uint256"
        }
      ],
      "stateMutability": "view",
      "type": "function"
    },
    {
      "inputs": [
        {
          "internalType": "address",
          "name": "spender",
          "type": "address"
        },
        {
          "internalType": "uint256",
          "name": "amount",
          "type": "uint256"
        }
      ],
      "name": "approve",
      "outputs": [
        {
          "internalType": "bool",
          "name": "",
          "type": "bool"
        }
      ],
      "stateMutability": "nonpayable",
      "type": "function"
    },
    {
      "inputs": [
        {
          "internalType": "address",
          "name": "account",
          "type": "address"
        }
      ],
      "name": "balanceOf",
      "outputs": [
        {
          "internalType": "uint256",
          "name": "",
          "type": "uint256"
        }
      ],
      "stateMutability": "view",
      "type": "function"
    },
    {
      "inputs": [],
      "name": "decimals",
      "outputs": [
        {
          "internalType": "uint8",
          "name": "",
          "type": "uint8"
        }
      ],
      "stateMutability": "view",
      "type": "function"
    },
    {
      "inputs": [
        {
          "internalType": "address",
          "name": "spender",
          "type": "address"
        },
        {
          "internalType": "uint256",
          "name": "subtractedValue",
          "type": "uint256"
        }
      ],
      "name": "decreaseAllowance",
      "outputs": [
        {
          "internalType": "bool",
          "name": "",
          "type": "bool"
        }
      ],
      "stateMutability": "nonpayable",
      "type": "function"
    },
    {
      "inputs": [
        {
          "internalType": "address",
          "name": "token",
          "type": "address"
        },
        {
          "internalType": "uint256",
          "name": "amount",
          "type": "uint256"
        }
      ],
      "name": "emergencyWithdraw",
      "outputs": [],
      "stateMutability": "nonpayable",
      "type": "function"
    },
    {
      "inputs": [],
      "name": "getContractStats",
      "outputs": [
        {
          "internalType": "uint256",
          "name": "",
          "type": "uint256"
        },
        {
          "internalType": "uint256",
          "name": "",
          "type": "uint256"
        },
        {
          "internalType": "uint256",
          "name": "",
          "type": "uint256"
        },
        {
          "internalType": "uint256",
          "name": "",
          "type": "uint256"
        },
        {
          "internalType": "uint256",
          "name": "",
          "type": "uint256"
        }
      ],
      "stateMutability": "view",
      "type": "function"
    },
    {
      "inputs": [
        {
          "internalType": "address",
          "name": "spender",
          "type": "address"
        },
        {
          "internalType": "uint256",
          "name": "addedValue",
          "type": "uint256"
        }
      ],
      "name": "increaseAllowance",
      "outputs": [
        {
          "internalType": "bool",
          "name": "",
          "type": "bool"
        }
      ],
      "stateMutability": "nonpayable",
      "type": "function"
    },
    {
      "inputs": [],
      "name": "marketingWallet",
      "outputs": [
        {
          "internalType": "address",
          "name": "",
          "type": "address"
        }
      ],
      "stateMutability": "view",
      "type": "function"
    },
    {
      "inputs": [],
      "name": "name",
      "outputs": [
        {
          "internalType": "string",
          "name": "",
          "type": "string"
        }
      ],
      "stateMutability": "view",
      "type": "function"
    },
    {
      "inputs": [],
      "name": "operationWallet",
      "outputs": [
        {
          "internalType": "address",
          "name": "",
          "type": "address"
        }
      ],
      "stateMutability": "view",
      "type": "function"
    },
    {
      "inputs": [],
      "name": "owner",
      "outputs": [
        {
          "internalType": "address",
          "name": "",
          "type": "address"
        }
      ],
      "stateMutability": "view",
      "type": "function"
    },
    {
      "inputs": [],
      "name": "pause",
      "outputs": [],
      "stateMutability": "nonpayable",
      "type": "function"
    },
    {
      "inputs": [],
      "name": "paused",
      "outputs": [
        {
          "internalType": "bool",
          "name": "",
          "type": "bool"
        }
      ],
      "stateMutability": "view",
      "type": "function"
    },
    {
      "inputs": [],
      "name": "renounceOwnership",
      "outputs": [],
      "stateMutability": "nonpayable",
      "type": "function"
    },
    {
      "inputs": [
        {
          "internalType": "address",
          "name": "_wallet",
          "type": "address"
        }
      ],
      "name": "setMarketingWallet",
      "outputs": [],
      "stateMutability": "nonpayable",
      "type": "function"
    },
    {
      "inputs": [
        {
          "internalType": "address",
          "name": "_wallet",
          "type": "address"
        }
      ],
      "name": "setOperationWallet",
      "outputs": [],
      "stateMutability": "nonpayable",
      "type": "function"
    },
    {
      "inputs": [
        {
          "internalType": "address",
          "name": "_address",
          "type": "address"
        },
        {
          "internalType": "bool",
          "name": "_exempt",
          "type": "bool"
        }
      ],
      "name": "setTaxExempt",
      "outputs": [],
      "stateMutability": "nonpayable",
      "type": "function"
    },
    {
      "inputs": [],
      "name": "symbol",
      "outputs": [
        {
          "internalType": "string",
          "name": "",
          "type": "string"
        }
      ],
      "stateMutability": "view",
      "type": "function"
    },
    {
      "inputs": [
        {
          "internalType": "address",
          "name": "",
          "type": "address"
        }
      ],
      "name": "taxExempt",
      "outputs": [
        {
          "internalType": "bool",
          "name": "",
          "type": "bool"
        }
      ],
      "stateMutability": "view",
      "type": "function"
    },
    {
      "inputs": [],
      "name": "totalSupply",
      "outputs": [
        {
          "internalType": "uint256",
          "name": "",
          "type": "uint256"
        }
      ],
      "stateMutability": "view",
      "type": "function"
    },
    {
      "inputs": [
        {
          "internalType": "address",
          "name": "to",
          "type": "address"
        },
        {
          "internalType": "uint256",
          "name": "amount",
          "type": "uint256"
        }
      ],
      "name": "transfer",
      "outputs": [
        {
          "internalType": "bool",
          "name": "",
          "type": "bool"
        }
      ],
      "stateMutability": "nonpayable",
      "type": "function"
    },
    {
      "inputs": [
        {
          "internalType": "address",
          "name": "from",
          "type": "address"
        },
        {
          "internalType": "address",
          "name": "to",
          "type": "address"
        },
        {
          "internalType": "uint256",
          "name": "amount",
          "type": "uint256"
        }
      ],
      "name": "transferFrom",
      "outputs": [
        {
          "internalType": "bool",
          "name": "",
          "type": "bool"
        }
      ],
      "stateMutability": "nonpayable",
      "type": "function"
    },
    {
      "inputs": [
        {
          "internalType": "address",
          "name": "newOwner",
          "type": "address"
        }
      ],
      "name": "transferOwnership",
      "outputs": [],
      "stateMutability": "nonpayable",
      "type": "function"
    },
    {
      "inputs": [],
      "name": "unpause",
      "outputs": [],
      "stateMutability": "nonpayable",
      "type": "function"
    },
    {
      "stateMutability": "payable",
      "type": "receive"
    }
  ],
  "bytecode": "0x60806040523480156200001157600080fd5b506040516200199d3803806200199d833981016040819052620000349162000383565b6040518060400160405280600a8152602001692c2220a7902a37b5b2b760b11b815250604051806040016040528060048152602001635844414f60e01b815250816003908162000085919062000468565b50600462000094828262000468565b505050620000b1620000ab6200024860201b60201c565b6200024c565b60016006556007805460ff191690556001600160a01b0383166200011c5760405162461bcd60e51b815260206004820152601860248201527f496e76616c6964206f7065726174696f6e2077616c6c6574000000000000000060448201526064015b60405180910390fd5b6001600160a01b038216620001745760405162461bcd60e51b815260206004820152601860248201527f496e76616c6964206d61726b6574696e672077616c6c65740000000000000000604482015260640162000113565b60078054610100600160a81b0319166101006001600160a01b038681169190910291909117909155600880546001600160a01b031916918416919091179055620001bf33826200029e565b600160096000620001d86005546001600160a01b031690565b6001600160a01b03908116825260208083019390935260409182016000908120805495151560ff199687161790553081526009909352818320805485166001908117909155968116835281832080548516881790559490941681529290922080549092169092179055506200055c565b3390565b600580546001600160a01b038381166001600160a01b0319831681179093556040519116919082907f8be0079c531659141344cd1fd0a4f28419497f9722a3daafe3b4186f6b6457e090600090a35050565b6001600160a01b038216620002f65760405162461bcd60e51b815260206004820152601f60248201527f45524332303a206d696e7420746f20746865207a65726f206164647265737300604482015260640162000113565b80600260008282546200030a919062000534565b90915550506001600160a01b038216600081815260208181526040808320805486019055518481527fddf252ad1be2c89b69c2b068fc378daa952ba7f163c4a11628f55a4df523b3ef910160405180910390a35050565b505050565b80516001600160a01b03811681146200037e57600080fd5b919050565b6000806000606084860312156200039957600080fd5b620003a48462000366565b9250620003b46020850162000366565b9150604084015190509250925092565b634e487b7160e01b600052604160045260246000fd5b600181811c90821680620003ef57607f821691505b6020821081036200041057634e487b7160e01b600052602260045260246000fd5b50919050565b601f8211156200036157600081815260208120601f850160051c810160208610156200043f5750805b601f850160051c820191505b8181101562000460578281556001016200044b565b505050505050565b81516001600160401b03811115620004845762000484620003c4565b6200049c81620004958454620003da565b8462000416565b602080601f831160018114620004d45760008415620004bb5750858301515b600019600386901b1c1916600185901b17855562000460565b600085815260208120601f198616915b828110156200050557888601518255948401946001909101908401620004e4565b5085821015620005245787850151600019600388901b60f8161c191681555b5050505050600190811b01905550565b808201808211156200055657634e487b7160e01b600052601160045260246000fd5b92915050565b611431806200056c6000396000f3fe6080604052600436106101bb5760003560e01c806370a08231116100ec578063a457c2d71161008a578063dd62ed3e11610064578063dd62ed3e146104b1578063dfe6b5d6146104d1578063e042ad581461050e578063f2fde38b1461053357600080fd5b8063a457c2d714610441578063a9059cbb14610461578063d1ecfc681461048157600080fd5b80638456cb59116100c65780638456cb59146103d95780638da5cb5b146103ee57806395ccea671461040c57806395d89b411461042c57600080fd5b806370a0823114610356578063715018a61461038c57806375f0a874146103a157600080fd5b806323b872dd11610159578063395093511161013357806339509351146102e95780633f4ba83a146103095780635c975abb1461031e5780635d098b381461033657600080fd5b806323b872dd146102ad57806328e7cef5146101c7578063313ce567146102cd57600080fd5b8063095ea7b311610195578063095ea7b31461022657806318160ddd146102565780631dc610401461026b57806321e4b5901461028d57600080fd5b806305501dea146101c757806306fdde03146101ef578063091f59481461021157600080fd5b366101c257005b600080fd5b3480156101d357600080fd5b506101dc603281565b6040519081526020015b60405180910390f35b3480156101fb57600080fd5b50610204610553565b6040516101e691906111c5565b34801561021d57600080fd5b506101dc606481565b34801561023257600080fd5b5061024661024136600461122f565b6105e5565b60405190151581526020016101e6565b34801561026257600080fd5b506002546101dc565b34801561027757600080fd5b5061028b610286366004611267565b6105ff565b005b34801561029957600080fd5b5061028b6102a836600461129e565b610632565b3480156102b957600080fd5b506102466102c83660046112c0565b610708565b3480156102d957600080fd5b50604051601281526020016101e6565b3480156102f557600080fd5b5061024661030436600461122f565b61072c565b34801561031557600080fd5b5061028b61074e565b34801561032a57600080fd5b5060075460ff16610246565b34801561034257600080fd5b5061028b61035136600461129e565b610760565b34801561036257600080fd5b506101dc61037136600461129e565b6001600160a01b031660009081526020819052604090205490565b34801561039857600080fd5b5061028b610827565b3480156103ad57600080fd5b506008546103c1906001600160a01b031681565b6040516001600160a01b0390911681526020016101e6565b3480156103e557600080fd5b5061028b610839565b3480156103fa57600080fd5b506005546001600160a01b03166103c1565b34801561041857600080fd5b5061028b61042736600461122f565b610849565b34801561043857600080fd5b5061020461096f565b34801561044d57600080fd5b5061024661045c36600461122f565b61097e565b34801561046d57600080fd5b5061024661047c36600461122f565b6109f9565b34801561048d57600080fd5b5061024661049c36600461129e565b60096020526000908152604090205460ff1681565b3480156104bd57600080fd5b506101dc6104cc3660046112fc565b610a07565b3480156104dd57600080fd5b506104e6610a32565b604080519586526020860194909452928401919091526060830152608082015260a0016101e6565b34801561051a57600080fd5b506007546103c19061010090046001600160a01b031681565b34801561053f57600080fd5b5061028b61054e36600461129e565b610a89565b6060600380546105629061132f565b80601f016020809104026020016040519081016040528092919081815260200182805461058e9061132f565b80156105db5780601f106105b0576101008083540402835291602001916105db565b820191906000526020600020905b8154815290600101906020018083116105be57829003601f168201915b5050505050905090565b6000336105f3818585610b02565b60019150505b92915050565b610607610c26565b6001600160a01b03919091166000908152600960205260409020805460ff1916911515919091179055565b61063a610c26565b6001600160a01b0381166106875760405162461bcd60e51b815260206004820152600f60248201526e496e76616c6964206164647265737360881b60448201526064015b60405180910390fd5b600780546001600160a01b03838116610100818102610100600160a81b03198516179094559290910416600081815260096020526040808220805460ff19908116909155848352818320805490911660011790555191929183917fca080a818b8897fedd4279d8b41f79629665db622f8a24128c626981eee684a191a35050565b600033610716858285610c80565b610721858585610cfa565b506001949350505050565b6000336105f381858561073f8383610a07565b610749919061137f565b610b02565b610756610c26565b61075e610de8565b565b610768610c26565b6001600160a01b0381166107b05760405162461bcd60e51b815260206004820152600f60248201526e496e76616c6964206164647265737360881b604482015260640161067e565b600880546001600160a01b038381166001600160a01b03198316811790935516600081815260096020526040808220805460ff19908116909155848352818320805490911660011790555191929183917f8616c7a330e3cf61290821331585511f1e2778171e2b005fb5ec60cfe874dc6791a35050565b61082f610c26565b61075e6000610e3a565b610841610c26565b61075e610e8c565b610851610c26565b6001600160a01b0382166108975760405162461bcd60e51b815260206004820152600d60248201526c24b73b30b634b2103a37b5b2b760991b604482015260640161067e565b600081116108d85760405162461bcd60e51b815260206004820152600e60248201526d125b9d985b1a5908185b5bdd5b9d60921b604482015260640161067e565b816001600160a01b031663a9059cbb6108f96005546001600160a01b031690565b6040516001600160e01b031960e084901b1681526001600160a01b039091166004820152602481018490526044016020604051808303816000875af1158015610946573d6000803e3d6000fd5b505050506040513d601f19601f8201168201806040525081019061096a9190611392565b505050565b6060600480546105629061132f565b6000338161098c8286610a07565b9050838110156109ec5760405162461bcd60e51b815260206004820152602560248201527f45524332303a2064656372656173656420616c6c6f77616e63652062656c6f77604482015264207a65726f60d81b606482015260840161067e565b6107218286868403610b02565b6000336105f3818585610cfa565b6001600160a01b03918216600090815260016020908152604080832093909416825291909152205490565b6000806000806000610a4360025490565b6007546001600160a01b03610100909104811660009081526020819052604080822054600854909316825280822054308352912054929891975095504794509092509050565b610a91610c26565b6001600160a01b038116610af65760405162461bcd60e51b815260206004820152602660248201527f4f776e61626c653a206e6577206f776e657220697320746865207a65726f206160448201526564647265737360d01b606482015260840161067e565b610aff81610e3a565b50565b6001600160a01b038316610b645760405162461bcd60e51b8152602060048201526024808201527f45524332303a20617070726f76652066726f6d20746865207a65726f206164646044820152637265737360e01b606482015260840161067e565b6001600160a01b038216610bc55760405162461bcd60e51b815260206004820152602260248201527f45524332303a20617070726f766520746f20746865207a65726f206164647265604482015261737360f01b606482015260840161067e565b6001600160a01b0383811660008181526001602090815260408083209487168084529482529182902085905590518481527f8c5be1e5ebec7d5bd14f71427d1e84f3dd0314c0f7b2291e5b200ac8c7c3b925910160405180910390a3505050565b6005546001600160a01b0316331461075e5760405162461bcd60e51b815260206004820181905260248201527f4f776e61626c653a2063616c6c6572206973206e6f7420746865206f776e6572604482015260640161067e565b6000610c8c8484610a07565b90506000198114610cf45781811015610ce75760405162461bcd60e51b815260206004820152601d60248201527f45524332303a20696e73756666696369656e7420616c6c6f77616e6365000000604482015260640161067e565b610cf48484848403610b02565b50505050565b60075460ff1615610d425760405162461bcd60e51b815260206004820152601260248201527110dbdb9d1c9858dd081a5cc81c185d5cd95960721b604482015260640161067e565b6001600160a01b03831660009081526009602052604090205460ff1680610d8157506001600160a01b03821660009081526009602052604090205460ff165b15610d915761096a838383610ec9565b6000612710610da16064846113af565b610dab91906113c6565b90506000610db982846113e8565b9050610dc6858583610ec9565b8115610de157610dd7853084610ec9565b610de1858361106d565b5050505050565b610df0611136565b6007805460ff191690557f5db9ee0a495bf2e6ff9c91a7834c1ba4fdd244a5e8aa4e537bd38aeae4b073aa335b6040516001600160a01b03909116815260200160405180910390a1565b600580546001600160a01b038381166001600160a01b0319831681179093556040519116919082907f8be0079c531659141344cd1fd0a4f28419497f9722a3daafe3b4186f6b6457e090600090a35050565b610e9461117f565b6007805460ff191660011790557f62e78cea01bee320cd4e420270b5ea74000d11b0c9f74754ebdbfc544b05a258610e1d3390565b6001600160a01b038316610f2d5760405162461bcd60e51b815260206004820152602560248201527f45524332303a207472616e736665722066726f6d20746865207a65726f206164604482015264647265737360d81b606482015260840161067e565b6001600160a01b038216610f8f5760405162461bcd60e51b815260206004820152602360248201527f45524332303a207472616e7366657220746f20746865207a65726f206164647260448201526265737360e81b606482015260840161067e565b6001600160a01b038316600090815260208190526040902054818110156110075760405162461bcd60e51b815260206004820152602660248201527f45524332303a207472616e7366657220616d6f756e7420657863656564732062604482015265616c616e636560d01b606482015260840161067e565b6001600160a01b03848116600081815260208181526040808320878703905593871680835291849020805487019055925185815290927fddf252ad1be2c89b69c2b068fc378daa952ba7f163c4a11628f55a4df523b3ef910160405180910390a3610cf4565b6000606461107c6032846113af565b61108691906113c6565b9050600060646110976032856113af565b6110a191906113c6565b905081156110c6576007546110c690309061010090046001600160a01b031684610ec9565b80156110e4576008546110e49030906001600160a01b031683610ec9565b60408051848152602081018490529081018290526001600160a01b038516907f102d89abf7b0457e330fba7d8bb8a2603fb662865bc093ecffffe5bc446c25299060600160405180910390a250505050565b60075460ff1661075e5760405162461bcd60e51b815260206004820152601460248201527314185d5cd8589b194e881b9bdd081c185d5cd95960621b604482015260640161067e565b60075460ff161561075e5760405162461bcd60e51b815260206004820152601060248201526f14185d5cd8589b194e881c185d5cd95960821b604482015260640161067e565b600060208083528351808285015260005b818110156111f2578581018301518582016040015282016111d6565b506000604082860101526040601f19601f8301168501019250505092915050565b80356001600160a01b038116811461122a57600080fd5b919050565b6000806040838503121561124257600080fd5b61124b83611213565b946020939093013593505050565b8015158114610aff57600080fd5b6000806040838503121561127a57600080fd5b61128383611213565b9150602083013561129381611259565b809150509250929050565b6000602082840312156112b057600080fd5b6112b982611213565b9392505050565b6000806000606084860312156112d557600080fd5b6112de84611213565b92506112ec60208501611213565b9150604084013590509250925092565b6000806040838503121561130f57600080fd5b61131883611213565b915061132660208401611213565b90509250929050565b600181811c9082168061134357607f821691505b60208210810361136357634e487b7160e01b600052602260045260246000fd5b50919050565b634e487b7160e01b600052601160045260246000fd5b808201808211156105f9576105f9611369565b6000602082840312156113a457600080fd5b81516112b981611259565b80820281158282048414176105f9576105f9611369565b6000826113e357634e487b7160e01b600052601260045260246000fd5b500490565b818103818111156105f9576105f961136956fea2646970667358221220c97a885bba7e47774aaece1f24ff965ba9d42476879018d025996d763c539df964736f6c63430008140033",
  "linkReferences": {},
  "deployedLinkReferences": {}
}